{
  "contractName": "MilkyWay",
  "abi": [
    {
      "inputs": [
        {
          "internalType": "address",
          "name": "_slrAddress",
          "type": "address"
        },
        {
          "internalType": "address",
          "name": "_bnbAddress",
          "type": "address"
        },
        {
          "internalType": "address",
          "name": "_slrRouterAddress",
          "type": "address"
        }
      ],
      "stateMutability": "nonpayable",
      "type": "constructor"
    },
    {
      "anonymous": false,
      "inputs": [
        {
          "indexed": false,
          "internalType": "uint128",
          "name": "bnbAmount",
          "type": "uint128"
        },
        {
          "indexed": false,
          "internalType": "uint256",
          "name": "slrAmount",
          "type": "uint256"
        }
      ],
      "name": "Bayback",
      "type": "event"
    },
    {
      "anonymous": false,
      "inputs": [
        {
          "indexed": true,
          "internalType": "address",
          "name": "previousOwner",
          "type": "address"
        },
        {
          "indexed": true,
          "internalType": "address",
          "name": "newOwner",
          "type": "address"
        }
      ],
      "name": "OwnershipTransferred",
      "type": "event"
    },
    {
      "inputs": [
        {
          "internalType": "uint256",
          "name": "",
          "type": "uint256"
        }
      ],
      "name": "baybackStat",
      "outputs": [
        {
          "internalType": "uint128",
          "name": "bnbAmount",
          "type": "uint128"
        },
        {
          "internalType": "uint128",
          "name": "slrAmount",
          "type": "uint128"
        },
        {
          "internalType": "uint128",
          "name": "lpMinted",
          "type": "uint128"
        },
        {
          "internalType": "uint32",
          "name": "timestamp",
          "type": "uint32"
        }
      ],
      "stateMutability": "view",
      "type": "function"
    },
    {
      "inputs": [],
      "name": "bnbAddress",
      "outputs": [
        {
          "internalType": "address",
          "name": "",
          "type": "address"
        }
      ],
      "stateMutability": "view",
      "type": "function"
    },
    {
      "inputs": [
        {
          "internalType": "address",
          "name": "_controller",
          "type": "address"
        },
        {
          "internalType": "int128",
          "name": "_share",
          "type": "int128"
        }
      ],
      "name": "changeInvestPoolShare",
      "outputs": [],
      "stateMutability": "nonpayable",
      "type": "function"
    },
    {
      "inputs": [
        {
          "internalType": "address",
          "name": "_controller",
          "type": "address"
        }
      ],
      "name": "invest",
      "outputs": [],
      "stateMutability": "nonpayable",
      "type": "function"
    },
    {
      "inputs": [],
      "name": "investAll",
      "outputs": [],
      "stateMutability": "nonpayable",
      "type": "function"
    },
    {
      "inputs": [],
      "name": "investPoolLastIndex",
      "outputs": [
        {
          "internalType": "uint256",
          "name": "",
          "type": "uint256"
        }
      ],
      "stateMutability": "view",
      "type": "function"
    },
    {
      "inputs": [
        {
          "internalType": "uint256",
          "name": "",
          "type": "uint256"
        }
      ],
      "name": "investPoolShare",
      "outputs": [
        {
          "internalType": "address",
          "name": "controller",
          "type": "address"
        },
        {
          "internalType": "int128",
          "name": "share",
          "type": "int128"
        }
      ],
      "stateMutability": "view",
      "type": "function"
    },
    {
      "inputs": [
        {
          "internalType": "uint256",
          "name": "",
          "type": "uint256"
        }
      ],
      "name": "investStat",
      "outputs": [
        {
          "internalType": "uint128",
          "name": "amount",
          "type": "uint128"
        },
        {
          "internalType": "uint32",
          "name": "timestamp",
          "type": "uint32"
        }
      ],
      "stateMutability": "view",
      "type": "function"
    },
    {
      "inputs": [],
      "name": "owner",
      "outputs": [
        {
          "internalType": "address",
          "name": "",
          "type": "address"
        }
      ],
      "stateMutability": "view",
      "type": "function"
    },
    {
      "inputs": [],
      "name": "renounceOwnership",
      "outputs": [],
      "stateMutability": "nonpayable",
      "type": "function"
    },
    {
      "inputs": [
        {
          "internalType": "address",
          "name": "_address",
          "type": "address"
        },
        {
          "internalType": "bool",
          "name": "_active",
          "type": "bool"
        }
      ],
      "name": "setInvestController",
      "outputs": [],
      "stateMutability": "nonpayable",
      "type": "function"
    },
    {
      "inputs": [],
      "name": "slrAddress",
      "outputs": [
        {
          "internalType": "address",
          "name": "",
          "type": "address"
        }
      ],
      "stateMutability": "view",
      "type": "function"
    },
    {
      "inputs": [],
      "name": "slrPairAddress",
      "outputs": [
        {
          "internalType": "address",
          "name": "",
          "type": "address"
        }
      ],
      "stateMutability": "view",
      "type": "function"
    },
    {
      "inputs": [],
      "name": "totalBayback",
      "outputs": [
        {
          "internalType": "uint256",
          "name": "",
          "type": "uint256"
        }
      ],
      "stateMutability": "view",
      "type": "function"
    },
    {
      "inputs": [],
      "name": "totalInvested",
      "outputs": [
        {
          "internalType": "uint256",
          "name": "",
          "type": "uint256"
        }
      ],
      "stateMutability": "view",
      "type": "function"
    },
    {
      "inputs": [
        {
          "internalType": "address",
          "name": "newOwner",
          "type": "address"
        }
      ],
      "name": "transferOwnership",
      "outputs": [],
      "stateMutability": "nonpayable",
      "type": "function"
    },
    {
      "inputs": [],
      "name": "calcAmountToBayback",
      "outputs": [
        {
          "internalType": "uint256",
          "name": "amountToBayback",
          "type": "uint256"
        }
      ],
      "stateMutability": "view",
      "type": "function"
    },
    {
      "inputs": [],
      "name": "calcAmountToInvest",
      "outputs": [
        {
          "internalType": "uint256",
          "name": "amountToInvest",
          "type": "uint256"
        }
      ],
      "stateMutability": "view",
      "type": "function"
    },
    {
      "inputs": [
        {
          "internalType": "uint256",
          "name": "_amount",
          "type": "uint256"
        }
      ],
      "name": "buyBackFromRewards",
      "outputs": [],
      "stateMutability": "nonpayable",
      "type": "function"
    },
    {
      "inputs": [],
      "name": "doBuyBack",
      "outputs": [],
      "stateMutability": "nonpayable",
      "type": "function"
    },
    {
      "inputs": [],
      "name": "baybackStatLength",
      "outputs": [
        {
          "internalType": "uint256",
          "name": "",
          "type": "uint256"
        }
      ],
      "stateMutability": "view",
      "type": "function"
    },
    {
      "inputs": [],
      "name": "bnb",
      "outputs": [
        {
          "internalType": "contract IERC20",
          "name": "",
          "type": "address"
        }
      ],
      "stateMutability": "view",
      "type": "function"
    }
  ],
  "bytecode": "0x60e06040523480156200001157600080fd5b5060405162002666380380620026668339810160408190526200003491620001b7565b6200003f3362000148565b6001600160a01b038316158015906200006057506001600160a01b03811615155b620000a25760405162461bcd60e51b815260206004820152600e60248201526d496e76616c696420706172616d7360901b604482015260640160405180910390fd5b600780546001600160a01b0319166001600160a01b0383811691909117909155838116608081905290831660a0526040805163545844c160e11b8152905163a8b08982916004808201926020929091908290030181865afa1580156200010c573d6000803e3d6000fd5b505050506040513d601f19601f8201168201806040525081019062000132919062000201565b6001600160a01b031660c0525062000226915050565b600680546001600160a01b038381166001600160a01b0319831681179093556040519116919082907f8be0079c531659141344cd1fd0a4f28419497f9722a3daafe3b4186f6b6457e090600090a35050565b80516001600160a01b0381168114620001b257600080fd5b919050565b600080600060608486031215620001cd57600080fd5b620001d8846200019a565b9250620001e8602085016200019a565b9150620001f8604085016200019a565b90509250925092565b6000602082840312156200021457600080fd5b6200021f826200019a565b9392505050565b60805160a05160c05161237d620002e9600039600081816102b301528181611141015281816112320152818161129e01528181611312015281816113c60152818161141a01526114700152600081816102730152818161035f01528181610ba301528181610ca401528181610d3401528181610f2701528181611162015281816111d4015281816112100152818161133301526113a40152600081816101a101528181611183015281816111b30152818161135401526113f8015261237d6000f3fe608060405234801561001057600080fd5b50600436106101825760003560e01c80638da5cb5b116100d8578063d11c583a1161008c578063df87253611610066578063df8725361461039c578063f2fde38b146103a4578063f4bc8d97146103b757600080fd5b8063d11c583a1461035a578063d2333e7b14610381578063d62229ba1461038957600080fd5b8063bc19a605116100bd578063bc19a60514610313578063c423c2551461031b578063c8cf0ab71461032357600080fd5b80638da5cb5b146102f9578063b90c499b1461030a57600080fd5b806349a876e41161013a578063646fc56011610114578063646fc560146102d5578063715018a6146102de5780637fb5e36d146102e657600080fd5b806349a876e4146102715780635216aeec14610297578063610a3c45146102ae57600080fd5b80632b5819011161016b5780632b581901146101e05780632cf5bdf6146101f35780633af8a5d61461023c57600080fd5b806303f9c793146101875780631780ab331461019c575b600080fd5b61019a61019536600461203e565b6103bf565b005b6101c37f000000000000000000000000000000000000000000000000000000000000000081565b6040516001600160a01b0390911681526020015b60405180910390f35b61019a6101ee366004612067565b6104dc565b61020661020136600461209e565b61083a565b604080516001600160801b0395861681529385166020850152919093169082015263ffffffff90911660608201526080016101d7565b61024f61024a36600461209e565b610889565b604080516001600160a01b039093168352600f9190910b6020830152016101d7565b7f00000000000000000000000000000000000000000000000000000000000000006101c3565b6102a060005481565b6040519081526020016101d7565b6101c37f000000000000000000000000000000000000000000000000000000000000000081565b6102a060025481565b61019a6108c4565b61019a6102f43660046120b7565b61092a565b6006546001600160a01b03166101c3565b6102a060095481565b61019a610b07565b6102a0610b81565b61033661033136600461209e565b610c4a565b604080516001600160801b03909316835263ffffffff9091166020830152016101d7565b6101c37f000000000000000000000000000000000000000000000000000000000000000081565b6102a0610c82565b61019a61039736600461209e565b610d27565b61019a610d6c565b61019a6103b236600461203e565b610dc0565b600a546102a0565b6000816001600160a01b03166399ad96a16040518163ffffffff1660e01b8152600401602060405180830381865afa1580156103ff573d6000803e3d6000fd5b505050506040513d601f19601f8201168201806040525081019061042391906120e9565b6001600160a01b0383166000908152600560205260408120549192509061044d90600f0b82610e9f565b90508181111561046f5761046a836104658484612118565b610f1a565b505050565b6000836001600160a01b03166388dcef316040518163ffffffff1660e01b8152600401602060405180830381865afa1580156104af573d6000803e3d6000fd5b505050506040513d601f19601f820116820180604052508101906104d391906120e9565b90505b50505050565b80610720576001600160a01b038216600090815260056020526040902054600f0b1561053f5760405162461bcd60e51b815260206004820152600d60248201526c125b9d995cdd10dbdb9d1c9bdb609a1b60448201526064015b60405180910390fd5b6001600160a01b03821660009081526004602052604090205460ff16151560011461059c5760405162461bcd60e51b815260206004820152600d60248201526c125b9d995cdd10dbdb9d1c9bdb609a1b6044820152606401610536565b6001600160a01b0382166000908152600460209081526040808320805460ff191690556005825280832080546fffffffffffffffffffffffffffffffff19169055600390915290205460025481146106b65760006001600254815481106106055761060561212f565b60009182526020918290206040805180820190915260029092020180546001600160a01b03168252600190810154600f0b928201929092528154909250829190849081106106555761065561212f565b600091825260209182902083516002929092020180546001600160a01b0319166001600160a01b03909216919091178155910151600190910180546fffffffffffffffffffffffffffffffff19166001600160801b03909216919091179055505b6001600254815481106106cb576106cb61212f565b60009182526020822060029182020180546001600160a01b0319168155600190810180546fffffffffffffffffffffffffffffffff191690558154909290610714908490612118565b90915550610836915050565b6001600160a01b0382166000908152600460209081526040808320805460ff191660019081179091556005909252822080546fffffffffffffffffffffffffffffffff19169055600280549192909161077a908490612145565b9091555050604080518082019091526001600160a01b038381168252600060208301818152600180548082018255925292517fb10e2d527612073b26eecdfd717e6a320cf44b4afac2b0732d9fcbe2b7fa0cf6600290920291820180546001600160a01b031916919093161790915590517fb10e2d527612073b26eecdfd717e6a320cf44b4afac2b0732d9fcbe2b7fa0cf790910180546fffffffffffffffffffffffffffffffff19166001600160801b039092169190911790555b5050565b600a818154811061084a57600080fd5b6000918252602090912060029091020180546001909101546001600160801b038083169350600160801b92839004811692908216910463ffffffff1684565b6001818154811061089957600080fd5b6000918252602090912060029091020180546001909101546001600160a01b039091169150600f0b82565b6006546001600160a01b0316331461091e5760405162461bcd60e51b815260206004820181905260248201527f4f776e61626c653a2063616c6c6572206973206e6f7420746865206f776e65726044820152606401610536565b6109286000610fd2565b565b600081600f0b1361096d5760405162461bcd60e51b815260206004820152600d60248201526c125b9d995cdd10dbdb9d1c9bdb609a1b6044820152606401610536565b6001600160a01b03821660009081526004602052604090205460ff166109c55760405162461bcd60e51b815260206004820152600d60248201526c125b9d995cdd10dbdb9d1c9bdb609a1b6044820152606401610536565b60006109d16000611024565b905060005b600154811015610ab757836001600160a01b0316600182815481106109fd576109fd61212f565b60009182526020909120600290910201546001600160a01b03161415610a6c578260018281548110610a3157610a3161212f565b6000918252602090912060029091020160010180546fffffffffffffffffffffffffffffffff19166001600160801b03929092169190911790555b610aa360018281548110610a8257610a8261212f565b6000918252602090912060016002909202010154600f84810b91900b611042565b915080610aaf8161215d565b9150506109d6565b50610ac26001611024565b600f0b81600f0b131561046a5760405162461bcd60e51b815260206004820152600d60248201526c125b9d995cdd10dbdb9d1c9bdb609a1b6044820152606401610536565b6006546001600160a01b03163314610b615760405162461bcd60e51b815260206004820181905260248201527f4f776e61626c653a2063616c6c6572206973206e6f7420746865206f776e65726044820152606401610536565b6000610b73610b6e610b81565b61109e565b9050610b7e81611121565b50565b6040516370a0823160e01b815230600482015260009081906001600160a01b037f000000000000000000000000000000000000000000000000000000000000000016906370a0823190602401602060405180830381865afa158015610bea573d6000803e3d6000fd5b505050506040513d601f19601f82011682018060405250810190610c0e91906120e9565b9050600954600282600954600054610c269190612145565b610c309190612145565b610c3a919061218e565b610c449190612118565b91505090565b60088181548110610c5a57600080fd5b6000918252602090912001546001600160801b0381169150600160801b900463ffffffff1682565b6040516370a0823160e01b815230600482015260009081906001600160a01b037f000000000000000000000000000000000000000000000000000000000000000016906370a0823190602401602060405180830381865afa158015610ceb573d6000803e3d6000fd5b505050506040513d601f19601f82011682018060405250810190610d0f91906120e9565b9050600054600282600954600054610c269190612145565b610d5b6001600160a01b037f0000000000000000000000000000000000000000000000000000000000000000163083611612565b610b7e610d678261109e565b611121565b60005b600154811015610b7e57610dae60018281548110610d8f57610d8f61212f565b60009182526020909120600290910201546001600160a01b03166103bf565b80610db88161215d565b915050610d6f565b6006546001600160a01b03163314610e1a5760405162461bcd60e51b815260206004820181905260248201527f4f776e61626c653a2063616c6c6572206973206e6f7420746865206f776e65726044820152606401610536565b6001600160a01b038116610e965760405162461bcd60e51b815260206004820152602660248201527f4f776e61626c653a206e6577206f776e657220697320746865207a65726f206160448201527f64647265737300000000000000000000000000000000000000000000000000006064820152608401610536565b610b7e81610fd2565b600081610eae57506000610f14565b600083600f0b1215610ebf57600080fd5b600f83900b6001600160801b038316810260401c90608084901c0277ffffffffffffffffffffffffffffffffffffffffffffffff811115610eff57600080fd5b60401b8119811115610f1057600080fd5b0190505b92915050565b610f4e6001600160a01b037f00000000000000000000000000000000000000000000000000000000000000001683836116bb565b6040517f2afcf480000000000000000000000000000000000000000000000000000000008152600481018290526001600160a01b03831690632afcf480906024016020604051808303816000875af1158015610fae573d6000803e3d6000fd5b505050506040513d601f19601f8201168201806040525081019061046a91906120e9565b600680546001600160a01b038381166001600160a01b0319831681179093556040519116919082907f8be0079c531659141344cd1fd0a4f28419497f9722a3daafe3b4186f6b6457e090600090a35050565b6000677fffffffffffffff82111561103b57600080fd5b5060401b90565b6000600f83810b9083900b017fffffffffffffffffffffffffffffffff80000000000000000000000000000000811280159061108e57506f7fffffffffffffffffffffffffffffff8113155b61109757600080fd5b9392505050565b60006001600160801b0382111561111d5760405162461bcd60e51b815260206004820152602760248201527f53616665436173743a2076616c756520646f65736e27742066697420696e203160448201527f32382062697473000000000000000000000000000000000000000000000000006064820152608401610536565b5090565b600061112e6002836121a2565b905060006111a9826001600160801b03167f00000000000000000000000000000000000000000000000000000000000000007f00000000000000000000000000000000000000000000000000000000000000007f000000000000000000000000000000000000000000000000000000000000000060c8611809565b90506000806111fb7f00000000000000000000000000000000000000000000000000000000000000007f0000000000000000000000000000000000000000000000000000000000000000856000611835565b90945092506112609150506001600160a01b037f0000000000000000000000000000000000000000000000000000000000000000167f00000000000000000000000000000000000000000000000000000000000000006001600160801b038716611612565b604080516000815260208101918290527f022c0d9f000000000000000000000000000000000000000000000000000000009091526001600160a01b037f0000000000000000000000000000000000000000000000000000000000000000169063022c0d9f906112d89085908590309060248101612220565b600060405180830381600087803b1580156112f257600080fd5b505af1158015611306573d6000803e3d6000fd5b505050506000806113927f00000000000000000000000000000000000000000000000000000000000000007f00000000000000000000000000000000000000000000000000000000000000007f000000000000000000000000000000000000000000000000000000000000000060028b61138091906121a2565b6001600160801b031689600080611874565b90925090506113eb6001600160a01b037f0000000000000000000000000000000000000000000000000000000000000000167f000000000000000000000000000000000000000000000000000000000000000084611612565b61143f6001600160a01b037f0000000000000000000000000000000000000000000000000000000000000000167f000000000000000000000000000000000000000000000000000000000000000083611612565b6040517f6a6278420000000000000000000000000000000000000000000000000000000081523060048201526000907f00000000000000000000000000000000000000000000000000000000000000006001600160a01b031690636a627842906024016020604051808303816000875af11580156114c1573d6000803e3d6000fd5b505050506040513d601f19601f820116820180604052508101906114e591906120e9565b9050600a6040518060800160405280896001600160801b0316815260200161150c8961109e565b6001600160801b031681526020016115238461109e565b6001600160801b0316815260200161153a4261199d565b63ffffffff908116909152825460018082018555600094855260208086208551918601516001600160801b03928316600160801b918416820217600290950290910193845560408601519390920180546060909601519382166001600160a01b03199096169590951792909316021790915560098054918b169290916115c1908490612145565b9091555050604080516001600160801b038a168152602081018890527f2cc1392aa65cfd1217cebc9904c06078a38212f3df6f31bd8449701070060d42910160405180910390a15050505050505050565b6040516001600160a01b03831660248201526044810182905261046a9084907fa9059cbb00000000000000000000000000000000000000000000000000000000906064015b60408051601f198184030181529190526020810180517bffffffffffffffffffffffffffffffffffffffffffffffffffffffff167fffffffff0000000000000000000000000000000000000000000000000000000090931692909217909152611a19565b80158061174e57506040517fdd62ed3e0000000000000000000000000000000000000000000000000000000081523060048201526001600160a01b03838116602483015284169063dd62ed3e90604401602060405180830381865afa158015611728573d6000803e3d6000fd5b505050506040513d601f19601f8201168201806040525081019061174c91906120e9565b155b6117c05760405162461bcd60e51b815260206004820152603660248201527f5361666545524332303a20617070726f76652066726f6d206e6f6e2d7a65726f60448201527f20746f206e6f6e2d7a65726f20616c6c6f77616e6365000000000000000000006064820152608401610536565b6040516001600160a01b03831660248201526044810182905261046a9084907f095ea7b30000000000000000000000000000000000000000000000000000000090606401611657565b6000806000611819878787611afe565b9150915061182988838387611bbe565b98975050505050505050565b600080600080866001600160a01b0316886001600160a01b03161061185d5786888688611862565b878787875b929b919a509850909650945050505050565b6000806000806118858b8b8b611afe565b91509150816000148015611897575080155b156118a75787935086925061198f565b60006118b4898484611cde565b9050878111611918578581101561190d5760405162461bcd60e51b815260206004820152601f60248201527f537761704d6174683a20494e53554646494349454e545f425f414d4f554e54006044820152606401610536565b88945092508261198d565b6000611925898486611cde565b90508981111561193757611937612258565b878110156119875760405162461bcd60e51b815260206004820152601f60248201527f537761704d6174683a20494e53554646494349454e545f415f414d4f554e54006044820152606401610536565b94508793505b505b505097509795505050505050565b600063ffffffff82111561111d5760405162461bcd60e51b815260206004820152602660248201527f53616665436173743a2076616c756520646f65736e27742066697420696e203360448201527f32206269747300000000000000000000000000000000000000000000000000006064820152608401610536565b6000611a6e826040518060400160405280602081526020017f5361666545524332303a206c6f772d6c6576656c2063616c6c206661696c6564815250856001600160a01b0316611da89092919063ffffffff16565b80519091501561046a5780806020019051810190611a8c919061226e565b61046a5760405162461bcd60e51b815260206004820152602a60248201527f5361666545524332303a204552433230206f7065726174696f6e20646964206e60448201527f6f742073756363656564000000000000000000000000000000000000000000006064820152608401610536565b6000806000611b0d8585611db7565b509050600080876001600160a01b0316630902f1ac6040518163ffffffff1660e01b8152600401606060405180830381865afa158015611b51573d6000803e3d6000fd5b505050506040513d601f19601f82011682018060405250810190611b7591906122a9565b5091509150826001600160a01b0316876001600160a01b031614611b9a578082611b9d565b81815b6dffffffffffffffffffffffffffff9182169a911698509650505050505050565b6000808511611c355760405162461bcd60e51b815260206004820152602360248201527f537761704d6174683a20494e53554646494349454e545f494e5055545f414d4f60448201527f554e5400000000000000000000000000000000000000000000000000000000006064820152608401610536565b600084118015611c455750600083115b611c915760405162461bcd60e51b815260206004820181905260248201527f537761704d6174683a20494e53554646494349454e545f4c49515549444954596044820152606401610536565b6000611c9f83612710612118565b611ca990876122f9565b90506000611cb785836122f9565b9050600082611cc8612710896122f9565b611cd29190612145565b9050611829818361218e565b6000808411611d2f5760405162461bcd60e51b815260206004820152601d60248201527f537761704d6174683a20494e53554646494349454e545f414d4f554e540000006044820152606401610536565b600083118015611d3f5750600082115b611d8b5760405162461bcd60e51b815260206004820181905260248201527f537761704d6174683a20494e53554646494349454e545f4c49515549444954596044820152606401610536565b82611d9683866122f9565b611da0919061218e565b949350505050565b6060611da08484600085611ea1565b600080826001600160a01b0316846001600160a01b03161415611e1c5760405162461bcd60e51b815260206004820152601d60248201527f537761704d6174683a204944454e544943414c5f4144445245535345530000006044820152606401610536565b826001600160a01b0316846001600160a01b031610611e3c578284611e3f565b83835b90925090506001600160a01b038216611e9a5760405162461bcd60e51b815260206004820152601660248201527f537761704d6174683a205a45524f5f41444452455353000000000000000000006044820152606401610536565b9250929050565b606082471015611f195760405162461bcd60e51b815260206004820152602660248201527f416464726573733a20696e73756666696369656e742062616c616e636520666f60448201527f722063616c6c00000000000000000000000000000000000000000000000000006064820152608401610536565b6001600160a01b0385163b611f705760405162461bcd60e51b815260206004820152601d60248201527f416464726573733a2063616c6c20746f206e6f6e2d636f6e74726163740000006044820152606401610536565b600080866001600160a01b03168587604051611f8c9190612318565b60006040518083038185875af1925050503d8060008114611fc9576040519150601f19603f3d011682016040523d82523d6000602084013e611fce565b606091505b5091509150611fde828286611fe9565b979650505050505050565b60608315611ff8575081611097565b8251156120085782518084602001fd5b8160405162461bcd60e51b81526004016105369190612334565b80356001600160a01b038116811461203957600080fd5b919050565b60006020828403121561205057600080fd5b61109782612022565b8015158114610b7e57600080fd5b6000806040838503121561207a57600080fd5b61208383612022565b9150602083013561209381612059565b809150509250929050565b6000602082840312156120b057600080fd5b5035919050565b600080604083850312156120ca57600080fd5b6120d383612022565b9150602083013580600f0b811461209357600080fd5b6000602082840312156120fb57600080fd5b5051919050565b634e487b7160e01b600052601160045260246000fd5b60008282101561212a5761212a612102565b500390565b634e487b7160e01b600052603260045260246000fd5b6000821982111561215857612158612102565b500190565b600060001982141561217157612171612102565b5060010190565b634e487b7160e01b600052601260045260246000fd5b60008261219d5761219d612178565b500490565b60006001600160801b03808416806121bc576121bc612178565b92169190910492915050565b60005b838110156121e35781810151838201526020016121cb565b838111156104d65750506000910152565b6000815180845261220c8160208601602086016121c8565b601f01601f19169290920160200192915050565b8481528360208201526001600160a01b038316604082015260806060820152600061224e60808301846121f4565b9695505050505050565b634e487b7160e01b600052600160045260246000fd5b60006020828403121561228057600080fd5b815161109781612059565b80516dffffffffffffffffffffffffffff8116811461203957600080fd5b6000806000606084860312156122be57600080fd5b6122c78461228b565b92506122d56020850161228b565b9150604084015163ffffffff811681146122ee57600080fd5b809150509250925092565b600081600019048311821515161561231357612313612102565b500290565b6000825161232a8184602087016121c8565b9190910192915050565b60208152600061109760208301846121f456fea2646970667358221220ceaa08a97c9fe77b1d2d2f202773170e052c7ccc61d5a2e40b07b0e815717d7c64736f6c634300080c0033",
  "immutableReferences": {
    "7556": [
      {
        "length": 32,
        "start": 417
      },
      {
        "length": 32,
        "start": 4483
      },
      {
        "length": 32,
        "start": 4531
      },
      {
        "length": 32,
        "start": 4948
      },
      {
        "length": 32,
        "start": 5112
      }
    ],
    "7558": [
      {
        "length": 32,
        "start": 627
      },
      {
        "length": 32,
        "start": 863
      },
      {
        "length": 32,
        "start": 2979
      },
      {
        "length": 32,
        "start": 3236
      },
      {
        "length": 32,
        "start": 3380
      },
      {
        "length": 32,
        "start": 3879
      },
      {
        "length": 32,
        "start": 4450
      },
      {
        "length": 32,
        "start": 4564
      },
      {
        "length": 32,
        "start": 4624
      },
      {
        "length": 32,
        "start": 4915
      },
      {
        "length": 32,
        "start": 5028
      }
    ],
    "7560": [
      {
        "length": 32,
        "start": 691
      },
      {
        "length": 32,
        "start": 4417
      },
      {
        "length": 32,
        "start": 4658
      },
      {
        "length": 32,
        "start": 4766
      },
      {
        "length": 32,
        "start": 4882
      },
      {
        "length": 32,
        "start": 5062
      },
      {
        "length": 32,
        "start": 5146
      },
      {
        "length": 32,
        "start": 5232
      }
    ]
  },
  "source": "// SPDX-License-Identifier: MIT\npragma solidity 0.8.12;\n\nimport \"@openzeppelin/contracts/token/ERC20/utils/SafeERC20.sol\";\nimport \"@openzeppelin/contracts/token/ERC20/IERC20.sol\";\nimport \"@openzeppelin/contracts/utils/math/SafeCast.sol\";\nimport \"@openzeppelin/contracts/access/Ownable.sol\";\nimport \"../interface/IPancakeRouter02.sol\";\nimport \"../interface/IPair.sol\";\nimport \"../utils/Recoverable.sol\";\nimport \"../lib/SwapMath.sol\";\nimport \"./InvestControl.sol\";\nimport \"../SolarToken.sol\";\n\ncontract MilkyWay is InvestControl, Ownable {\n  using SafeERC20 for IERC20;\n  using SafeCast for uint256;\n\n  // uint256 public minAmaoutToBuyBack = 50*10**18;\n  // uint256 public milkyWaySwapFee = 100;\n  // uint256 public buyBackAmount;\n  // uint256 public lpAmount;\n  address public immutable slrAddress;\n  address public immutable bnbAddress;\n  // address public immutable factoryAddress;\n  // address public immutable pairedTokenAddress;\n  address public immutable slrPairAddress;\n  // address public slrRouterAddress = 0x9Ac64Cc6e4415144C455BD8E4837Fea55603e5c3;\n\n  struct InvestInfo {\n    uint128 amount;\n    uint32 timestamp;\n  }\n\n  struct BaybackInfo {\n    uint128 bnbAmount;\n    uint128 slrAmount;\n    uint128 lpMinted;\n    uint32 timestamp;\n  }\n\n  IPancakeRouter02 slrRouter;\n  InvestInfo[] public investStat;\n\n  uint256 public totalBayback;\n  BaybackInfo[] public baybackStat;\n\n  event Bayback(uint128 bnbAmount, uint256 slrAmount);\n\n  constructor(address _slrAddress, address _bnbAddress, address _slrRouterAddress) {\n    require(\n      (\n        _slrAddress != address(0)\n        && _slrRouterAddress != address(0)\n      ),\n      'Invalid params'\n    );\n\n    slrRouter = IPancakeRouter02(_slrRouterAddress);\n    slrAddress = _slrAddress;\n    bnbAddress = _bnbAddress;\n    slrPairAddress = SolarToken(slrAddress).pairAddress();\n  }\n\n  // todo:   calcAmountToBayback  calcAmountToInvest,         - \n  function calcAmountToBayback() public view returns(uint256 amountToBayback) {\n    uint256 bnbBalance = IERC20(bnbAddress).balanceOf(address(this));\n    amountToBayback = (totalInvested + totalBayback + bnbBalance) / 2 - totalBayback;\n  }\n\n  function calcAmountToInvest() public view returns(uint256 amountToInvest) {\n    uint256 bnbBalance = IERC20(bnbAddress).balanceOf(address(this));\n    amountToInvest = (totalInvested + totalBayback + bnbBalance) / 2 - totalInvested;\n  }\n\n  function buyBackFromRewards(uint256 _amount) public {\n    IERC20(bnbAddress).safeTransfer(address(this), _amount);\n    _bayBack(_amount.toUint128());\n  }\n\n  function doBuyBack() public onlyOwner{\n    uint128 amountToBayback = calcAmountToBayback().toUint128();\n\n    _bayBack(amountToBayback);\n  }\n\n  function _bayBack(uint128 _amountToBayback) private {\n    uint128 bnbToBuySlr = _amountToBayback / 2;\n    uint256 slrSwapAmounOut = SwapMath.getAmountOutByPair(bnbToBuySlr, slrPairAddress, bnbAddress, slrAddress, 200);\n\n    (,, uint256 amountOut0, uint256 amountOut1) = SwapMath.sortTokensAmount(\n      slrAddress,\n      bnbAddress,\n      slrSwapAmounOut,\n      uint256(0)\n    );\n\n    IERC20(bnbAddress).safeTransfer(slrPairAddress, bnbToBuySlr);\n\n    IPair(slrPairAddress).swap(amountOut0, amountOut1, address(this), new bytes(0));\n\n    (uint256 bnbToLiquidityAmount, uint256 slrToLiquidityAmount) = SwapMath.addLiquidity(\n      slrPairAddress,\n      bnbAddress,\n      slrAddress,\n      _amountToBayback / 2,\n      slrSwapAmounOut,\n      0,\n      0\n    );\n    \n    IERC20(bnbAddress).safeTransfer(slrPairAddress, bnbToLiquidityAmount);\n    IERC20(slrAddress).safeTransfer(slrPairAddress, slrToLiquidityAmount);\n\n    uint256 liquidity = IPair(slrPairAddress).mint(address(this));\n\n    baybackStat.push(\n      BaybackInfo(\n        bnbToBuySlr,\n        slrSwapAmounOut.toUint128(),\n        liquidity.toUint128(),\n        block.timestamp.toUint32()\n      )\n    );\n    totalBayback += _amountToBayback;\n\n    emit Bayback(_amountToBayback, slrSwapAmounOut);\n  }\n\n  function baybackStatLength() public view returns(uint256) {\n    return baybackStat.length;\n  }\n\n  function bnb() public view override returns(IERC20) {\n    return IERC20(bnbAddress);\n  }\n\n  // function starBorning() public {\n  //   uint256 pairedBalance = IERC20(pairedTokenAddress).balanceOf(address(this));\n  //   require(pairedBalance > 0, \"StakerImpl: BALANCE_TOO_LOW\");\n\n  //   /* sorted addresses are usdt, nmx (usdt address less than nmx) */\n  //   (uint112 reserve0, uint112 reserve1,) = IPair(pairAddress).getReserves();\n\n  //   (\n  //     uint256 pairedReserve,\n  //     uint256 slrReserve\n  //   ) = slrAddress < pairedTokenAddress ? (reserve1, reserve0) : (reserve0, reserve1);\n\n  //   uint256 pairedToSwap = getUsdtToSwap(pairedBalance, pairedReserve);\n  //   uint256 slrAfterSwap = getAmountOut(pairedToSwap, pairedReserve, slrReserve);\n\n  //   buyBack(pairedToSwap, slrAfterSwap);\n  //   addLiquidity(pairedBalance - pairedToSwap, slrAfterSwap);\n  // }\n\n  // function getUsdtToSwap(uint256 usdtBalance, uint256 pairedReserve) private view returns (uint256) {\n  //   /*\n  //   u - usdt amount to be staked\n  //   n - nmx amount to be staked\n  //   u2n - usdt amount that should be converted to nmx\n  //   b0 - usdtBalance\n  //   ru0 - usdt reserve before swap\n  //   rn0 - nmx reserve before swap\n\n  //   | u + u2n = b0\n  //   | 0.998*(u2n-1)*(rn0 - n) = ru0*n\n  //   | u/n = (ru0 + u2n)/(rn0 - n)\n\n  //   u/n = (ru0 + u2n)/(rn0 - n) =>\n  //   u*(rn0-n) = n*(ru0+u2n) =>\n  //   u*rn0 - n*u = n*ru0 + n*u2n =>\n  //   u*rn0 - n*u = n*ru0 + n * (b0-u)\n  //   u*rn0 = n*ru0 + n*b0\n  //   u*rn0 = n*(ru0 + b0) =>\n  //   n = u*rn0 / (ru0 + b0)\n\n  //   0.998*(b0 - u - 1)*(rn0 - n) = ru0*n =>\n  //   0.998*(b0 - u - 1)*(rn0 - u*rn0 / (ru0 + b0)) = ru0*u*rn0 / (ru0 + b0) =>\n  //   0.998*(b0 - u - 1)*(rn0 - u*rn0 / (ru0 + b0)) * (ru0 + b0) = ru0*u*rn0  =>\n  //   0.998*(b0 - u - 1)*(rn0 * (ru0 + b0) - u*rn0 ) = ru0*u*rn0  =>\n  //   k = rn0 * ru0\n  //   0.998*(b0 - u - 1)*(k + rn0 * b0 - u*rn0 ) = k*u  =>\n\n  //   0.998*(b0-1)*k + 0.998*(b0-1)*rn0*b0-0.998*(b0-1)*u*rn0 - 0.998*u*k - 0.998*u*rn0*b0 + 0.998 * u * u * rn0 = k*u\n  //   (b0-1)*k + (b0-1)*rn0*b0 - (b0-1)*u*rn0 - u*rn0*b0 + u * u * rn0 = 1.998 / 0.998 * k*u\n\n  //   rn0*u*u - (2*b0*rn0 - rn0 + 1.998 / 0.998*k) * u + (b0-1)*k + (b0-1)*rn0*b0 = 0\n\n  //   rn0*u*u - (2*b0*rn0 - rn0 + 1.998 / 0.998* rn0 * ru0) * u + (b0-1)* rn0 * ru0 + (b0-1)*rn0*b0 = 0\n  //   u*u - (2*b0 - 1 + 1.998 / 0.998 * ru0) * u + (b0-1) * ru0 + (b0-1)*b0 = 0\n  //   u*u - (2*b0 - 1 + 1.998 / 0.998 * ru0) * u + (b0-1)*(b0+ru0) = 0\n\n  //   A = 1\n  //   B = - (2*b0 - 1 + 1.998 / 0.998 * ru0)\n  //   mB = -B;\n  //   C = (b0-1)*(b0+ru0)\n\n  //   u = (-B - sqrt(B*B - 4*C)) / 2 = (mB - sqrt(mB*mB - 4*C))/2\n\n  //   */\n\n  //   uint ru0 = pairedReserve;\n  //   uint b0 = usdtBalance;\n\n  //   uint mB = 2*b0 - 1 + (20000-milkyWaySwapFee) * ru0 / (10000-milkyWaySwapFee);\n  //   uint C = (b0 - 1) * (b0 + ru0);\n\n  //   uint u = (mB - sqrt(mB * mB - 4 * C))/2;\n\n  //   require(b0 > u + 1, \"MilkyMay: SWAPPED_BALANCE_TOO_LOW\");\n  //   return b0 - u - 1;\n  // }\n\n  // function getAmountOut(uint amountIn, uint reserveIn, uint reserveOut) internal view returns (uint amountOut) {\n  //   require(amountIn > 0, 'NomiswapLibrary: INSUFFICIENT_INPUT_AMOUNT');\n  //   require(reserveIn > 0 && reserveOut > 0, 'NomiswapLibrary: INSUFFICIENT_LIQUIDITY');\n  //   uint amountInWithFee = amountIn * (10000 - milkyWaySwapFee);\n  //   uint numerator = amountInWithFee * reserveOut;\n  //   uint denominator = reserveIn * 10000 + amountInWithFee;\n  //   amountOut = numerator / denominator;\n  // }\n\n  // function buyBack(uint256 pairedAmount, uint256 slrAmount) public {\n  //   require(pairedAmount > 0, \"MilkyMay: USDT BALANCE_TOO_LOW\");\n\n  //   IERC20(pairedTokenAddress).safeTransfer(pairAddress, pairedAmount);\n  //   (uint256 amount0, uint256 amount1) = slrAddress < pairedTokenAddress ? (slrAmount, uint256(0)) : (uint256(0), slrAmount)\n  //   ;    \n  //   IPair(pairAddress).swap(amount0, amount1, address(this), \"\");\n  //   buyBackAmount += slrAmount;\n  // }\n\n  // function addLiquidity(uint256 pairedAmount, uint256 slrAmount) private {\n  //   IERC20(pairedTokenAddress).safeTransfer(pairAddress, slrAmount);\n  //   IERC20(pairedTokenAddress).safeTransfer(pairAddress, pairedAmount);\n\n  //   lpAmount += IPair(pairAddress).mint(address(this));\n  // }\n\n  // function sqrt(uint256 y) internal pure returns (uint256 z) {\n  //   if (y > 3) {\n  //     z = y;\n  //     uint256 x = y / 2 + 1;\n  //     while (x < z) {\n  //       z = x;\n  //       x = (y / x + x) / 2;\n  //     }\n  //   } else if (y != 0) {\n  //     z = 1;\n  //   }\n  // }\n\n\n\n\n\n\n  // event MilkyWaySlr(uint256 slrAmount, uint256 pairedAmount);\n\n\n  // function sortTokens(address tokenA, address tokenB) internal pure returns(address token0, address token1) {\n  //   (token0, token1) = tokenA > tokenB ? (tokenB, tokenA) : (tokenA, tokenB);\n  // }\n\n  // function sortTokensAmount(address tokenA, address tokenB, uint256 amountA, uint256 amountB) internal pure returns(address token0, address token1, uint256 amount0, uint256 amount1) {\n  //   (token0, token1, amount0, amount1) = tokenA > tokenB ? (tokenB, tokenA, amountB, amountA) : (tokenA, tokenB, amountA, amountB);\n  // }\n\n  // function addLiquidity(\n  //   address _pairAddress,\n  //   address _token0Address,\n  //   address _token1Address,\n  //   uint256 _amount0,\n  //   uint256 _amount1,\n  //   uint256 _minLpAmount\n  // ) internal returns(uint256 mintedLpAmount) {\n  //   IERC20(_token0Address).safeTransfer(_pairAddress, _amount0);\n  //   IERC20(_token1Address).safeTransfer(_pairAddress, _amount1);\n\n  //   mintedLpAmount = IPair(_pairAddress).mint(address(this));\n\n  //   require(_minLpAmount <= mintedLpAmount, '');\n  // }\n\n  // function removeLiquidity(\n  //   address _pairAddress,\n  //   uint256 _lpAmount,\n  //   uint256 _minAmount0,\n  //   uint256 _minAmount1\n  // ) internal returns(uint256 amount0, uint256 amount1) {\n  //   IERC20(_pairAddress).safeTransfer(_pairAddress, _lpAmount);\n\n  //   (amount0, amount1) = IPair(_pairAddress).burn(address(this));\n\n  //   require(_minAmount0 <= amount0 && _minAmount1 < amount1, '');\n  // }\n\n  // function addSlrLiquidityAndBurn(uint256 slrAmount, uint256 pairedTokenAmount) internal {\n  //   (address token0, address token1, uint256 amount0, uint256 amount1) = sortTokensAmount(\n  //     slrAddress,\n  //     pairedTokenAddress,\n  //     slrAmount,\n  //     pairedTokenAmount\n  //   );\n\n  //   uint256 mintedLpAmount = addLiquidity(\n  //     slrPairAddress,\n  //     token0,\n  //     token1,\n  //     amount0,\n  //     amount1,\n  //     0\n  //   );\n\n  //   IERC20(slrPairAddress).safeTransfer(address(0), mintedLpAmount);\n  // }\n\n  // function sellSlr(uint256 amountIn, uint256 minAmountOut) private returns(uint256 outAmount) {\n  //   // generate the uniswap pair path of slr token -> paired token\n  //   address[] memory path = new address[](2);\n  //   path[0] = slrAddress;\n  //   path[1] = pairedTokenAddress;\n\n  //   IERC20(slrAddress).approve(slrRouterAddress, amountIn);\n\n  //   uint256 prevBalance = IERC20(pairedTokenAddress).balanceOf(address(this));\n  //   // make the swap\n  //   IPancakeRouter02(slrRouterAddress).swapExactTokensForTokensSupportingFeeOnTransferTokens(\n  //     amountIn,\n  //     minAmountOut, // accept any amount of ETH\n  //     path,\n  //     address(this), // The contract\n  //     block.timestamp\n  //   );\n  //   outAmount = IERC20(pairedTokenAddress).balanceOf(address(this)) - prevBalance;\n  // }\n\n  // function sell(address _pairAddress, address _soldTokenAddress, address _buyableTokenAddress, uint256 _amount, uint256 _minAmountOut) internal returns(uint256 outAmount) {    \n  //   uint256 prevBalance = IERC20(_buyableTokenAddress).balanceOf(address(this));\n\n  //   (,, uint256 amount0, uint256 amount1) = sortTokensAmount(\n  //     _soldTokenAddress,\n  //     _buyableTokenAddress,\n  //     uint256(0),\n  //     _amount\n  //   );\n\n  //   IERC20(_soldTokenAddress).safeTransfer(_pairAddress, _amount);\n  //   IPair(_pairAddress).swap(amount0, amount1, address(this), new bytes(0));\n\n  //   outAmount = IERC20(_buyableTokenAddress).balanceOf(address(this)) - prevBalance;\n\n  //   require(outAmount <= _minAmountOut, '');\n\n  //   return outAmount;\n  // }\n\n  // function buy(address _pairAddress, address _soldTokenAddress, address _buyableTokenAddress, uint256 _amount, uint256 _minAmountOut) internal returns(uint256 outAmount) {\n  //   uint256 prevBalance = IERC20(_buyableTokenAddress).balanceOf(address(this));\n\n  //   (,, uint256 amount0, uint256 amount1) = sortTokensAmount(\n  //     _soldTokenAddress,\n  //     _buyableTokenAddress,\n  //     uint256(0),\n  //     _amount\n  //   );\n\n  //   IERC20(_soldTokenAddress).safeTransfer(_pairAddress, _amount);\n  //   IPair(_pairAddress).swap(amount0, amount1, address(this), new bytes(0));\n\n  //   outAmount = IERC20(_buyableTokenAddress).balanceOf(address(this)) - prevBalance;\n\n  //   require(outAmount <= _minAmountOut, '');\n\n  //   return outAmount;\n  // }\n\n\n  // function milkyWay() public {\n  //   uint256 balance = IERC20(slrAddress).balanceOf(address(this));\n  //   uint256 amount;\n\n  //   if (balance > 0) {\n  //     amount = sellSlr(balance, 0);\n  //   }\n\n  //   emit MilkyWaySlr(balance, amount);\n  // }\n}\n",
  "sourcePath": "/Users/vyacheslav/Documents/solar.finance/contracts/contracts/MilkyWay/MilkyWay.sol",
  "compiler": {
    "name": "solc",
    "version": "0.8.12+commit.f00d7308.Emscripten.clang"
  },
  "schemaVersion": "3.4.5",
  "updatedAt": "2022-05-24T20:38:19.322Z",
  "devdoc": {
    "kind": "dev",
    "methods": {
      "owner()": {
        "details": "Returns the address of the current owner."
      },
      "renounceOwnership()": {
        "details": "Leaves the contract without owner. It will not be possible to call `onlyOwner` functions anymore. Can only be called by the current owner. NOTE: Renouncing ownership will leave the contract without an owner, thereby removing any functionality that is only available to the owner."
      },
      "transferOwnership(address)": {
        "details": "Transfers ownership of the contract to a new account (`newOwner`). Can only be called by the current owner."
      }
    },
    "version": 1
  },
  "userdoc": {
    "kind": "user",
    "methods": {},
    "version": 1
  }
}