{
  "contractName": "NmxInvestController",
  "abi": [
    {
      "inputs": [
        {
          "internalType": "address",
          "name": "_milkyWayAddress",
          "type": "address"
        },
        {
          "internalType": "address",
          "name": "_bnbAddress",
          "type": "address"
        },
        {
          "internalType": "address",
          "name": "_investingTokenAddress",
          "type": "address"
        },
        {
          "internalType": "enum IBaseInvestController.InvestingTokenType",
          "name": "_investingTokenType",
          "type": "uint8"
        },
        {
          "internalType": "address",
          "name": "_rewardsTokenAddress",
          "type": "address"
        },
        {
          "internalType": "address",
          "name": "_factoryAddress",
          "type": "address"
        },
        {
          "internalType": "address",
          "name": "_stakingServiceAddress",
          "type": "address"
        }
      ],
      "stateMutability": "nonpayable",
      "type": "constructor"
    },
    {
      "inputs": [],
      "name": "bnbAddress",
      "outputs": [
        {
          "internalType": "address",
          "name": "",
          "type": "address"
        }
      ],
      "stateMutability": "view",
      "type": "function"
    },
    {
      "inputs": [],
      "name": "claimAndBuyBack",
      "outputs": [],
      "stateMutability": "nonpayable",
      "type": "function"
    },
    {
      "inputs": [],
      "name": "factoryAddress",
      "outputs": [
        {
          "internalType": "address",
          "name": "",
          "type": "address"
        }
      ],
      "stateMutability": "view",
      "type": "function"
    },
    {
      "inputs": [
        {
          "internalType": "address",
          "name": "_targetToken",
          "type": "address"
        }
      ],
      "name": "getTokenPriceInBnb",
      "outputs": [
        {
          "internalType": "uint256",
          "name": "",
          "type": "uint256"
        }
      ],
      "stateMutability": "view",
      "type": "function"
    },
    {
      "inputs": [
        {
          "internalType": "uint256",
          "name": "_investingBnbAmount",
          "type": "uint256"
        }
      ],
      "name": "invest",
      "outputs": [
        {
          "internalType": "uint256",
          "name": "investingAmount",
          "type": "uint256"
        }
      ],
      "stateMutability": "nonpayable",
      "type": "function"
    },
    {
      "inputs": [],
      "name": "investedBnb",
      "outputs": [
        {
          "internalType": "uint256",
          "name": "",
          "type": "uint256"
        }
      ],
      "stateMutability": "view",
      "type": "function"
    },
    {
      "inputs": [],
      "name": "investedTokensByBnbPrice",
      "outputs": [
        {
          "internalType": "uint256",
          "name": "priceInBnb",
          "type": "uint256"
        }
      ],
      "stateMutability": "view",
      "type": "function"
    },
    {
      "inputs": [],
      "name": "investingTokenAddress",
      "outputs": [
        {
          "internalType": "address",
          "name": "",
          "type": "address"
        }
      ],
      "stateMutability": "view",
      "type": "function"
    },
    {
      "inputs": [],
      "name": "investingTokenType",
      "outputs": [
        {
          "internalType": "enum IBaseInvestController.InvestingTokenType",
          "name": "",
          "type": "uint8"
        }
      ],
      "stateMutability": "view",
      "type": "function"
    },
    {
      "inputs": [],
      "name": "rewardsTokenAddress",
      "outputs": [
        {
          "internalType": "address",
          "name": "",
          "type": "address"
        }
      ],
      "stateMutability": "view",
      "type": "function"
    },
    {
      "inputs": [],
      "name": "stakingServiceAddress",
      "outputs": [
        {
          "internalType": "address",
          "name": "",
          "type": "address"
        }
      ],
      "stateMutability": "view",
      "type": "function"
    },
    {
      "inputs": [],
      "name": "swapFee",
      "outputs": [
        {
          "internalType": "uint256",
          "name": "",
          "type": "uint256"
        }
      ],
      "stateMutability": "view",
      "type": "function"
    },
    {
      "inputs": [
        {
          "internalType": "uint256",
          "name": "_amount",
          "type": "uint256"
        }
      ],
      "name": "withdrawalAndRefoundToMilkyWal",
      "outputs": [],
      "stateMutability": "nonpayable",
      "type": "function"
    },
    {
      "inputs": [],
      "name": "withdrawnBnb",
      "outputs": [
        {
          "internalType": "uint256",
          "name": "",
          "type": "uint256"
        }
      ],
      "stateMutability": "view",
      "type": "function"
    }
  ],
  "bytecode": "0x60c060405260c86007553480156200001657600080fd5b506040516200159138038062001591833981016040819052620000399162000101565b600080546001600160a01b038089166001600160a01b031992831617909255600180549288169290911691909117815560068054899289928992899289928992859260ff199091169083818111156200009657620000966200019b565b0217905550600280546001600160a01b03199081166001600160a01b0394851617909155600380549091169183169190911790559384166080525050501660a05250620001b1945050505050565b80516001600160a01b0381168114620000fc57600080fd5b919050565b600080600080600080600060e0888a0312156200011d57600080fd5b6200012888620000e4565b96506200013860208901620000e4565b95506200014860408901620000e4565b94506060880151600281106200015d57600080fd5b93506200016d60808901620000e4565b92506200017d60a08901620000e4565b91506200018d60c08901620000e4565b905092959891949750929550565b634e487b7160e01b600052602160045260246000fd5b60805160a05161139e620001f360003960008181610176015281816107530152818161077a0152818161083101526108b50152600061040d015261139e6000f3fe608060405234801561001057600080fd5b50600436106100ea5760003560e01c806391b6bae21161008c578063d11c583a11610066578063d11c583a146101c5578063de8e8132146101d8578063e2a9a538146101f2578063e93793f6146101fa57600080fd5b806391b6bae2146101a0578063966dae0e146101a957806399ad96a1146101bc57600080fd5b8063531efbcf116100c8578063531efbcf1461013d57806354cf2aeb1461016857806355bf8bcd1461017157806388dcef311461019857600080fd5b80631b674e8c146100ef5780632afcf48014610115578063529f1e7314610128575b600080fd5b6101026100fd3660046110e5565b61020d565b6040519081526020015b60405180910390f35b610102610123366004611102565b610248565b61013b610136366004611102565b6102c0565b005b600154610150906001600160a01b031681565b6040516001600160a01b03909116815260200161010c565b61010260075481565b6101507f000000000000000000000000000000000000000000000000000000000000000081565b610102610383565b61010260055481565b600354610150906001600160a01b031681565b61010260045481565b600054610150906001600160a01b031681565b6006546101e59060ff1681565b60405161010c9190611131565b61013b6103c4565b600254610150906001600160a01b031681565b60035460008054909182918291610231916001600160a01b03918216911686610475565b9092509050610240818361116f565b949350505050565b60006102526103c4565b600160065460ff16600181111561026b5761026b61111b565b14156102795750600061029a565b6000546001546102979184916001600160a01b0391821691166105b2565b90505b81600460008282546102ac9190611191565b909155506102bb905081610741565b919050565b60006102ca61082d565b90506102d5826108b3565b6000600160065460ff1660018111156102f0576102f061111b565b14156102fe57506000610367565b6001546002546001600160a01b0390811691161415610330576103296103248484611191565b6108eb565b9050610367565b610339826108eb565b60015460005491925061035a9185916001600160a01b0390811691166105b2565b6103649082611191565b90505b80600560008282546103799190611191565b9091555050505050565b6000600160065460ff16600181111561039e5761039e61111b565b14156103aa5750600090565b6001546103bf906001600160a01b031661020d565b905090565b60006103ce61082d565b905060006103db826108eb565b6040517fd62229ba000000000000000000000000000000000000000000000000000000008152600481018290529091507f00000000000000000000000000000000000000000000000000000000000000006001600160a01b03169063d62229ba90602401600060405180830381600087803b15801561045957600080fd5b505af115801561046d573d6000803e3d6000fd5b505050505050565b6000806000806104858686610912565b60405163e6a4390560e01b81526001600160a01b038084166004830152808316602483015292945090925060009189169063e6a4390590604401602060405180830381865afa1580156104dc573d6000803e3d6000fd5b505050506040513d601f19601f8201168201806040525081019061050091906111a9565b9050600080826001600160a01b0316630902f1ac6040518163ffffffff1660e01b8152600401606060405180830381865afa158015610543573d6000803e3d6000fd5b505050506040513d601f19601f8201168201806040525081019061056791906111e4565b5091509150846001600160a01b0316896001600160a01b03161461058c57808261058f565b81815b6dffffffffffffffffffffffffffff9182169c91169a5098505050505050505050565b6000816001600160a01b0316836001600160a01b031614806105d2575083155b156105de57508261073a565b6000806105eb8585610912565b60035460405163e6a4390560e01b81526001600160a01b0380851660048301528084166024830152939550919350600092169063e6a4390590604401602060405180830381865afa158015610644573d6000803e3d6000fd5b505050506040513d601f19601f8201168201806040525081019061066891906111a9565b905061067987828888600754610a01565b935060008061068b8789886000610a2d565b60005491955093506106aa92506001600160a01b03169050848b610a6c565b604080516000815260208101918290527f022c0d9f000000000000000000000000000000000000000000000000000000009091526001600160a01b0384169063022c0d9f906107029085908590309060248101611290565b600060405180830381600087803b15801561071c57600080fd5b505af1158015610730573d6000803e3d6000fd5b5050505050505050505b9392505050565b600154610778906001600160a01b03167f000000000000000000000000000000000000000000000000000000000000000083610b1a565b7f00000000000000000000000000000000000000000000000000000000000000006001600160a01b03166388fe2be86107b083610c68565b6040517fffffffff0000000000000000000000000000000000000000000000000000000060e084901b1681526fffffffffffffffffffffffffffffffff9091166004820152602401600060405180830381600087803b15801561081257600080fd5b505af1158015610826573d6000803e3d6000fd5b5050505050565b60007f00000000000000000000000000000000000000000000000000000000000000006001600160a01b031663b88a802f6040518163ffffffff1660e01b81526004016020604051808303816000875af115801561088f573d6000803e3d6000fd5b505050506040513d601f19601f820116820180604052508101906103bf91906112c8565b7f00000000000000000000000000000000000000000000000000000000000000006001600160a01b031663458a1d6e6107b083610c68565b60025460008054909161090c9184916001600160a01b0390811691166105b2565b92915050565b600080826001600160a01b0316846001600160a01b0316141561097c5760405162461bcd60e51b815260206004820152601d60248201527f537761704d6174683a204944454e544943414c5f41444452455353455300000060448201526064015b60405180910390fd5b826001600160a01b0316846001600160a01b03161061099c57828461099f565b83835b90925090506001600160a01b0382166109fa5760405162461bcd60e51b815260206004820152601660248201527f537761704d6174683a205a45524f5f41444452455353000000000000000000006044820152606401610973565b9250929050565b6000806000610a11878787610cf4565b91509150610a2188838387610db4565b98975050505050505050565b600080600080866001600160a01b0316886001600160a01b031610610a555786888688610a5a565b878787875b929b919a509850909650945050505050565b6040516001600160a01b038316602482015260448101829052610b159084907fa9059cbb00000000000000000000000000000000000000000000000000000000906064015b60408051601f198184030181529190526020810180517bffffffffffffffffffffffffffffffffffffffffffffffffffffffff167fffffffff0000000000000000000000000000000000000000000000000000000090931692909217909152610ed4565b505050565b801580610bad57506040517fdd62ed3e0000000000000000000000000000000000000000000000000000000081523060048201526001600160a01b03838116602483015284169063dd62ed3e90604401602060405180830381865afa158015610b87573d6000803e3d6000fd5b505050506040513d601f19601f82011682018060405250810190610bab91906112c8565b155b610c1f5760405162461bcd60e51b815260206004820152603660248201527f5361666545524332303a20617070726f76652066726f6d206e6f6e2d7a65726f60448201527f20746f206e6f6e2d7a65726f20616c6c6f77616e6365000000000000000000006064820152608401610973565b6040516001600160a01b038316602482015260448101829052610b159084907f095ea7b30000000000000000000000000000000000000000000000000000000090606401610ab1565b60006fffffffffffffffffffffffffffffffff821115610cf05760405162461bcd60e51b815260206004820152602760248201527f53616665436173743a2076616c756520646f65736e27742066697420696e203160448201527f32382062697473000000000000000000000000000000000000000000000000006064820152608401610973565b5090565b6000806000610d038585610912565b509050600080876001600160a01b0316630902f1ac6040518163ffffffff1660e01b8152600401606060405180830381865afa158015610d47573d6000803e3d6000fd5b505050506040513d601f19601f82011682018060405250810190610d6b91906111e4565b5091509150826001600160a01b0316876001600160a01b031614610d90578082610d93565b81815b6dffffffffffffffffffffffffffff9182169a911698509650505050505050565b6000808511610e2b5760405162461bcd60e51b815260206004820152602360248201527f537761704d6174683a20494e53554646494349454e545f494e5055545f414d4f60448201527f554e5400000000000000000000000000000000000000000000000000000000006064820152608401610973565b600084118015610e3b5750600083115b610e875760405162461bcd60e51b815260206004820181905260248201527f537761704d6174683a20494e53554646494349454e545f4c49515549444954596044820152606401610973565b6000610e95836127106112e1565b610e9f90876112f8565b90506000610ead85836112f8565b9050600082610ebe612710896112f8565b610ec89190611191565b9050610a21818361116f565b6000610f29826040518060400160405280602081526020017f5361666545524332303a206c6f772d6c6576656c2063616c6c206661696c6564815250856001600160a01b0316610fb99092919063ffffffff16565b805190915015610b155780806020019051810190610f479190611317565b610b155760405162461bcd60e51b815260206004820152602a60248201527f5361666545524332303a204552433230206f7065726174696f6e20646964206e60448201527f6f742073756363656564000000000000000000000000000000000000000000006064820152608401610973565b60606102408484600085856001600160a01b0385163b61101b5760405162461bcd60e51b815260206004820152601d60248201527f416464726573733a2063616c6c20746f206e6f6e2d636f6e74726163740000006044820152606401610973565b600080866001600160a01b031685876040516110379190611339565b60006040518083038185875af1925050503d8060008114611074576040519150601f19603f3d011682016040523d82523d6000602084013e611079565b606091505b5091509150611089828286611094565b979650505050505050565b606083156110a357508161073a565b8251156110b35782518084602001fd5b8160405162461bcd60e51b81526004016109739190611355565b6001600160a01b03811681146110e257600080fd5b50565b6000602082840312156110f757600080fd5b813561073a816110cd565b60006020828403121561111457600080fd5b5035919050565b634e487b7160e01b600052602160045260246000fd5b602081016002831061115357634e487b7160e01b600052602160045260246000fd5b91905290565b634e487b7160e01b600052601160045260246000fd5b60008261118c57634e487b7160e01b600052601260045260246000fd5b500490565b600082198211156111a4576111a4611159565b500190565b6000602082840312156111bb57600080fd5b815161073a816110cd565b80516dffffffffffffffffffffffffffff811681146102bb57600080fd5b6000806000606084860312156111f957600080fd5b611202846111c6565b9250611210602085016111c6565b9150604084015163ffffffff8116811461122957600080fd5b809150509250925092565b60005b8381101561124f578181015183820152602001611237565b8381111561125e576000848401525b50505050565b6000815180845261127c816020860160208601611234565b601f01601f19169290920160200192915050565b8481528360208201526001600160a01b03831660408201526080606082015260006112be6080830184611264565b9695505050505050565b6000602082840312156112da57600080fd5b5051919050565b6000828210156112f3576112f3611159565b500390565b600081600019048311821515161561131257611312611159565b500290565b60006020828403121561132957600080fd5b8151801515811461073a57600080fd5b6000825161134b818460208701611234565b9190910192915050565b60208152600061073a602083018461126456fea264697066735822122042e063be61864480e3fc25c083cc3a4b6ba81389f0fbd584240dd7f9baecb6e764736f6c634300080c0033",
  "immutableReferences": {
    "6610": [
      {
        "length": 32,
        "start": 1037
      }
    ],
    "7306": [
      {
        "length": 32,
        "start": 374
      },
      {
        "length": 32,
        "start": 1875
      },
      {
        "length": 32,
        "start": 1914
      },
      {
        "length": 32,
        "start": 2097
      },
      {
        "length": 32,
        "start": 2229
      }
    ]
  },
  "source": "// SPDX-License-Identifier: MIT\npragma solidity 0.8.12;\n\nimport \"../../BaseInvestController.sol\";\nimport \"@openzeppelin/contracts/token/ERC20/IERC20.sol\";\nimport \"@openzeppelin/contracts/token/ERC20/utils/SafeERC20.sol\";\nimport \"@openzeppelin/contracts/utils/math/SafeCast.sol\";\nimport \"./interface/IStakingService.sol\";\n\ncontract NmxInvestController is BaseInvestController {\n  using SafeERC20 for IERC20;\n  using SafeCast for uint256;\n\n  address public immutable stakingServiceAddress;\n\n  constructor(\n    address _milkyWayAddress,\n    address _bnbAddress,\n    address _investingTokenAddress,\n    InvestingTokenType _investingTokenType,\n    address _rewardsTokenAddress,\n    address _factoryAddress,\n    address _stakingServiceAddress\n  ) \n    BaseInvestController(\n      _milkyWayAddress,\n      _bnbAddress,\n      _investingTokenAddress,\n      _investingTokenType,\n      _rewardsTokenAddress,\n      _factoryAddress\n    )\n  {\n    stakingServiceAddress = _stakingServiceAddress;\n  }\n\n  function stake(uint256 _investingAmount) internal override {\n    IERC20(investingTokenAddress).safeApprove(stakingServiceAddress, _investingAmount);\n\n    IStakingService(stakingServiceAddress).stake(_investingAmount.toUint128());\n  }\n\n  function claim() internal override returns(uint256 amount) {\n    amount = IStakingService(stakingServiceAddress).claimReward();\n  }\n\n  function withdrawal(uint256 _amount) internal override {\n    IStakingService(stakingServiceAddress).unstake(_amount.toUint128());\n  }\n}\n",
  "sourcePath": "/Users/vyacheslav/Documents/solar.finance/contracts/contracts/MilkyWay/InvestController/NmxInvestController/NmxInvestController.sol",
  "compiler": {
    "name": "solc",
    "version": "0.8.12+commit.f00d7308.Emscripten.clang"
  },
  "schemaVersion": "3.4.5",
  "updatedAt": "2022-05-24T20:38:19.301Z",
  "devdoc": {
    "kind": "dev",
    "methods": {},
    "version": 1
  },
  "userdoc": {
    "kind": "user",
    "methods": {},
    "version": 1
  }
}