{
  "contractName": "PresaleService",
  "abi": [
    {
      "inputs": [
        {
          "internalType": "address",
          "name": "_referralContractAddress",
          "type": "address"
        }
      ],
      "stateMutability": "nonpayable",
      "type": "constructor"
    },
    {
      "anonymous": false,
      "inputs": [
        {
          "indexed": false,
          "internalType": "uint256",
          "name": "tokenAmount",
          "type": "uint256"
        },
        {
          "indexed": false,
          "internalType": "uint256",
          "name": "ethAmount",
          "type": "uint256"
        }
      ],
      "name": "AddLiquidity",
      "type": "event"
    },
    {
      "anonymous": false,
      "inputs": [
        {
          "indexed": true,
          "internalType": "address",
          "name": "owner",
          "type": "address"
        },
        {
          "indexed": true,
          "internalType": "address",
          "name": "spender",
          "type": "address"
        },
        {
          "indexed": false,
          "internalType": "uint256",
          "name": "value",
          "type": "uint256"
        }
      ],
      "name": "Approval",
      "type": "event"
    },
    {
      "anonymous": false,
      "inputs": [
        {
          "indexed": false,
          "internalType": "uint256",
          "name": "amount",
          "type": "uint256"
        },
        {
          "indexed": true,
          "internalType": "address",
          "name": "owner",
          "type": "address"
        }
      ],
      "name": "Burn",
      "type": "event"
    },
    {
      "anonymous": false,
      "inputs": [
        {
          "indexed": false,
          "internalType": "uint256",
          "name": "amountIn",
          "type": "uint256"
        },
        {
          "indexed": false,
          "internalType": "uint256",
          "name": "amountOut",
          "type": "uint256"
        },
        {
          "indexed": false,
          "internalType": "uint8",
          "name": "phase",
          "type": "uint8"
        },
        {
          "indexed": true,
          "internalType": "address",
          "name": "owner",
          "type": "address"
        }
      ],
      "name": "Buy",
      "type": "event"
    },
    {
      "anonymous": false,
      "inputs": [
        {
          "indexed": false,
          "internalType": "address",
          "name": "owner",
          "type": "address"
        }
      ],
      "name": "Join",
      "type": "event"
    },
    {
      "anonymous": false,
      "inputs": [
        {
          "indexed": true,
          "internalType": "address",
          "name": "previousOwner",
          "type": "address"
        },
        {
          "indexed": true,
          "internalType": "address",
          "name": "newOwner",
          "type": "address"
        }
      ],
      "name": "OwnershipTransferred",
      "type": "event"
    },
    {
      "anonymous": false,
      "inputs": [
        {
          "indexed": false,
          "internalType": "address",
          "name": "account",
          "type": "address"
        }
      ],
      "name": "Paused",
      "type": "event"
    },
    {
      "anonymous": false,
      "inputs": [
        {
          "indexed": true,
          "internalType": "bytes32",
          "name": "role",
          "type": "bytes32"
        },
        {
          "indexed": true,
          "internalType": "bytes32",
          "name": "previousAdminRole",
          "type": "bytes32"
        },
        {
          "indexed": true,
          "internalType": "bytes32",
          "name": "newAdminRole",
          "type": "bytes32"
        }
      ],
      "name": "RoleAdminChanged",
      "type": "event"
    },
    {
      "anonymous": false,
      "inputs": [
        {
          "indexed": true,
          "internalType": "bytes32",
          "name": "role",
          "type": "bytes32"
        },
        {
          "indexed": true,
          "internalType": "address",
          "name": "account",
          "type": "address"
        },
        {
          "indexed": true,
          "internalType": "address",
          "name": "sender",
          "type": "address"
        }
      ],
      "name": "RoleGranted",
      "type": "event"
    },
    {
      "anonymous": false,
      "inputs": [
        {
          "indexed": true,
          "internalType": "bytes32",
          "name": "role",
          "type": "bytes32"
        },
        {
          "indexed": true,
          "internalType": "address",
          "name": "account",
          "type": "address"
        },
        {
          "indexed": true,
          "internalType": "address",
          "name": "sender",
          "type": "address"
        }
      ],
      "name": "RoleRevoked",
      "type": "event"
    },
    {
      "anonymous": false,
      "inputs": [
        {
          "indexed": true,
          "internalType": "address",
          "name": "owner",
          "type": "address"
        },
        {
          "indexed": false,
          "internalType": "uint256",
          "name": "discount",
          "type": "uint256"
        }
      ],
      "name": "SetDiscount",
      "type": "event"
    },
    {
      "anonymous": false,
      "inputs": [
        {
          "indexed": false,
          "internalType": "uint256[4]",
          "name": "phasesTime",
          "type": "uint256[4]"
        },
        {
          "indexed": false,
          "internalType": "uint256[3]",
          "name": "phasesPrices",
          "type": "uint256[3]"
        },
        {
          "indexed": false,
          "internalType": "uint256[2]",
          "name": "phasesMaxAmount",
          "type": "uint256[2]"
        },
        {
          "indexed": false,
          "internalType": "uint256",
          "name": "launchingPrice",
          "type": "uint256"
        }
      ],
      "name": "SetPhases",
      "type": "event"
    },
    {
      "anonymous": false,
      "inputs": [
        {
          "indexed": true,
          "internalType": "address",
          "name": "from",
          "type": "address"
        },
        {
          "indexed": true,
          "internalType": "address",
          "name": "to",
          "type": "address"
        },
        {
          "indexed": false,
          "internalType": "uint256",
          "name": "value",
          "type": "uint256"
        }
      ],
      "name": "Transfer",
      "type": "event"
    },
    {
      "anonymous": false,
      "inputs": [
        {
          "indexed": false,
          "internalType": "address",
          "name": "account",
          "type": "address"
        }
      ],
      "name": "Unpaused",
      "type": "event"
    },
    {
      "anonymous": false,
      "inputs": [
        {
          "indexed": false,
          "internalType": "address",
          "name": "tokenAddress",
          "type": "address"
        }
      ],
      "name": "UpdateRouterAddress",
      "type": "event"
    },
    {
      "anonymous": false,
      "inputs": [
        {
          "indexed": false,
          "internalType": "address",
          "name": "tokenAddress",
          "type": "address"
        }
      ],
      "name": "UpdateTokenAddress",
      "type": "event"
    },
    {
      "inputs": [],
      "name": "DEFAULT_ADMIN_ROLE",
      "outputs": [
        {
          "internalType": "bytes32",
          "name": "",
          "type": "bytes32"
        }
      ],
      "stateMutability": "view",
      "type": "function",
      "constant": true
    },
    {
      "inputs": [],
      "name": "MINTER_ROLE",
      "outputs": [
        {
          "internalType": "bytes32",
          "name": "",
          "type": "bytes32"
        }
      ],
      "stateMutability": "view",
      "type": "function",
      "constant": true
    },
    {
      "inputs": [],
      "name": "PAUSER_ROLE",
      "outputs": [
        {
          "internalType": "bytes32",
          "name": "",
          "type": "bytes32"
        }
      ],
      "stateMutability": "view",
      "type": "function",
      "constant": true
    },
    {
      "inputs": [
        {
          "internalType": "address",
          "name": "owner",
          "type": "address"
        },
        {
          "internalType": "address",
          "name": "spender",
          "type": "address"
        }
      ],
      "name": "allowance",
      "outputs": [
        {
          "internalType": "uint256",
          "name": "",
          "type": "uint256"
        }
      ],
      "stateMutability": "view",
      "type": "function",
      "constant": true
    },
    {
      "inputs": [
        {
          "internalType": "address",
          "name": "spender",
          "type": "address"
        },
        {
          "internalType": "uint256",
          "name": "amount",
          "type": "uint256"
        }
      ],
      "name": "approve",
      "outputs": [
        {
          "internalType": "bool",
          "name": "",
          "type": "bool"
        }
      ],
      "stateMutability": "nonpayable",
      "type": "function"
    },
    {
      "inputs": [
        {
          "internalType": "address",
          "name": "account",
          "type": "address"
        }
      ],
      "name": "balanceOf",
      "outputs": [
        {
          "internalType": "uint256",
          "name": "",
          "type": "uint256"
        }
      ],
      "stateMutability": "view",
      "type": "function",
      "constant": true
    },
    {
      "inputs": [
        {
          "internalType": "address",
          "name": "account",
          "type": "address"
        },
        {
          "internalType": "uint256",
          "name": "amount",
          "type": "uint256"
        }
      ],
      "name": "burnFrom",
      "outputs": [],
      "stateMutability": "nonpayable",
      "type": "function"
    },
    {
      "inputs": [],
      "name": "decimals",
      "outputs": [
        {
          "internalType": "uint8",
          "name": "",
          "type": "uint8"
        }
      ],
      "stateMutability": "view",
      "type": "function",
      "constant": true
    },
    {
      "inputs": [
        {
          "internalType": "address",
          "name": "spender",
          "type": "address"
        },
        {
          "internalType": "uint256",
          "name": "subtractedValue",
          "type": "uint256"
        }
      ],
      "name": "decreaseAllowance",
      "outputs": [
        {
          "internalType": "bool",
          "name": "",
          "type": "bool"
        }
      ],
      "stateMutability": "nonpayable",
      "type": "function"
    },
    {
      "inputs": [
        {
          "internalType": "address",
          "name": "",
          "type": "address"
        }
      ],
      "name": "discount",
      "outputs": [
        {
          "internalType": "uint256",
          "name": "",
          "type": "uint256"
        }
      ],
      "stateMutability": "view",
      "type": "function",
      "constant": true
    },
    {
      "inputs": [],
      "name": "discountDivider",
      "outputs": [
        {
          "internalType": "uint256",
          "name": "",
          "type": "uint256"
        }
      ],
      "stateMutability": "view",
      "type": "function",
      "constant": true
    },
    {
      "inputs": [
        {
          "internalType": "bytes32",
          "name": "role",
          "type": "bytes32"
        }
      ],
      "name": "getRoleAdmin",
      "outputs": [
        {
          "internalType": "bytes32",
          "name": "",
          "type": "bytes32"
        }
      ],
      "stateMutability": "view",
      "type": "function",
      "constant": true
    },
    {
      "inputs": [
        {
          "internalType": "bytes32",
          "name": "role",
          "type": "bytes32"
        },
        {
          "internalType": "uint256",
          "name": "index",
          "type": "uint256"
        }
      ],
      "name": "getRoleMember",
      "outputs": [
        {
          "internalType": "address",
          "name": "",
          "type": "address"
        }
      ],
      "stateMutability": "view",
      "type": "function",
      "constant": true
    },
    {
      "inputs": [
        {
          "internalType": "bytes32",
          "name": "role",
          "type": "bytes32"
        }
      ],
      "name": "getRoleMemberCount",
      "outputs": [
        {
          "internalType": "uint256",
          "name": "",
          "type": "uint256"
        }
      ],
      "stateMutability": "view",
      "type": "function",
      "constant": true
    },
    {
      "inputs": [
        {
          "internalType": "bytes32",
          "name": "role",
          "type": "bytes32"
        },
        {
          "internalType": "address",
          "name": "account",
          "type": "address"
        }
      ],
      "name": "grantRole",
      "outputs": [],
      "stateMutability": "nonpayable",
      "type": "function"
    },
    {
      "inputs": [
        {
          "internalType": "bytes32",
          "name": "role",
          "type": "bytes32"
        },
        {
          "internalType": "address",
          "name": "account",
          "type": "address"
        }
      ],
      "name": "hasRole",
      "outputs": [
        {
          "internalType": "bool",
          "name": "",
          "type": "bool"
        }
      ],
      "stateMutability": "view",
      "type": "function",
      "constant": true
    },
    {
      "inputs": [
        {
          "internalType": "address",
          "name": "spender",
          "type": "address"
        },
        {
          "internalType": "uint256",
          "name": "addedValue",
          "type": "uint256"
        }
      ],
      "name": "increaseAllowance",
      "outputs": [
        {
          "internalType": "bool",
          "name": "",
          "type": "bool"
        }
      ],
      "stateMutability": "nonpayable",
      "type": "function"
    },
    {
      "inputs": [],
      "name": "isLaunched",
      "outputs": [
        {
          "internalType": "bool",
          "name": "",
          "type": "bool"
        }
      ],
      "stateMutability": "view",
      "type": "function",
      "constant": true
    },
    {
      "inputs": [
        {
          "internalType": "address",
          "name": "",
          "type": "address"
        }
      ],
      "name": "joined",
      "outputs": [
        {
          "internalType": "bool",
          "name": "",
          "type": "bool"
        }
      ],
      "stateMutability": "view",
      "type": "function",
      "constant": true
    },
    {
      "inputs": [],
      "name": "launchingTokenPrice",
      "outputs": [
        {
          "internalType": "uint256",
          "name": "",
          "type": "uint256"
        }
      ],
      "stateMutability": "view",
      "type": "function",
      "constant": true
    },
    {
      "inputs": [
        {
          "internalType": "address",
          "name": "to",
          "type": "address"
        },
        {
          "internalType": "uint256",
          "name": "amount",
          "type": "uint256"
        }
      ],
      "name": "mint",
      "outputs": [],
      "stateMutability": "nonpayable",
      "type": "function"
    },
    {
      "inputs": [],
      "name": "name",
      "outputs": [
        {
          "internalType": "string",
          "name": "",
          "type": "string"
        }
      ],
      "stateMutability": "view",
      "type": "function",
      "constant": true
    },
    {
      "inputs": [],
      "name": "owner",
      "outputs": [
        {
          "internalType": "address",
          "name": "",
          "type": "address"
        }
      ],
      "stateMutability": "view",
      "type": "function",
      "constant": true
    },
    {
      "inputs": [],
      "name": "pause",
      "outputs": [],
      "stateMutability": "nonpayable",
      "type": "function"
    },
    {
      "inputs": [],
      "name": "paused",
      "outputs": [
        {
          "internalType": "bool",
          "name": "",
          "type": "bool"
        }
      ],
      "stateMutability": "view",
      "type": "function",
      "constant": true
    },
    {
      "inputs": [
        {
          "internalType": "uint256",
          "name": "",
          "type": "uint256"
        }
      ],
      "name": "phasesTime",
      "outputs": [
        {
          "internalType": "uint256",
          "name": "",
          "type": "uint256"
        }
      ],
      "stateMutability": "view",
      "type": "function",
      "constant": true
    },
    {
      "inputs": [],
      "name": "referralActionBuy",
      "outputs": [
        {
          "internalType": "uint8",
          "name": "",
          "type": "uint8"
        }
      ],
      "stateMutability": "view",
      "type": "function",
      "constant": true
    },
    {
      "inputs": [],
      "name": "referralContractAddress",
      "outputs": [
        {
          "internalType": "address",
          "name": "",
          "type": "address"
        }
      ],
      "stateMutability": "view",
      "type": "function",
      "constant": true
    },
    {
      "inputs": [],
      "name": "referrerRewardDivider",
      "outputs": [
        {
          "internalType": "uint256",
          "name": "",
          "type": "uint256"
        }
      ],
      "stateMutability": "view",
      "type": "function",
      "constant": true
    },
    {
      "inputs": [],
      "name": "referrerRewardPercent",
      "outputs": [
        {
          "internalType": "uint256",
          "name": "",
          "type": "uint256"
        }
      ],
      "stateMutability": "view",
      "type": "function",
      "constant": true
    },
    {
      "inputs": [],
      "name": "renounceOwnership",
      "outputs": [],
      "stateMutability": "nonpayable",
      "type": "function"
    },
    {
      "inputs": [
        {
          "internalType": "bytes32",
          "name": "role",
          "type": "bytes32"
        },
        {
          "internalType": "address",
          "name": "account",
          "type": "address"
        }
      ],
      "name": "renounceRole",
      "outputs": [],
      "stateMutability": "nonpayable",
      "type": "function"
    },
    {
      "inputs": [
        {
          "internalType": "bytes32",
          "name": "role",
          "type": "bytes32"
        },
        {
          "internalType": "address",
          "name": "account",
          "type": "address"
        }
      ],
      "name": "revokeRole",
      "outputs": [],
      "stateMutability": "nonpayable",
      "type": "function"
    },
    {
      "inputs": [],
      "name": "routerAddress",
      "outputs": [
        {
          "internalType": "address",
          "name": "",
          "type": "address"
        }
      ],
      "stateMutability": "view",
      "type": "function",
      "constant": true
    },
    {
      "inputs": [
        {
          "internalType": "bytes4",
          "name": "interfaceId",
          "type": "bytes4"
        }
      ],
      "name": "supportsInterface",
      "outputs": [
        {
          "internalType": "bool",
          "name": "",
          "type": "bool"
        }
      ],
      "stateMutability": "view",
      "type": "function",
      "constant": true
    },
    {
      "inputs": [],
      "name": "symbol",
      "outputs": [
        {
          "internalType": "string",
          "name": "",
          "type": "string"
        }
      ],
      "stateMutability": "view",
      "type": "function",
      "constant": true
    },
    {
      "inputs": [],
      "name": "tokenAddress",
      "outputs": [
        {
          "internalType": "address",
          "name": "",
          "type": "address"
        }
      ],
      "stateMutability": "view",
      "type": "function",
      "constant": true
    },
    {
      "inputs": [],
      "name": "totalSupply",
      "outputs": [
        {
          "internalType": "uint256",
          "name": "",
          "type": "uint256"
        }
      ],
      "stateMutability": "view",
      "type": "function",
      "constant": true
    },
    {
      "inputs": [
        {
          "internalType": "address",
          "name": "newOwner",
          "type": "address"
        }
      ],
      "name": "transferOwnership",
      "outputs": [],
      "stateMutability": "nonpayable",
      "type": "function"
    },
    {
      "inputs": [],
      "name": "unpause",
      "outputs": [],
      "stateMutability": "nonpayable",
      "type": "function"
    },
    {
      "inputs": [
        {
          "internalType": "address",
          "name": "owner",
          "type": "address"
        },
        {
          "internalType": "uint256",
          "name": "amountIn",
          "type": "uint256"
        },
        {
          "internalType": "uint8",
          "name": "phase",
          "type": "uint8"
        }
      ],
      "name": "getPhaseAmountOut",
      "outputs": [
        {
          "internalType": "uint256",
          "name": "",
          "type": "uint256"
        }
      ],
      "stateMutability": "view",
      "type": "function",
      "constant": true
    },
    {
      "inputs": [],
      "name": "getPhase",
      "outputs": [
        {
          "internalType": "uint8",
          "name": "phase",
          "type": "uint8"
        }
      ],
      "stateMutability": "view",
      "type": "function",
      "constant": true
    },
    {
      "inputs": [],
      "name": "getPrices",
      "outputs": [
        {
          "internalType": "uint256[3]",
          "name": "prises",
          "type": "uint256[3]"
        }
      ],
      "stateMutability": "view",
      "type": "function",
      "constant": true
    },
    {
      "inputs": [],
      "name": "getPhasesMaxAmount",
      "outputs": [
        {
          "internalType": "uint256[2]",
          "name": "phases",
          "type": "uint256[2]"
        }
      ],
      "stateMutability": "view",
      "type": "function",
      "constant": true
    },
    {
      "inputs": [],
      "name": "getPhasesAmount",
      "outputs": [
        {
          "internalType": "uint256[3]",
          "name": "phases",
          "type": "uint256[3]"
        }
      ],
      "stateMutability": "view",
      "type": "function",
      "constant": true
    },
    {
      "inputs": [],
      "name": "getPhasesTime",
      "outputs": [
        {
          "internalType": "uint256[4]",
          "name": "phases",
          "type": "uint256[4]"
        }
      ],
      "stateMutability": "view",
      "type": "function",
      "constant": true
    },
    {
      "inputs": [],
      "name": "getCurrentPhaseEndTime",
      "outputs": [
        {
          "internalType": "uint32",
          "name": "endTime",
          "type": "uint32"
        }
      ],
      "stateMutability": "view",
      "type": "function",
      "constant": true
    },
    {
      "inputs": [],
      "name": "getCurrentPhaseCountdown",
      "outputs": [
        {
          "internalType": "uint32",
          "name": "countdown",
          "type": "uint32"
        }
      ],
      "stateMutability": "view",
      "type": "function",
      "constant": true
    },
    {
      "inputs": [],
      "name": "getMyDiscount",
      "outputs": [
        {
          "internalType": "uint256",
          "name": "myDiscount",
          "type": "uint256"
        }
      ],
      "stateMutability": "view",
      "type": "function",
      "constant": true
    },
    {
      "inputs": [
        {
          "internalType": "address",
          "name": "_referrer",
          "type": "address"
        }
      ],
      "name": "join",
      "outputs": [],
      "stateMutability": "nonpayable",
      "type": "function"
    },
    {
      "inputs": [
        {
          "internalType": "uint256",
          "name": "_amountOut",
          "type": "uint256"
        },
        {
          "internalType": "address",
          "name": "_referrer",
          "type": "address"
        }
      ],
      "name": "buy",
      "outputs": [],
      "stateMutability": "payable",
      "type": "function",
      "payable": true
    },
    {
      "inputs": [
        {
          "internalType": "address",
          "name": "to",
          "type": "address"
        },
        {
          "internalType": "uint256",
          "name": "amount",
          "type": "uint256"
        }
      ],
      "name": "transfer",
      "outputs": [
        {
          "internalType": "bool",
          "name": "",
          "type": "bool"
        }
      ],
      "stateMutability": "nonpayable",
      "type": "function"
    },
    {
      "inputs": [
        {
          "internalType": "address",
          "name": "from",
          "type": "address"
        },
        {
          "internalType": "address",
          "name": "to",
          "type": "address"
        },
        {
          "internalType": "uint256",
          "name": "amount",
          "type": "uint256"
        }
      ],
      "name": "transferFrom",
      "outputs": [
        {
          "internalType": "bool",
          "name": "",
          "type": "bool"
        }
      ],
      "stateMutability": "nonpayable",
      "type": "function"
    },
    {
      "inputs": [
        {
          "internalType": "uint256",
          "name": "_amount",
          "type": "uint256"
        }
      ],
      "name": "burn",
      "outputs": [],
      "stateMutability": "nonpayable",
      "type": "function"
    },
    {
      "inputs": [],
      "name": "burnAll",
      "outputs": [],
      "stateMutability": "nonpayable",
      "type": "function"
    },
    {
      "inputs": [],
      "name": "addLiquidity",
      "outputs": [],
      "stateMutability": "nonpayable",
      "type": "function"
    },
    {
      "inputs": [
        {
          "internalType": "address",
          "name": "_owner",
          "type": "address"
        },
        {
          "internalType": "uint256",
          "name": "_discount",
          "type": "uint256"
        }
      ],
      "name": "setDiscount",
      "outputs": [],
      "stateMutability": "nonpayable",
      "type": "function"
    },
    {
      "inputs": [
        {
          "internalType": "uint256[4]",
          "name": "_phasesTime",
          "type": "uint256[4]"
        },
        {
          "internalType": "uint256[3]",
          "name": "_phasesPrices",
          "type": "uint256[3]"
        },
        {
          "internalType": "uint256[2]",
          "name": "_phasesMaxAmount",
          "type": "uint256[2]"
        },
        {
          "internalType": "uint256",
          "name": "_launchingPrice",
          "type": "uint256"
        }
      ],
      "name": "setPhases",
      "outputs": [],
      "stateMutability": "nonpayable",
      "type": "function"
    },
    {
      "inputs": [
        {
          "internalType": "address",
          "name": "_tokenAddress",
          "type": "address"
        }
      ],
      "name": "setTokenAddress",
      "outputs": [],
      "stateMutability": "nonpayable",
      "type": "function"
    },
    {
      "inputs": [
        {
          "internalType": "address",
          "name": "_routerAddress",
          "type": "address"
        }
      ],
      "name": "setRouterAddress",
      "outputs": [],
      "stateMutability": "nonpayable",
      "type": "function"
    }
  ],
  "bytecode": "0x60a06040526001601a553480156200001657600080fd5b50604051620040a4380380620040a483398101604081905262000039916200038b565b604080518082018252600a80825269283932b9b0b632a9a62960b11b602080840182815285518087019096529285528401528151919291839183916200008291600591620002e5565b50805162000098906006906020840190620002e5565b50506007805460ff1916905550620000b26000336200012e565b620000de7f9f2df0fed2c77648de5860a4cc508cd0818c85b8b8a1ab4ceeef8d981c8956a6336200012e565b6200010a7f65d7a28e3265b37a6474929f336521b332c1681b933f6cb9f3376673440d862a336200012e565b505060016008556200011c336200013e565b6001600160a01b0316608052620003fa565b6200013a828262000190565b5050565b600980546001600160a01b038381166001600160a01b0319831681179093556040519116919082907f8be0079c531659141344cd1fd0a4f28419497f9722a3daafe3b4186f6b6457e090600090a35050565b620001a78282620001d360201b620023741760201c565b6000828152600160209081526040909120620001ce9183906200241262000273821b17901c565b505050565b6000828152602081815260408083206001600160a01b038516845290915290205460ff166200013a576000828152602081815260408083206001600160a01b03851684529091529020805460ff191660011790556200022f3390565b6001600160a01b0316816001600160a01b0316837f2f8788117e7eff1d82e926ec794901d17c78024a50270940304540a733656f0d60405160405180910390a45050565b60006200028a836001600160a01b03841662000293565b90505b92915050565b6000818152600183016020526040812054620002dc575081546001818101845560008481526020808220909301849055845484825282860190935260409020919091556200028d565b5060006200028d565b828054620002f390620003bd565b90600052602060002090601f01602090048101928262000317576000855562000362565b82601f106200033257805160ff191683800117855562000362565b8280016001018555821562000362579182015b828111156200036257825182559160200191906001019062000345565b506200037092915062000374565b5090565b5b8082111562000370576000815560010162000375565b6000602082840312156200039e57600080fd5b81516001600160a01b0381168114620003b657600080fd5b9392505050565b600181811c90821680620003d257607f821691505b60208210811415620003f457634e487b7160e01b600052602260045260246000fd5b50919050565b608051613c72620004326000396000818161055a0152818161102f01528181611aa301528181611b190152611bed0152613c726000f3fe6080604052600436106103975760003560e01c806375d6c7e5116101dc578063bd9a548b11610102578063de16b1f4116100a0578063eced02801161006f578063eced028014610ad3578063edaf38bd14610ae8578063f2fde38b14610b0a578063f887d01914610b2a57600080fd5b8063de16b1f414610a53578063e63ab1e914610a68578063e8078d9414610a9c578063e919ca1014610ab157600080fd5b8063d1ea9c79116100dc578063d1ea9c79146109a4578063d5391393146109b9578063d547741f146109ed578063dd62ed3e14610a0d57600080fd5b8063bd9a548b14610935578063ca15c87314610957578063ce0689801461097757600080fd5b806391d148541161017a578063a217fddf11610149578063a217fddf146108d0578063a457c2d7146108e5578063a9059cbb14610905578063b6569bf71461092057600080fd5b806391d148541461084257806395d89b41146108865780639975038c1461089b5780639d76ea58146108b057600080fd5b80637deb6025116101b65780637deb6025146107dc5780638456cb59146107ef5780638da5cb5b146108045780639010d07c1461082257600080fd5b806375d6c7e5146103f357806379cc67901461079a5780637d2bf695146107ba57600080fd5b8063313ce567116102c157806342966c681161025f5780636773f7b91161022e5780636773f7b91461071a578063702ab2301461072f57806370a082311461074f578063715018a61461078557600080fd5b806342966c68146106ac5780635269aa55146106cc5780635c975abb146106ec5780635d22f9721461070457600080fd5b8063395093511161029b57806339509351146106375780633f4ba83a1461065757806340c10f191461066c57806341cb87fc1461068c57600080fd5b8063313ce567146105d55780633268cc56146105f757806336568abe1461061757600080fd5b80631e92ffe51161033957806328ffe6c81161030857806328ffe6c8146105285780632d79a552146105485780632f2ff15d14610594578063307aebc9146105b457600080fd5b80631e92ffe51461049657806323b872dd146104b8578063248a9ca3146104d857806326a4e8d21461050857600080fd5b8063095ea7b311610375578063095ea7b314610417578063141c6e2e1461043757806317da36b21461045757806318160ddd1461048157600080fd5b806301ffc9a71461039c57806306fdde03146103d1578063081b52ae146103f3575b600080fd5b3480156103a857600080fd5b506103bc6103b73660046135c1565b610b5a565b60405190151581526020015b60405180910390f35b3480156103dd57600080fd5b506103e6610b9e565b6040516103c89190613617565b3480156103ff57600080fd5b5061040961271081565b6040519081526020016103c8565b34801561042357600080fd5b506103bc610432366004613666565b610c30565b34801561044357600080fd5b50610409610452366004613690565b610c48565b34801561046357600080fd5b5061046c610cf1565b60405163ffffffff90911681526020016103c8565b34801561048d57600080fd5b50600454610409565b3480156104a257600080fd5b506104b66104b1366004613666565b610d43565b005b3480156104c457600080fd5b506103bc6104d33660046136d6565b610e4c565b3480156104e457600080fd5b506104096104f3366004613712565b60009081526020819052604090206001015490565b34801561051457600080fd5b506104b661052336600461372b565b610e71565b34801561053457600080fd5b506104b661054336600461372b565b610f2d565b34801561055457600080fd5b5061057c7f000000000000000000000000000000000000000000000000000000000000000081565b6040516001600160a01b0390911681526020016103c8565b3480156105a057600080fd5b506104b66105af366004613746565b6110ee565b3480156105c057600080fd5b50600d546103bc90600160a01b900460ff1681565b3480156105e157600080fd5b5060125b60405160ff90911681526020016103c8565b34801561060357600080fd5b50600d5461057c906001600160a01b031681565b34801561062357600080fd5b506104b6610632366004613746565b611119565b34801561064357600080fd5b506103bc610652366004613666565b6111a5565b34801561066357600080fd5b506104b66111e4565b34801561067857600080fd5b506104b6610687366004613666565b61128a565b34801561069857600080fd5b506104b66106a736600461372b565b611330565b3480156106b857600080fd5b506104b66106c7366004613712565b6113e5565b3480156106d857600080fd5b506104096106e7366004613712565b611562565b3480156106f857600080fd5b5060075460ff166103bc565b34801561071057600080fd5b50610409601a5481565b34801561072657600080fd5b50610409606481565b34801561073b57600080fd5b506104b661074a36600461384e565b611579565b34801561075b57600080fd5b5061040961076a36600461372b565b6001600160a01b031660009081526002602052604090205490565b34801561079157600080fd5b506104b6611792565b3480156107a657600080fd5b506104b66107b5366004613666565b6117f6565b3480156107c657600080fd5b506107cf61180b565b6040516103c8919061391a565b6104b66107ea366004613746565b611846565b3480156107fb57600080fd5b506104b6611ca7565b34801561081057600080fd5b506009546001600160a01b031661057c565b34801561082e57600080fd5b5061057c61083d366004613928565b611d4b565b34801561084e57600080fd5b506103bc61085d366004613746565b6000918252602082815260408084206001600160a01b0393909316845291905290205460ff1690565b34801561089257600080fd5b506103e6611d63565b3480156108a757600080fd5b506104b6611d72565b3480156108bc57600080fd5b50600c5461057c906001600160a01b031681565b3480156108dc57600080fd5b50610409600081565b3480156108f157600080fd5b506103bc610900366004613666565b611d8b565b34801561091157600080fd5b506103bc6104d3366004613666565b34801561092c57600080fd5b5061046c611e40565b34801561094157600080fd5b5061094a611e81565b6040516103c8919061396d565b34801561096357600080fd5b50610409610972366004613712565b611eb7565b34801561098357600080fd5b5061040961099236600461372b565b600b6020526000908152604090205481565b3480156109b057600080fd5b506105e5600181565b3480156109c557600080fd5b506104097f9f2df0fed2c77648de5860a4cc508cd0818c85b8b8a1ab4ceeef8d981c8956a681565b3480156109f957600080fd5b506104b6610a08366004613746565b611ece565b348015610a1957600080fd5b50610409610a2836600461397b565b6001600160a01b03918216600090815260036020908152604080832093909416825291909152205490565b348015610a5f57600080fd5b5061094a611ef4565b348015610a7457600080fd5b506104097f65d7a28e3265b37a6474929f336521b332c1681b933f6cb9f3376673440d862a81565b348015610aa857600080fd5b506104b6611f2a565b348015610abd57600080fd5b50336000908152600b6020526040902054610409565b348015610adf57600080fd5b506105e5612200565b348015610af457600080fd5b50610afd612260565b6040516103c891906139c8565b348015610b1657600080fd5b506104b6610b2536600461372b565b612295565b348015610b3657600080fd5b506103bc610b4536600461372b565b600a6020526000908152604090205460ff1681565b60006001600160e01b031982167f5a05180f000000000000000000000000000000000000000000000000000000001480610b985750610b9882612427565b92915050565b606060058054610bad906139d6565b80601f0160208091040260200160405190810160405280929190818152602001828054610bd9906139d6565b8015610c265780601f10610bfb57610100808354040283529160200191610c26565b820191906000526020600020905b815481529060010190602001808311610c0957829003601f168201915b5050505050905090565b600033610c3e81858561248e565b5060019392505050565b6000808260ff16118015610c5f575060048260ff16105b610c6857600080fd5b60006015610c77600185613a27565b60ff1660038110610c8a57610c8a613a4a565b01546001600160a01b0386166000908152600b602052604090205490915061271090610cb69082613a60565b610cc09083613a77565b610cca9190613a96565b610cdc85670de0b6b3a7640000613a77565b610ce69190613a96565b9150505b9392505050565b600080610cfc612200565b90508060ff1660041415610d1257600091505090565b610d3d42600e8360ff1660048110610d2c57610d2c613a4a565b0154610d389190613a60565b6125e6565b91505090565b6009546001600160a01b03163314610da25760405162461bcd60e51b815260206004820181905260248201527f4f776e61626c653a2063616c6c6572206973206e6f7420746865206f776e657260448201526064015b60405180910390fd5b6127108110610df35760405162461bcd60e51b815260206004820152601260248201527f496e636f727265637420646973636f756e7400000000000000000000000000006044820152606401610d99565b6001600160a01b0382166000818152600b602052604090819020839055517fce857dd72821f738a40a5930485749c11809f5e29cbabdef25b4d2eb80e0928790610e409084815260200190565b60405180910390a25050565b60405162461bcd60e51b81526020600482015260006024820181905290604401610d99565b6009546001600160a01b03163314610ecb5760405162461bcd60e51b815260206004820181905260248201527f4f776e61626c653a2063616c6c6572206973206e6f7420746865206f776e65726044820152606401610d99565b600c805473ffffffffffffffffffffffffffffffffffffffff19166001600160a01b0383169081179091556040519081527ff9be437abc8da0c12d089b53e64ee42af5fc0b084d9d57095e51c925f9fe27b3906020015b60405180910390a150565b60026008541415610f805760405162461bcd60e51b815260206004820152601f60248201527f5265656e7472616e637947756172643a207265656e7472616e742063616c6c006044820152606401610d99565b6002600855610f8d612200565b60ff16156110025760405162461bcd60e51b8152602060048201526024808201527f50726573616c65536572766963653a205768697465206c69737420697320636c60448201527f6f736564000000000000000000000000000000000000000000000000000000006064820152608401610d99565b600033604051630b5c3f8760e01b81526001600160a01b03848116600483015280831660248301529192507f000000000000000000000000000000000000000000000000000000000000000090911690630b5c3f8790604401600060405180830381600087803b15801561107557600080fd5b505af1158015611089573d6000803e3d6000fd5b505050506001600160a01b0381166000818152600a6020908152604091829020805460ff1916600117905590519182527f0764c80c4165f118547b301a0b4b91eac21bd2f2d9b61d0ac723ff0aab27bb7991015b60405180910390a150506001600855565b60008281526020819052604090206001015461110a8133612666565b61111483836126e4565b505050565b6001600160a01b03811633146111975760405162461bcd60e51b815260206004820152602f60248201527f416363657373436f6e74726f6c3a2063616e206f6e6c792072656e6f756e636560448201527f20726f6c657320666f722073656c6600000000000000000000000000000000006064820152608401610d99565b6111a18282612706565b5050565b3360008181526003602090815260408083206001600160a01b0387168452909152812054909190610c3e90829086906111df908790613ab8565b61248e565b61120e7f65d7a28e3265b37a6474929f336521b332c1681b933f6cb9f3376673440d862a3361085d565b6112805760405162461bcd60e51b815260206004820152603960248201527f45524332305072657365744d696e7465725061757365723a206d75737420686160448201527f76652070617573657220726f6c6520746f20756e7061757365000000000000006064820152608401610d99565b611288612728565b565b6112b47f9f2df0fed2c77648de5860a4cc508cd0818c85b8b8a1ab4ceeef8d981c8956a63361085d565b6113265760405162461bcd60e51b815260206004820152603660248201527f45524332305072657365744d696e7465725061757365723a206d75737420686160448201527f7665206d696e74657220726f6c6520746f206d696e74000000000000000000006064820152608401610d99565b6111a182826127c4565b6009546001600160a01b0316331461138a5760405162461bcd60e51b815260206004820181905260248201527f4f776e61626c653a2063616c6c6572206973206e6f7420746865206f776e65726044820152606401610d99565b600d805473ffffffffffffffffffffffffffffffffffffffff19166001600160a01b0383169081179091556040519081527f4c1ea6a665aa2893f77530b6dd4565a3454e462913055056df640995424af0a290602001610f22565b600260085414156114385760405162461bcd60e51b815260206004820152601f60248201527f5265656e7472616e637947756172643a207265656e7472616e742063616c6c006044820152606401610d99565b6002600855611445612200565b60ff166004146114a55760405162461bcd60e51b815260206004820152602560248201527f50726573616c65536572766963653a2050726573616c65206973206e6f7420636044820152641b1bdcd95960da1b6064820152608401610d99565b336114b081836128af565b600c546040516340c10f1960e01b81526001600160a01b03838116600483015260248201859052909116906340c10f1990604401600060405180830381600087803b1580156114fe57600080fd5b505af1158015611512573d6000803e3d6000fd5b50505050806001600160a01b03167ff6554c3a5d28e08c120b5a69c7edbaf52f935bd2596a60b8a18e282cd257cddb8360405161155191815260200190565b60405180910390a250506001600855565b600e816004811061157257600080fd5b0154905081565b6009546001600160a01b031633146115d35760405162461bcd60e51b815260206004820181905260248201527f4f776e61626c653a2063616c6c6572206973206e6f7420746865206f776e65726044820152606401610d99565b6011544211806115e35750601154155b61162f5760405162461bcd60e51b815260206004820152600d60248201527f50726573616c6520656e646564000000000000000000000000000000000000006044820152606401610d99565b6020830151835110801561164a575060408301516020840151105b80156116595750604083015181115b6116a55760405162461bcd60e51b815260206004820152600e60248201527f496e76616c6964207072697365730000000000000000000000000000000000006044820152606401610d99565b602084015184511080156116c0575060408401516020850151105b80156116d3575060608401516040850151105b61171f5760405162461bcd60e51b815260206004820152600c60248201527f496e76616c69642074696d6500000000000000000000000000000000000000006044820152606401610d99565b61172c600e8560046134be565b5061173a60188360026134f8565b506117486015846003613525565b50601a8190556040517f6c1a46d1121231ccdefea95507e1e288e1ddafee31cd036825ce4e8e60e28e7290611784908690869086908690613ad0565b60405180910390a150505050565b6009546001600160a01b031633146117ec5760405162461bcd60e51b815260206004820181905260248201527f4f776e61626c653a2063616c6c6572206973206e6f7420746865206f776e65726044820152606401610d99565b6112886000612a40565b611801823383612a9f565b6111a182826128af565b611813613552565b60408051608081019182905290600e9060049082845b815481526020019060010190808311611829575050505050905090565b600260085414156118995760405162461bcd60e51b815260206004820152601f60248201527f5265656e7472616e637947756172643a207265656e7472616e742063616c6c006044820152606401610d99565b6002600855336000818152600a602052604090205460ff166119235760405162461bcd60e51b815260206004820152602560248201527f50726573616c65536572766963653a206e6f74206f6e2074686520776869746560448201527f206c6973740000000000000000000000000000000000000000000000000000006064820152608401610d99565b600061192d612200565b905060008160ff16118015611945575060048160ff16105b6119b75760405162461bcd60e51b815260206004820152602160248201527f50726573616c65536572766963653a2050726573616c6520697320636c6f736560448201527f64000000000000000000000000000000000000000000000000000000000000006064820152608401610d99565b3460006119c5848385610c48565b9050808614611a165760405162461bcd60e51b815260206004820152601760248201527f50726573616c65536572766963653a206572726f7220410000000000000000006044820152606401610d99565b611a2084826127c4565b806012611a2e600186613a27565b60ff1660038110611a4157611a41613a4a565b016000828254611a519190613ab8565b9091555060009050611a79612710611a6a606485613a77565b611a749190613a96565b612b31565b604051630b5c3f8760e01b81526001600160a01b03888116600483015287811660248301529192507f000000000000000000000000000000000000000000000000000000000000000090911690630b5c3f8790604401600060405180830381600087803b158015611ae957600080fd5b505af1158015611afd573d6000803e3d6000fd5b5050600c546040516340c10f1960e01b81526001600160a01b037f0000000000000000000000000000000000000000000000000000000000000000811660048301526fffffffffffffffffffffffffffffffff8616602483015290911692506340c10f199150604401600060405180830381600087803b158015611b8057600080fd5b505af1158015611b94573d6000803e3d6000fd5b50506040517fa8c36ef00000000000000000000000000000000000000000000000000000000081526001600160a01b0388811660048301526fffffffffffffffffffffffffffffffff85166024830152600160448301527f000000000000000000000000000000000000000000000000000000000000000016925063a8c36ef09150606401600060405180830381600087803b158015611c3357600080fd5b505af1158015611c47573d6000803e3d6000fd5b505060408051868152602081018b905260ff88168183015290516001600160a01b03891693507ff5ff5d05f627cf3559d35df273d9f18d843e0e1e82792331e17d6b0ec70fa94e92509081900360600190a2505060016008555050505050565b611cd17f65d7a28e3265b37a6474929f336521b332c1681b933f6cb9f3376673440d862a3361085d565b611d435760405162461bcd60e51b815260206004820152603760248201527f45524332305072657365744d696e7465725061757365723a206d75737420686160448201527f76652070617573657220726f6c6520746f2070617573650000000000000000006064820152608401610d99565b611288612bb9565b6000828152600160205260408120610cea9083612c41565b606060068054610bad906139d6565b6000611d7d3361076a565b9050611d88816113e5565b50565b3360008181526003602090815260408083206001600160a01b038716845290915281205490919083811015611e285760405162461bcd60e51b815260206004820152602560248201527f45524332303a2064656372656173656420616c6c6f77616e63652062656c6f7760448201527f207a65726f0000000000000000000000000000000000000000000000000000006064820152608401610d99565b611e35828686840361248e565b506001949350505050565b600080611e4b612200565b90508060ff1660041415611e6157600091505090565b610d3d600e8260ff1660048110611e7a57611e7a613a4a565b01546125e6565b611e89613570565b6040805160608101918290526015805482529091600390601660208501808311611829575050505050905090565b6000818152600160205260408120610b9890612c4d565b600082815260208190526040902060010154611eea8133612666565b6111148383612706565b611efc613570565b6040805160608101918290526012805482529091600390601360208501808311611829575050505050905090565b6009546001600160a01b03163314611f845760405162461bcd60e51b815260206004820181905260248201527f4f776e61626c653a2063616c6c6572206973206e6f7420746865206f776e65726044820152606401610d99565b60026008541415611fd75760405162461bcd60e51b815260206004820152601f60248201527f5265656e7472616e637947756172643a207265656e7472616e742063616c6c006044820152606401610d99565b6002600855611fe4612200565b60ff166004146120445760405162461bcd60e51b815260206004820152602560248201527f50726573616c65536572766963653a2050726573616c65206973206e6f7420636044820152641b1bdcd95960da1b6064820152608401610d99565b601a54479060009061205e83670de0b6b3a7640000613a77565b6120689190613a96565b600c546040516340c10f1960e01b8152306004820152602481018390529192506001600160a01b0316906340c10f1990604401600060405180830381600087803b1580156120b557600080fd5b505af11580156120c9573d6000803e3d6000fd5b5050600d54600c546120ea93506001600160a01b0390811692501683612c57565b600d54600c546040517ff305d7190000000000000000000000000000000000000000000000000000000081526001600160a01b039182166004820152602481018490526044810184905260648101859052600060848201524260a482015291169063f305d71990849060c40160606040518083038185885af1158015612174573d6000803e3d6000fd5b50505050506040513d601f19601f820116820180604052508101906121999190613b09565b5050600d80547fffffffffffffffffffffff00ffffffffffffffffffffffffffffffffffffffff16600160a01b1790555060408051828152602081018490527fcb1652de9aeec38545fc281847b3dbfc89aab56dfa907b1ab68466f602c36fb491016110dd565b600042600e820154101561225d5750600142600e8201541080612227575060185460125410155b1561225d5750600242600e8201541080612245575060195460135410155b1561225d5750600342600e820154101561225d575060045b90565b61226861358e565b60408051808201918290526018805482529091600290601960208501808311611829575050505050905090565b6009546001600160a01b031633146122ef5760405162461bcd60e51b815260206004820181905260248201527f4f776e61626c653a2063616c6c6572206973206e6f7420746865206f776e65726044820152606401610d99565b6001600160a01b03811661236b5760405162461bcd60e51b815260206004820152602660248201527f4f776e61626c653a206e6577206f776e657220697320746865207a65726f206160448201527f64647265737300000000000000000000000000000000000000000000000000006064820152608401610d99565b611d8881612a40565b6000828152602081815260408083206001600160a01b038516845290915290205460ff166111a1576000828152602081815260408083206001600160a01b03851684529091529020805460ff191660011790556123ce3390565b6001600160a01b0316816001600160a01b0316837f2f8788117e7eff1d82e926ec794901d17c78024a50270940304540a733656f0d60405160405180910390a45050565b6000610cea836001600160a01b038416612ddc565b60006001600160e01b031982167f7965db0b000000000000000000000000000000000000000000000000000000001480610b9857507f01ffc9a7000000000000000000000000000000000000000000000000000000006001600160e01b0319831614610b98565b6001600160a01b0383166125095760405162461bcd60e51b8152602060048201526024808201527f45524332303a20617070726f76652066726f6d20746865207a65726f2061646460448201527f72657373000000000000000000000000000000000000000000000000000000006064820152608401610d99565b6001600160a01b0382166125855760405162461bcd60e51b815260206004820152602260248201527f45524332303a20617070726f766520746f20746865207a65726f20616464726560448201527f73730000000000000000000000000000000000000000000000000000000000006064820152608401610d99565b6001600160a01b0383811660008181526003602090815260408083209487168084529482529182902085905590518481527f8c5be1e5ebec7d5bd14f71427d1e84f3dd0314c0f7b2291e5b200ac8c7c3b925910160405180910390a3505050565b600063ffffffff8211156126625760405162461bcd60e51b815260206004820152602660248201527f53616665436173743a2076616c756520646f65736e27742066697420696e203360448201527f32206269747300000000000000000000000000000000000000000000000000006064820152608401610d99565b5090565b6000828152602081815260408083206001600160a01b038516845290915290205460ff166111a1576126a2816001600160a01b03166014612e2b565b6126ad836020612e2b565b6040516020016126be929190613b37565b60408051601f198184030181529082905262461bcd60e51b8252610d9991600401613617565b6126ee8282612374565b60008281526001602052604090206111149082612412565b612710828261300c565b6000828152600160205260409020611114908261308b565b60075460ff1661277a5760405162461bcd60e51b815260206004820152601460248201527f5061757361626c653a206e6f74207061757365640000000000000000000000006044820152606401610d99565b6007805460ff191690557f5db9ee0a495bf2e6ff9c91a7834c1ba4fdd244a5e8aa4e537bd38aeae4b073aa335b6040516001600160a01b03909116815260200160405180910390a1565b6001600160a01b03821661281a5760405162461bcd60e51b815260206004820152601f60248201527f45524332303a206d696e7420746f20746865207a65726f2061646472657373006044820152606401610d99565b612826600083836130a0565b80600460008282546128389190613ab8565b90915550506001600160a01b03821660009081526002602052604081208054839290612865908490613ab8565b90915550506040518181526001600160a01b038316906000907fddf252ad1be2c89b69c2b068fc378daa952ba7f163c4a11628f55a4df523b3ef9060200160405180910390a35050565b6001600160a01b03821661292b5760405162461bcd60e51b815260206004820152602160248201527f45524332303a206275726e2066726f6d20746865207a65726f2061646472657360448201527f73000000000000000000000000000000000000000000000000000000000000006064820152608401610d99565b612937826000836130a0565b6001600160a01b038216600090815260026020526040902054818110156129c65760405162461bcd60e51b815260206004820152602260248201527f45524332303a206275726e20616d6f756e7420657863656564732062616c616e60448201527f63650000000000000000000000000000000000000000000000000000000000006064820152608401610d99565b6001600160a01b03831660009081526002602052604081208383039055600480548492906129f5908490613a60565b90915550506040518281526000906001600160a01b038516907fddf252ad1be2c89b69c2b068fc378daa952ba7f163c4a11628f55a4df523b3ef9060200160405180910390a3505050565b600980546001600160a01b0383811673ffffffffffffffffffffffffffffffffffffffff19831681179093556040519116919082907f8be0079c531659141344cd1fd0a4f28419497f9722a3daafe3b4186f6b6457e090600090a35050565b6001600160a01b038381166000908152600360209081526040808320938616835292905220546000198114612b2b5781811015612b1e5760405162461bcd60e51b815260206004820152601d60248201527f45524332303a20696e73756666696369656e7420616c6c6f77616e63650000006044820152606401610d99565b612b2b848484840361248e565b50505050565b60006fffffffffffffffffffffffffffffffff8211156126625760405162461bcd60e51b815260206004820152602760248201527f53616665436173743a2076616c756520646f65736e27742066697420696e203160448201527f32382062697473000000000000000000000000000000000000000000000000006064820152608401610d99565b60075460ff1615612c0c5760405162461bcd60e51b815260206004820152601060248201527f5061757361626c653a20706175736564000000000000000000000000000000006044820152606401610d99565b6007805460ff191660011790557f62e78cea01bee320cd4e420270b5ea74000d11b0c9f74754ebdbfc544b05a2586127a73390565b6000610cea83836130ab565b6000610b98825490565b801580612cea57506040517fdd62ed3e0000000000000000000000000000000000000000000000000000000081523060048201526001600160a01b03838116602483015284169063dd62ed3e90604401602060405180830381865afa158015612cc4573d6000803e3d6000fd5b505050506040513d601f19601f82011682018060405250810190612ce89190613bb8565b155b612d5c5760405162461bcd60e51b815260206004820152603660248201527f5361666545524332303a20617070726f76652066726f6d206e6f6e2d7a65726f60448201527f20746f206e6f6e2d7a65726f20616c6c6f77616e6365000000000000000000006064820152608401610d99565b604080516001600160a01b038416602482015260448082018490528251808303909101815260649091019091526020810180517bffffffffffffffffffffffffffffffffffffffffffffffffffffffff167f095ea7b3000000000000000000000000000000000000000000000000000000001790526111149084906130d5565b6000818152600183016020526040812054612e2357508154600181810184556000848152602080822090930184905584548482528286019093526040902091909155610b98565b506000610b98565b60606000612e3a836002613a77565b612e45906002613ab8565b67ffffffffffffffff811115612e5d57612e5d613772565b6040519080825280601f01601f191660200182016040528015612e87576020820181803683370190505b5090507f300000000000000000000000000000000000000000000000000000000000000081600081518110612ebe57612ebe613a4a565b60200101906001600160f81b031916908160001a9053507f780000000000000000000000000000000000000000000000000000000000000081600181518110612f0957612f09613a4a565b60200101906001600160f81b031916908160001a9053506000612f2d846002613a77565b612f38906001613ab8565b90505b6001811115612fbd577f303132333435363738396162636465660000000000000000000000000000000085600f1660108110612f7957612f79613a4a565b1a60f81b828281518110612f8f57612f8f613a4a565b60200101906001600160f81b031916908160001a90535060049490941c93612fb681613bd1565b9050612f3b565b508315610cea5760405162461bcd60e51b815260206004820181905260248201527f537472696e67733a20686578206c656e67746820696e73756666696369656e746044820152606401610d99565b6000828152602081815260408083206001600160a01b038516845290915290205460ff16156111a1576000828152602081815260408083206001600160a01b0385168085529252808320805460ff1916905551339285917ff6391f5c32d9c69d2a47ea670b442974b53935d1edc7fd64eb21e047a839171b9190a45050565b6000610cea836001600160a01b0384166131ba565b6111148383836132ad565b60008260000182815481106130c2576130c2613a4a565b9060005260206000200154905092915050565b600061312a826040518060400160405280602081526020017f5361666545524332303a206c6f772d6c6576656c2063616c6c206661696c6564815250856001600160a01b03166133269092919063ffffffff16565b80519091501561111457808060200190518101906131489190613be8565b6111145760405162461bcd60e51b815260206004820152602a60248201527f5361666545524332303a204552433230206f7065726174696f6e20646964206e60448201527f6f742073756363656564000000000000000000000000000000000000000000006064820152608401610d99565b600081815260018301602052604081205480156132a35760006131de600183613a60565b85549091506000906131f290600190613a60565b905081811461325757600086600001828154811061321257613212613a4a565b906000526020600020015490508087600001848154811061323557613235613a4a565b6000918252602080832090910192909255918252600188019052604090208390555b855486908061326857613268613c0a565b600190038181906000526020600020016000905590558560010160008681526020019081526020016000206000905560019350505050610b98565b6000915050610b98565b60075460ff16156111145760405162461bcd60e51b815260206004820152602a60248201527f45524332305061757361626c653a20746f6b656e207472616e7366657220776860448201527f696c6520706175736564000000000000000000000000000000000000000000006064820152608401610d99565b6060613335848460008561333d565b949350505050565b6060824710156133b55760405162461bcd60e51b815260206004820152602660248201527f416464726573733a20696e73756666696369656e742062616c616e636520666f60448201527f722063616c6c00000000000000000000000000000000000000000000000000006064820152608401610d99565b6001600160a01b0385163b61340c5760405162461bcd60e51b815260206004820152601d60248201527f416464726573733a2063616c6c20746f206e6f6e2d636f6e74726163740000006044820152606401610d99565b600080866001600160a01b031685876040516134289190613c20565b60006040518083038185875af1925050503d8060008114613465576040519150601f19603f3d011682016040523d82523d6000602084013e61346a565b606091505b509150915061347a828286613485565b979650505050505050565b60608315613494575081610cea565b8251156134a45782518084602001fd5b8160405162461bcd60e51b8152600401610d999190613617565b82600481019282156134ec579160200282015b828111156134ec5782518255916020019190600101906134d1565b506126629291506135ac565b82600281019282156134ec57916020028201828111156134ec5782518255916020019190600101906134d1565b82600381019282156134ec57916020028201828111156134ec5782518255916020019190600101906134d1565b60405180608001604052806004906020820280368337509192915050565b60405180606001604052806003906020820280368337509192915050565b60405180604001604052806002906020820280368337509192915050565b5b8082111561266257600081556001016135ad565b6000602082840312156135d357600080fd5b81356001600160e01b031981168114610cea57600080fd5b60005b838110156136065781810151838201526020016135ee565b83811115612b2b5750506000910152565b60208152600082518060208401526136368160408501602087016135eb565b601f01601f19169190910160400192915050565b80356001600160a01b038116811461366157600080fd5b919050565b6000806040838503121561367957600080fd5b6136828361364a565b946020939093013593505050565b6000806000606084860312156136a557600080fd5b6136ae8461364a565b925060208401359150604084013560ff811681146136cb57600080fd5b809150509250925092565b6000806000606084860312156136eb57600080fd5b6136f48461364a565b92506137026020850161364a565b9150604084013590509250925092565b60006020828403121561372457600080fd5b5035919050565b60006020828403121561373d57600080fd5b610cea8261364a565b6000806040838503121561375957600080fd5b823591506137696020840161364a565b90509250929050565b634e487b7160e01b600052604160045260246000fd5b6040516080810167ffffffffffffffff811182821017156137ab576137ab613772565b60405290565b60006040516060810181811067ffffffffffffffff821117156137d6576137d6613772565b60405290508060608301848111156137ed57600080fd5b835b818110156138075780358352602092830192016137ef565b50505092915050565b60006040516040810181811067ffffffffffffffff8211171561383557613835613772565b806040525080915060408301848111156137ed57600080fd5b600080600080610140858703121561386557600080fd5b85601f86011261387457600080fd5b61387c613788565b80608087018881111561388e57600080fd5b875b818110156138a8578035845260209384019301613890565b5081965088609f8901126138bb57600080fd5b6138c589826137b1565b95505050508560ff8601126138d957600080fd5b6138e68660e08701613810565b939692955092936101200135925050565b8060005b6004811015612b2b5781518452602093840193909101906001016138fb565b60808101610b9882846138f7565b6000806040838503121561393b57600080fd5b50508035926020909101359150565b8060005b6003811015612b2b57815184526020938401939091019060010161394e565b60608101610b98828461394a565b6000806040838503121561398e57600080fd5b6139978361364a565b91506137696020840161364a565b8060005b6002811015612b2b5781518452602093840193909101906001016139a9565b60408101610b9882846139a5565b600181811c908216806139ea57607f821691505b60208210811415613a0b57634e487b7160e01b600052602260045260246000fd5b50919050565b634e487b7160e01b600052601160045260246000fd5b600060ff821660ff841680821015613a4157613a41613a11565b90039392505050565b634e487b7160e01b600052603260045260246000fd5b600082821015613a7257613a72613a11565b500390565b6000816000190483118215151615613a9157613a91613a11565b500290565b600082613ab357634e487b7160e01b600052601260045260246000fd5b500490565b60008219821115613acb57613acb613a11565b500190565b6101408101613adf82876138f7565b613aec608083018661394a565b613af960e08301856139a5565b8261012083015295945050505050565b600080600060608486031215613b1e57600080fd5b8351925060208401519150604084015190509250925092565b7f416363657373436f6e74726f6c3a206163636f756e7420000000000000000000815260008351613b6f8160178501602088016135eb565b7f206973206d697373696e6720726f6c65200000000000000000000000000000006017918401918201528351613bac8160288401602088016135eb565b01602801949350505050565b600060208284031215613bca57600080fd5b5051919050565b600081613be057613be0613a11565b506000190190565b600060208284031215613bfa57600080fd5b81518015158114610cea57600080fd5b634e487b7160e01b600052603160045260246000fd5b60008251613c328184602087016135eb565b919091019291505056fea26469706673582212207c22fbf5e486515a3a6cb17feb5c6b714484023958595af55140c7542299f1b864736f6c634300080c0033",
  "immutableReferences": {
    "7963": [
      {
        "length": 32,
        "start": 1370
      },
      {
        "length": 32,
        "start": 4143
      },
      {
        "length": 32,
        "start": 6819
      },
      {
        "length": 32,
        "start": 6937
      },
      {
        "length": 32,
        "start": 7149
      }
    ]
  },
  "source": "// SPDX-License-Identifier: MIT\npragma solidity 0.8.12;\n\nimport \"@openzeppelin/contracts/token/ERC20/presets/ERC20PresetMinterPauser.sol\";\nimport \"@openzeppelin/contracts/token/ERC20/utils/SafeERC20.sol\";\nimport \"@openzeppelin/contracts/token/ERC20/ERC20.sol\";\nimport \"@openzeppelin/contracts/utils/math/SafeMath.sol\";\nimport \"@openzeppelin/contracts/utils/math/SafeCast.sol\";\nimport \"@openzeppelin/contracts/security/ReentrancyGuard.sol\";\nimport \"@openzeppelin/contracts/access/Ownable.sol\";\nimport \"./ReferralService.sol\";\nimport \"./SolarToken.sol\";\nimport \"./interface/IPancakeRouter02.sol\";\n\ncontract PresaleService is ERC20PresetMinterPauser(\"PresaleSLR\", \"PresaleSLR\"), ReentrancyGuard, Ownable {\n  using SafeCast for uint256;\n  using SafeERC20 for IERC20;\n\n  mapping(address => bool) public joined;\n\n  /**\n   * @dev Discount for discount for ITO members\n   */\n  mapping(address => uint256) public discount;\n  uint256 public constant discountDivider = 10000;\n\n  address public immutable referralContractAddress;\n  address public tokenAddress;\n  address public routerAddress;\n  uint8 public constant referralActionBuy = 1;\n  uint256 public constant referrerRewardDivider = 10000;\n  uint256 public constant referrerRewardPercent = 100;\n  bool public isLaunched;\n  uint256[4] public phasesTime;\n  uint256[3] private phasesAmount;\n  uint256[3] private phasesPrices;\n  uint256[2] private phasesMaxAmount;\n  uint256 public launchingTokenPrice = 1 wei;\n\n  event SetPhases(uint256[4] phasesTime, uint256[3] phasesPrices, uint256[2] phasesMaxAmount, uint256 launchingPrice);\n  event AddLiquidity(uint256 tokenAmount, uint256 ethAmount);\n  event Burn(uint256 amount, address indexed owner);\n  event Buy(uint256 amountIn, uint256 amountOut, uint8 phase, address indexed owner);\n  event Join(address owner);\n  event SetDiscount(address indexed owner, uint256 discount);\n  event UpdateTokenAddress(address tokenAddress);\n  event UpdateRouterAddress(address tokenAddress);\n\n  constructor(address _referralContractAddress) {\n    referralContractAddress = _referralContractAddress;\n  }\n\n  function getPhaseAmountOut(address owner, uint256 amountIn, uint8 phase) public view returns(uint256) {\n    require(phase > 0 && phase < 4);\n\n    uint256 phasePrice = phasesPrices[phase - 1];\n\n    return (amountIn * 10**18) / (phasePrice * (discountDivider - discount[owner]) / discountDivider);\n  }\n\n  function getPhase() public view returns (uint8 phase) {\n    if (phasesTime[0] < block.timestamp) {\n      phase = 1;\n      if (phasesTime[1] < block.timestamp || phasesAmount[0] >= phasesMaxAmount[0]) {\n        phase = 2;\n        if (phasesTime[2] < block.timestamp || phasesAmount[1] >= phasesMaxAmount[1]) {\n          phase = 3;\n          if (phasesTime[3] < block.timestamp) {\n            phase = 4;\n          }\n        }\n      }\n    }\n  }\n\n  function getPrices() public view returns (uint256[3] memory prises) {\n    prises = phasesPrices;\n  }\n\n  function getPhasesMaxAmount() public view returns (uint256[2] memory phases) {\n    phases = phasesMaxAmount;\n  }\n\n  function getPhasesAmount() public view returns (uint256[3] memory phases) {\n    phases = phasesAmount;\n  }\n\n  function getPhasesTime() public view returns (uint256[4] memory phases) {\n    phases = phasesTime;\n  }\n\n  function getCurrentPhaseEndTime() public view returns (uint32 endTime) {\n    uint8 currentPhase = getPhase();\n\n    if (currentPhase == 4) {\n      return 0;\n    }\n\n    endTime = phasesTime[currentPhase].toUint32();\n  }\n\n  function getCurrentPhaseCountdown() public view returns (uint32 countdown) {\n    uint8 currentPhase = getPhase();\n\n    if (currentPhase == 4) {\n      return 0;\n    }\n\n    countdown = (phasesTime[currentPhase] - block.timestamp).toUint32();\n  }\n\n  function getMyDiscount() public view returns (uint256 myDiscount) {\n    address owner = _msgSender();\n\n    myDiscount = discount[owner];\n  }\n\n  function join(address _referrer) public nonReentrant {\n    require(getPhase() == 0, \"PresaleService: White list is closed\");\n\n    address owner = _msgSender();\n\n    ReferralService(referralContractAddress).addReferral(_referrer, owner);\n\n    joined[owner] = true;\n\n    emit Join(owner);\n  }\n\n  function buy(uint256 _amountOut, address _referrer) public payable nonReentrant {\n    address owner = _msgSender();\n    require(joined[owner], \"PresaleService: not on the white list\");\n\n    uint8 phase = getPhase();\n    require(phase > 0 && phase < 4, \"PresaleService: Presale is closed\");\n    uint256 amountIn = msg.value;\n    require(amountIn >= 0, \"PresaleService: zero emount\");\n    \n    uint256 presaleTokenAmount = getPhaseAmountOut(owner, amountIn, phase);\n\n    require(_amountOut == presaleTokenAmount, \"PresaleService: error A\");\n\n    _mint(owner, presaleTokenAmount);\n    phasesAmount[phase - 1] += presaleTokenAmount;\n\n    uint128 referrerReward = (presaleTokenAmount * referrerRewardPercent / referrerRewardDivider).toUint128();\n\n    ReferralService(referralContractAddress).addReferral(_referrer, owner);\n    SolarToken(tokenAddress).mint(referralContractAddress, referrerReward);\n    ReferralService(referralContractAddress).saveReferrerReward(\n      owner,\n      referrerReward,\n      referralActionBuy\n    );\n\n    emit Buy(amountIn, _amountOut, phase, owner);\n  }\n\n  function transfer(address to, uint256 amount) public override returns (bool) {\n    revert('');\n  }\n\n  function transferFrom(\n    address from,\n    address to,\n    uint256 amount\n  ) public virtual override returns (bool) {\n    revert('');\n  }\n\n  /**\n    * @dev Allow a user to burn a number of presale tokens and withdraw the corresponding number of real tokens.\n    */\n  function burn(uint256 _amount) public override nonReentrant {\n    require(getPhase() == 4, \"PresaleService: Presale is not closed\");\n\n    address owner = _msgSender();\n\n    _burn(owner, _amount);\n    SolarToken(tokenAddress).mint(owner, _amount);\n\n    emit Burn(_amount, owner);\n  }\n\n  function burnAll() public {\n    uint256 amount = balanceOf(_msgSender());\n\n    burn(amount);\n  }\n\n  function addLiquidity() public onlyOwner nonReentrant {\n    require(getPhase() == 4, \"PresaleService: Presale is not closed\");\n\n    uint256 amountETH = address(this).balance;\n    uint256 amountToken = (amountETH * 10**18) / launchingTokenPrice;\n\n    SolarToken(tokenAddress).mint(address(this), amountToken);\n\n    IERC20(tokenAddress).safeApprove(routerAddress, amountToken);\n    IPancakeRouter02(routerAddress).addLiquidityETH{value: amountETH}(\n      tokenAddress,\n      amountToken,\n      amountToken,\n      amountETH,\n      address(0),\n      block.timestamp\n    );\n\n    isLaunched = true;\n\n    emit AddLiquidity(amountToken, amountETH);\n  }\n\n  function setDiscount(address _owner, uint256 _discount) public onlyOwner {\n    require(_discount < discountDivider, \"Incorrect discount\");\n\n    discount[_owner] = _discount;\n\n    emit SetDiscount(_owner, _discount);\n  }\n\n  function setPhases(uint256[4] memory _phasesTime, uint256[3] memory _phasesPrices, uint256[2] memory _phasesMaxAmount, uint256 _launchingPrice) public onlyOwner {\n    require(phasesTime[3] < block.timestamp || phasesTime[3] == 0, \"Presale ended\");\n\n    require(\n      _phasesPrices[0] < _phasesPrices[1]\n      && _phasesPrices[1] < _phasesPrices[2]\n      && _phasesPrices[2] < _launchingPrice,\n      \"Invalid prises\"\n    );\n\n    require(\n      _phasesTime[0] < _phasesTime[1]\n      && _phasesTime[1] < _phasesTime[2]\n      && _phasesTime[2] < _phasesTime[3],\n      \"Invalid time\"\n    );\n\n    phasesTime = _phasesTime;\n    phasesMaxAmount = _phasesMaxAmount;\n    phasesPrices = _phasesPrices;\n    launchingTokenPrice = _launchingPrice;\n\n    emit SetPhases(_phasesTime, _phasesPrices, _phasesMaxAmount, _launchingPrice);\n  }\n\n  function setTokenAddress(address _tokenAddress) public onlyOwner {\n    tokenAddress = _tokenAddress;\n\n    emit UpdateTokenAddress(_tokenAddress);\n  }\n\n  function setRouterAddress(address _routerAddress) public onlyOwner {\n    routerAddress = _routerAddress;\n\n    emit UpdateRouterAddress(_routerAddress);\n  }\n}\n",
  "sourcePath": "/Users/vyacheslav/Documents/solar.finance/contracts/contracts/PresaleService.sol",
  "compiler": {
    "name": "solc",
    "version": "0.8.12+commit.f00d7308.Emscripten.clang"
  },
  "schemaVersion": "3.4.5",
  "updatedAt": "2022-05-24T20:49:02.806Z",
  "networkType": "ethereum",
  "devdoc": {
    "kind": "dev",
    "methods": {
      "allowance(address,address)": {
        "details": "See {IERC20-allowance}."
      },
      "approve(address,uint256)": {
        "details": "See {IERC20-approve}. NOTE: If `amount` is the maximum `uint256`, the allowance is not updated on `transferFrom`. This is semantically equivalent to an infinite approval. Requirements: - `spender` cannot be the zero address."
      },
      "balanceOf(address)": {
        "details": "See {IERC20-balanceOf}."
      },
      "burn(uint256)": {
        "details": "Allow a user to burn a number of presale tokens and withdraw the corresponding number of real tokens."
      },
      "burnFrom(address,uint256)": {
        "details": "Destroys `amount` tokens from `account`, deducting from the caller's allowance. See {ERC20-_burn} and {ERC20-allowance}. Requirements: - the caller must have allowance for ``accounts``'s tokens of at least `amount`."
      },
      "decimals()": {
        "details": "Returns the number of decimals used to get its user representation. For example, if `decimals` equals `2`, a balance of `505` tokens should be displayed to a user as `5.05` (`505 / 10 ** 2`). Tokens usually opt for a value of 18, imitating the relationship between Ether and Wei. This is the value {ERC20} uses, unless this function is overridden; NOTE: This information is only used for _display_ purposes: it in no way affects any of the arithmetic of the contract, including {IERC20-balanceOf} and {IERC20-transfer}."
      },
      "decreaseAllowance(address,uint256)": {
        "details": "Atomically decreases the allowance granted to `spender` by the caller. This is an alternative to {approve} that can be used as a mitigation for problems described in {IERC20-approve}. Emits an {Approval} event indicating the updated allowance. Requirements: - `spender` cannot be the zero address. - `spender` must have allowance for the caller of at least `subtractedValue`."
      },
      "getRoleAdmin(bytes32)": {
        "details": "Returns the admin role that controls `role`. See {grantRole} and {revokeRole}. To change a role's admin, use {_setRoleAdmin}."
      },
      "getRoleMember(bytes32,uint256)": {
        "details": "Returns one of the accounts that have `role`. `index` must be a value between 0 and {getRoleMemberCount}, non-inclusive. Role bearers are not sorted in any particular way, and their ordering may change at any point. WARNING: When using {getRoleMember} and {getRoleMemberCount}, make sure you perform all queries on the same block. See the following https://forum.openzeppelin.com/t/iterating-over-elements-on-enumerableset-in-openzeppelin-contracts/2296[forum post] for more information."
      },
      "getRoleMemberCount(bytes32)": {
        "details": "Returns the number of accounts that have `role`. Can be used together with {getRoleMember} to enumerate all bearers of a role."
      },
      "grantRole(bytes32,address)": {
        "details": "Grants `role` to `account`. If `account` had not been already granted `role`, emits a {RoleGranted} event. Requirements: - the caller must have ``role``'s admin role."
      },
      "hasRole(bytes32,address)": {
        "details": "Returns `true` if `account` has been granted `role`."
      },
      "increaseAllowance(address,uint256)": {
        "details": "Atomically increases the allowance granted to `spender` by the caller. This is an alternative to {approve} that can be used as a mitigation for problems described in {IERC20-approve}. Emits an {Approval} event indicating the updated allowance. Requirements: - `spender` cannot be the zero address."
      },
      "mint(address,uint256)": {
        "details": "Creates `amount` new tokens for `to`. See {ERC20-_mint}. Requirements: - the caller must have the `MINTER_ROLE`."
      },
      "name()": {
        "details": "Returns the name of the token."
      },
      "owner()": {
        "details": "Returns the address of the current owner."
      },
      "pause()": {
        "details": "Pauses all token transfers. See {ERC20Pausable} and {Pausable-_pause}. Requirements: - the caller must have the `PAUSER_ROLE`."
      },
      "paused()": {
        "details": "Returns true if the contract is paused, and false otherwise."
      },
      "renounceOwnership()": {
        "details": "Leaves the contract without owner. It will not be possible to call `onlyOwner` functions anymore. Can only be called by the current owner. NOTE: Renouncing ownership will leave the contract without an owner, thereby removing any functionality that is only available to the owner."
      },
      "renounceRole(bytes32,address)": {
        "details": "Revokes `role` from the calling account. Roles are often managed via {grantRole} and {revokeRole}: this function's purpose is to provide a mechanism for accounts to lose their privileges if they are compromised (such as when a trusted device is misplaced). If the calling account had been revoked `role`, emits a {RoleRevoked} event. Requirements: - the caller must be `account`."
      },
      "revokeRole(bytes32,address)": {
        "details": "Revokes `role` from `account`. If `account` had been granted `role`, emits a {RoleRevoked} event. Requirements: - the caller must have ``role``'s admin role."
      },
      "supportsInterface(bytes4)": {
        "details": "See {IERC165-supportsInterface}."
      },
      "symbol()": {
        "details": "Returns the symbol of the token, usually a shorter version of the name."
      },
      "totalSupply()": {
        "details": "See {IERC20-totalSupply}."
      },
      "transfer(address,uint256)": {
        "details": "See {IERC20-transfer}. Requirements: - `to` cannot be the zero address. - the caller must have a balance of at least `amount`."
      },
      "transferFrom(address,address,uint256)": {
        "details": "See {IERC20-transferFrom}. Emits an {Approval} event indicating the updated allowance. This is not required by the EIP. See the note at the beginning of {ERC20}. NOTE: Does not update the allowance if the current allowance is the maximum `uint256`. Requirements: - `from` and `to` cannot be the zero address. - `from` must have a balance of at least `amount`. - the caller must have allowance for ``from``'s tokens of at least `amount`."
      },
      "transferOwnership(address)": {
        "details": "Transfers ownership of the contract to a new account (`newOwner`). Can only be called by the current owner."
      },
      "unpause()": {
        "details": "Unpauses all token transfers. See {ERC20Pausable} and {Pausable-_unpause}. Requirements: - the caller must have the `PAUSER_ROLE`."
      }
    },
    "stateVariables": {
      "discount": {
        "details": "Discount for discount for ITO members"
      }
    },
    "version": 1
  },
  "userdoc": {
    "kind": "user",
    "methods": {},
    "version": 1
  }
}