{
  "contractName": "ReferralService",
  "abi": [
    {
      "inputs": [],
      "stateMutability": "nonpayable",
      "type": "constructor"
    },
    {
      "anonymous": false,
      "inputs": [
        {
          "indexed": true,
          "internalType": "address",
          "name": "previousOwner",
          "type": "address"
        },
        {
          "indexed": true,
          "internalType": "address",
          "name": "newOwner",
          "type": "address"
        }
      ],
      "name": "OwnershipTransferred",
      "type": "event"
    },
    {
      "anonymous": false,
      "inputs": [
        {
          "indexed": false,
          "internalType": "address",
          "name": "account",
          "type": "address"
        }
      ],
      "name": "Paused",
      "type": "event"
    },
    {
      "anonymous": false,
      "inputs": [
        {
          "indexed": true,
          "internalType": "bytes32",
          "name": "role",
          "type": "bytes32"
        },
        {
          "indexed": true,
          "internalType": "bytes32",
          "name": "previousAdminRole",
          "type": "bytes32"
        },
        {
          "indexed": true,
          "internalType": "bytes32",
          "name": "newAdminRole",
          "type": "bytes32"
        }
      ],
      "name": "RoleAdminChanged",
      "type": "event"
    },
    {
      "anonymous": false,
      "inputs": [
        {
          "indexed": true,
          "internalType": "bytes32",
          "name": "role",
          "type": "bytes32"
        },
        {
          "indexed": true,
          "internalType": "address",
          "name": "account",
          "type": "address"
        },
        {
          "indexed": true,
          "internalType": "address",
          "name": "sender",
          "type": "address"
        }
      ],
      "name": "RoleGranted",
      "type": "event"
    },
    {
      "anonymous": false,
      "inputs": [
        {
          "indexed": true,
          "internalType": "bytes32",
          "name": "role",
          "type": "bytes32"
        },
        {
          "indexed": true,
          "internalType": "address",
          "name": "account",
          "type": "address"
        },
        {
          "indexed": true,
          "internalType": "address",
          "name": "sender",
          "type": "address"
        }
      ],
      "name": "RoleRevoked",
      "type": "event"
    },
    {
      "anonymous": false,
      "inputs": [
        {
          "indexed": false,
          "internalType": "address",
          "name": "account",
          "type": "address"
        }
      ],
      "name": "Unpaused",
      "type": "event"
    },
    {
      "inputs": [],
      "name": "DEFAULT_ADMIN_ROLE",
      "outputs": [
        {
          "internalType": "bytes32",
          "name": "",
          "type": "bytes32"
        }
      ],
      "stateMutability": "view",
      "type": "function",
      "constant": true
    },
    {
      "inputs": [],
      "name": "PAUSER_ROLE",
      "outputs": [
        {
          "internalType": "bytes32",
          "name": "",
          "type": "bytes32"
        }
      ],
      "stateMutability": "view",
      "type": "function",
      "constant": true
    },
    {
      "inputs": [],
      "name": "REFERRAL_UPDATER_ROLE",
      "outputs": [
        {
          "internalType": "bytes32",
          "name": "",
          "type": "bytes32"
        }
      ],
      "stateMutability": "view",
      "type": "function",
      "constant": true
    },
    {
      "inputs": [],
      "name": "SET_REWARD_TOKEN",
      "outputs": [
        {
          "internalType": "bytes32",
          "name": "",
          "type": "bytes32"
        }
      ],
      "stateMutability": "view",
      "type": "function",
      "constant": true
    },
    {
      "inputs": [
        {
          "internalType": "address",
          "name": "",
          "type": "address"
        },
        {
          "internalType": "uint256",
          "name": "",
          "type": "uint256"
        }
      ],
      "name": "accrualHistory",
      "outputs": [
        {
          "internalType": "uint128",
          "name": "amount",
          "type": "uint128"
        },
        {
          "internalType": "address",
          "name": "from",
          "type": "address"
        },
        {
          "internalType": "uint32",
          "name": "timestamp",
          "type": "uint32"
        },
        {
          "internalType": "uint8",
          "name": "action",
          "type": "uint8"
        }
      ],
      "stateMutability": "view",
      "type": "function",
      "constant": true
    },
    {
      "inputs": [
        {
          "internalType": "bytes32",
          "name": "role",
          "type": "bytes32"
        }
      ],
      "name": "getRoleAdmin",
      "outputs": [
        {
          "internalType": "bytes32",
          "name": "",
          "type": "bytes32"
        }
      ],
      "stateMutability": "view",
      "type": "function",
      "constant": true
    },
    {
      "inputs": [
        {
          "internalType": "bytes32",
          "name": "role",
          "type": "bytes32"
        },
        {
          "internalType": "uint256",
          "name": "index",
          "type": "uint256"
        }
      ],
      "name": "getRoleMember",
      "outputs": [
        {
          "internalType": "address",
          "name": "",
          "type": "address"
        }
      ],
      "stateMutability": "view",
      "type": "function",
      "constant": true
    },
    {
      "inputs": [
        {
          "internalType": "bytes32",
          "name": "role",
          "type": "bytes32"
        }
      ],
      "name": "getRoleMemberCount",
      "outputs": [
        {
          "internalType": "uint256",
          "name": "",
          "type": "uint256"
        }
      ],
      "stateMutability": "view",
      "type": "function",
      "constant": true
    },
    {
      "inputs": [
        {
          "internalType": "bytes32",
          "name": "role",
          "type": "bytes32"
        },
        {
          "internalType": "address",
          "name": "account",
          "type": "address"
        }
      ],
      "name": "grantRole",
      "outputs": [],
      "stateMutability": "nonpayable",
      "type": "function"
    },
    {
      "inputs": [
        {
          "internalType": "bytes32",
          "name": "role",
          "type": "bytes32"
        },
        {
          "internalType": "address",
          "name": "account",
          "type": "address"
        }
      ],
      "name": "hasRole",
      "outputs": [
        {
          "internalType": "bool",
          "name": "",
          "type": "bool"
        }
      ],
      "stateMutability": "view",
      "type": "function",
      "constant": true
    },
    {
      "inputs": [],
      "name": "owner",
      "outputs": [
        {
          "internalType": "address",
          "name": "",
          "type": "address"
        }
      ],
      "stateMutability": "view",
      "type": "function",
      "constant": true
    },
    {
      "inputs": [],
      "name": "paused",
      "outputs": [
        {
          "internalType": "bool",
          "name": "",
          "type": "bool"
        }
      ],
      "stateMutability": "view",
      "type": "function",
      "constant": true
    },
    {
      "inputs": [
        {
          "internalType": "address",
          "name": "",
          "type": "address"
        },
        {
          "internalType": "uint256",
          "name": "",
          "type": "uint256"
        }
      ],
      "name": "referrals",
      "outputs": [
        {
          "internalType": "address",
          "name": "account",
          "type": "address"
        },
        {
          "internalType": "uint32",
          "name": "timestamp",
          "type": "uint32"
        }
      ],
      "stateMutability": "view",
      "type": "function",
      "constant": true
    },
    {
      "inputs": [],
      "name": "referrerRewardToken",
      "outputs": [
        {
          "internalType": "address",
          "name": "",
          "type": "address"
        }
      ],
      "stateMutability": "view",
      "type": "function",
      "constant": true
    },
    {
      "inputs": [
        {
          "internalType": "address",
          "name": "",
          "type": "address"
        }
      ],
      "name": "referrers",
      "outputs": [
        {
          "internalType": "address",
          "name": "",
          "type": "address"
        }
      ],
      "stateMutability": "view",
      "type": "function",
      "constant": true
    },
    {
      "inputs": [
        {
          "internalType": "address",
          "name": "",
          "type": "address"
        }
      ],
      "name": "referrersRewards",
      "outputs": [
        {
          "internalType": "uint256",
          "name": "reward",
          "type": "uint256"
        },
        {
          "internalType": "uint256",
          "name": "rewarded",
          "type": "uint256"
        }
      ],
      "stateMutability": "view",
      "type": "function",
      "constant": true
    },
    {
      "inputs": [],
      "name": "renounceOwnership",
      "outputs": [],
      "stateMutability": "nonpayable",
      "type": "function"
    },
    {
      "inputs": [
        {
          "internalType": "bytes32",
          "name": "role",
          "type": "bytes32"
        },
        {
          "internalType": "address",
          "name": "account",
          "type": "address"
        }
      ],
      "name": "renounceRole",
      "outputs": [],
      "stateMutability": "nonpayable",
      "type": "function"
    },
    {
      "inputs": [
        {
          "internalType": "bytes32",
          "name": "role",
          "type": "bytes32"
        },
        {
          "internalType": "address",
          "name": "account",
          "type": "address"
        }
      ],
      "name": "revokeRole",
      "outputs": [],
      "stateMutability": "nonpayable",
      "type": "function"
    },
    {
      "inputs": [
        {
          "internalType": "bytes4",
          "name": "interfaceId",
          "type": "bytes4"
        }
      ],
      "name": "supportsInterface",
      "outputs": [
        {
          "internalType": "bool",
          "name": "",
          "type": "bool"
        }
      ],
      "stateMutability": "view",
      "type": "function",
      "constant": true
    },
    {
      "inputs": [],
      "name": "totalPendingRewards",
      "outputs": [
        {
          "internalType": "uint256",
          "name": "",
          "type": "uint256"
        }
      ],
      "stateMutability": "view",
      "type": "function",
      "constant": true
    },
    {
      "inputs": [
        {
          "internalType": "address",
          "name": "newOwner",
          "type": "address"
        }
      ],
      "name": "transferOwnership",
      "outputs": [],
      "stateMutability": "nonpayable",
      "type": "function"
    },
    {
      "inputs": [
        {
          "internalType": "address",
          "name": "_referrer",
          "type": "address"
        }
      ],
      "name": "referralsLength",
      "outputs": [
        {
          "internalType": "uint256",
          "name": "",
          "type": "uint256"
        }
      ],
      "stateMutability": "view",
      "type": "function",
      "constant": true
    },
    {
      "inputs": [
        {
          "internalType": "address",
          "name": "_referrer",
          "type": "address"
        }
      ],
      "name": "accrualHistoryLength",
      "outputs": [
        {
          "internalType": "uint256",
          "name": "",
          "type": "uint256"
        }
      ],
      "stateMutability": "view",
      "type": "function",
      "constant": true
    },
    {
      "inputs": [
        {
          "internalType": "address",
          "name": "_referrer",
          "type": "address"
        },
        {
          "internalType": "address",
          "name": "_referral",
          "type": "address"
        }
      ],
      "name": "addReferral",
      "outputs": [],
      "stateMutability": "nonpayable",
      "type": "function"
    },
    {
      "inputs": [
        {
          "internalType": "address",
          "name": "_refferal",
          "type": "address"
        },
        {
          "internalType": "uint128",
          "name": "_amount",
          "type": "uint128"
        },
        {
          "internalType": "uint8",
          "name": "_action",
          "type": "uint8"
        }
      ],
      "name": "saveReferrerReward",
      "outputs": [],
      "stateMutability": "nonpayable",
      "type": "function"
    },
    {
      "inputs": [],
      "name": "referrerClaim",
      "outputs": [],
      "stateMutability": "nonpayable",
      "type": "function"
    },
    {
      "inputs": [
        {
          "internalType": "address",
          "name": "_referrerRewardToken",
          "type": "address"
        }
      ],
      "name": "setReferrerRewardToken",
      "outputs": [],
      "stateMutability": "nonpayable",
      "type": "function"
    },
    {
      "inputs": [],
      "name": "pause",
      "outputs": [],
      "stateMutability": "nonpayable",
      "type": "function"
    },
    {
      "inputs": [],
      "name": "unpause",
      "outputs": [],
      "stateMutability": "nonpayable",
      "type": "function"
    }
  ],
  "bytecode": "0x60806040523480156200001157600080fd5b506200001d33620000a1565b60016003556004805460ff1916905562000039600033620000f1565b620000657f276651e6af158cbb6d427690543d19b6eeb3fd8a7b4099e8d6a08b1aa88226e433620000f1565b620000917f65d7a28e3265b37a6474929f336521b332c1681b933f6cb9f3376673440d862a33620000f1565b6200009b62000101565b620002dc565b600080546001600160a01b038381166001600160a01b0319831681178455604051919092169283917f8be0079c531659141344cd1fd0a4f28419497f9722a3daafe3b4186f6b6457e09190a35050565b620000fd82826200019f565b5050565b60045460ff16156200014c5760405162461bcd60e51b815260206004820152601060248201526f14185d5cd8589b194e881c185d5cd95960821b604482015260640160405180910390fd5b6004805460ff191660011790557f62e78cea01bee320cd4e420270b5ea74000d11b0c9f74754ebdbfc544b05a258620001823390565b6040516001600160a01b03909116815260200160405180910390a1565b620001b68282620001e260201b6200102d1760201c565b6000828152600260209081526040909120620001dd918390620010b46200026a821b17901c565b505050565b60008281526001602090815260408083206001600160a01b038516845290915290205460ff16620000fd5760008281526001602081815260408084206001600160a01b0386168086529252808420805460ff19169093179092559051339285917f2f8788117e7eff1d82e926ec794901d17c78024a50270940304540a733656f0d9190a45050565b600062000281836001600160a01b0384166200028a565b90505b92915050565b6000818152600183016020526040812054620002d35750815460018181018455600084815260208082209093018490558454848252828601909352604090209190915562000284565b50600062000284565b611e9280620002ec6000396000f3fe608060405234801561001057600080fd5b50600436106101da5760003560e01c80639010d07c11610104578063b774a549116100a2578063e697b5d811610071578063e697b5d8146104f7578063ec1371f21461052e578063f2fde38b14610537578063fc1520f61461054a57600080fd5b8063b774a54914610481578063ca15c873146104aa578063d547741f146104bd578063e63ab1e9146104d057600080fd5b80639d373a76116100de5780639d373a7614610416578063a217fddf1461043d578063a4d86f8914610445578063a8c36ef01461046e57600080fd5b80639010d07c146103b757806391d14854146103ca578063972628631461040357600080fd5b80634a3b68cc1161017c5780638456cb591161014b5780638456cb591461032457806384ce1ab21461032c578063890f7d991461037f5780638da5cb5b146103a657600080fd5b80634a3b68cc146102ac5780635c975abb146102d557806369bb26ab146102e0578063715018a61461031c57600080fd5b80632f2ff15d116101b85780632f2ff15d1461024e5780633544a8751461026157806336568abe146102915780633f4ba83a146102a457600080fd5b806301ffc9a7146101df5780630b5c3f8714610207578063248a9ca31461021c575b600080fd5b6101f26101ed366004611aed565b610552565b60405190151581526020015b60405180910390f35b61021a610215366004611b33565b610596565b005b61024061022a366004611b66565b6000908152600160208190526040909120015490565b6040519081526020016101fe565b61021a61025c366004611b7f565b6106ea565b6004546102799061010090046001600160a01b031681565b6040516001600160a01b0390911681526020016101fe565b61021a61029f366004611b7f565b610711565b61021a6107a2565b6102796102ba366004611ba2565b6006602052600090815260409020546001600160a01b031681565b60045460ff166101f2565b6103076102ee366004611ba2565b6007602052600090815260409020805460019091015482565b604080519283526020830191909152016101fe565b61021a610848565b61021a6108ac565b61033f61033a366004611bbd565b610950565b604080516001600160801b0390951685526001600160a01b03909316602085015263ffffffff9091169183019190915260ff1660608201526080016101fe565b6102407f276651e6af158cbb6d427690543d19b6eeb3fd8a7b4099e8d6a08b1aa88226e481565b6000546001600160a01b0316610279565b6102796103c5366004611be7565b6109b8565b6101f26103d8366004611b7f565b60009182526001602090815260408084206001600160a01b0393909316845291905290205460ff1690565b61021a610411366004611ba2565b6109d7565b6102407f3238fdaa0147b7ff287420b780d50733e443e74c8868379c1106163e33973b3981565b610240600081565b610240610453366004611ba2565b6001600160a01b031660009081526005602052604090205490565b61021a61047c366004611c09565b610a42565b61024061048f366004611ba2565b6001600160a01b031660009081526008602052604090205490565b6102406104b8366004611b66565b610d3d565b61021a6104cb366004611b7f565b610d54565b6102407f65d7a28e3265b37a6474929f336521b332c1681b933f6cb9f3376673440d862a81565b61050a610505366004611bbd565b610d7b565b604080516001600160a01b03909316835263ffffffff9091166020830152016101fe565b61024060095481565b61021a610545366004611ba2565b610dc1565b61021a610ea3565b60006001600160e01b031982167f5a05180f0000000000000000000000000000000000000000000000000000000014806105905750610590826110c9565b92915050565b7f3238fdaa0147b7ff287420b780d50733e443e74c8868379c1106163e33973b396105c18133611130565b6001600160a01b03828116600090815260066020526040902054166106e5576001600160a01b03831615806106075750816001600160a01b0316836001600160a01b0316145b1561061b576000546001600160a01b031692505b6001600160a01b038281166000818152600660209081526040808320805473ffffffffffffffffffffffffffffffffffffffff1916958916958617905593825260058152908390208351808501909452918352909190810161067c426111b0565b63ffffffff908116909152825460018101845560009384526020938490208351910180549490930151909116600160a01b027fffffffffffffffff0000000000000000000000000000000000000000000000009093166001600160a01b03909116179190911790555b505050565b600082815260016020819052604090912001546107078133611130565b6106e58383611230565b6001600160a01b03811633146107945760405162461bcd60e51b815260206004820152602f60248201527f416363657373436f6e74726f6c3a2063616e206f6e6c792072656e6f756e636560448201527f20726f6c657320666f722073656c66000000000000000000000000000000000060648201526084015b60405180910390fd5b61079e8282611252565b5050565b6107cc7f65d7a28e3265b37a6474929f336521b332c1681b933f6cb9f3376673440d862a336103d8565b61083e5760405162461bcd60e51b815260206004820152603160248201527f526566657272616c536572766963653a206d757374206861766520706175736560448201527f7220726f6c6520746f20756e7061757365000000000000000000000000000000606482015260840161078b565b610846611274565b565b6000546001600160a01b031633146108a25760405162461bcd60e51b815260206004820181905260248201527f4f776e61626c653a2063616c6c6572206973206e6f7420746865206f776e6572604482015260640161078b565b6108466000611310565b6108d67f65d7a28e3265b37a6474929f336521b332c1681b933f6cb9f3376673440d862a336103d8565b6109485760405162461bcd60e51b815260206004820152602f60248201527f526566657272616c536572766963653a206d757374206861766520706175736560448201527f7220726f6c6520746f2070617573650000000000000000000000000000000000606482015260840161078b565b61084661136d565b6008602052816000526040600020818154811061096c57600080fd5b6000918252602090912060029091020180546001909101546001600160801b0390911692506001600160a01b0381169150600160a01b810463ffffffff1690600160c01b900460ff1684565b60008281526002602052604081206109d090836113f5565b9392505050565b7f276651e6af158cbb6d427690543d19b6eeb3fd8a7b4099e8d6a08b1aa88226e4610a028133611130565b50600480546001600160a01b03909216610100027fffffffffffffffffffffff0000000000000000000000000000000000000000ff909216919091179055565b7f3238fdaa0147b7ff287420b780d50733e443e74c8868379c1106163e33973b39610a6d8133611130565b6001600160a01b038085166000908152600660205260409020541680610a9b57506000546001600160a01b03165b836001600160801b031660096000828254610ab69190611c7a565b9091555050600480546040517f70a08231000000000000000000000000000000000000000000000000000000008152309281019290925261010090046001600160a01b0316906370a0823190602401602060405180830381865afa158015610b22573d6000803e3d6000fd5b505050506040513d601f19601f82011682018060405250810190610b469190611c92565b6009541115610bbd5760405162461bcd60e51b815260206004820152602360248201527f526566657272616c536572766963653a204e4f545f454e4f5547485f42414c4160448201527f4e43450000000000000000000000000000000000000000000000000000000000606482015260840161078b565b6001600160a01b038116600090815260076020526040812080546001600160801b0387169290610bee908490611c7a565b9250508190555060086000826001600160a01b03166001600160a01b031681526020019081526020016000206040518060800160405280866001600160801b03168152602001876001600160a01b03168152602001610c4c426111b0565b63ffffffff908116825260ff968716602092830152835460018181018655600095865294839020845160029092020180546001600160801b039092167fffffffffffffffffffffffffffffffff00000000000000000000000000000000909216919091178155918301519190930180546040840151606090940151909716600160c01b027fffffffffffffff00ffffffffffffffffffffffffffffffffffffffffffffffff93909416600160a01b027fffffffffffffffff0000000000000000000000000000000000000000000000009097166001600160a01b039092169190911795909517161790925550505050565b600081815260026020526040812061059090611401565b60008281526001602081905260409091200154610d718133611130565b6106e58383611252565b60056020528160005260406000208181548110610d9757600080fd5b6000918252602090912001546001600160a01b0381169250600160a01b900463ffffffff16905082565b6000546001600160a01b03163314610e1b5760405162461bcd60e51b815260206004820181905260248201527f4f776e61626c653a2063616c6c6572206973206e6f7420746865206f776e6572604482015260640161078b565b6001600160a01b038116610e975760405162461bcd60e51b815260206004820152602660248201527f4f776e61626c653a206e6577206f776e657220697320746865207a65726f206160448201527f6464726573730000000000000000000000000000000000000000000000000000606482015260840161078b565b610ea081611310565b50565b60045460ff1615610ef65760405162461bcd60e51b815260206004820152601060248201527f5061757361626c653a2070617573656400000000000000000000000000000000604482015260640161078b565b60026003541415610f495760405162461bcd60e51b815260206004820152601f60248201527f5265656e7472616e637947756172643a207265656e7472616e742063616c6c00604482015260640161078b565b60026003553360009081526007602052604090206001810154815411610fd75760405162461bcd60e51b815260206004820152602260248201527f526566657272616c536572766963653a204e4f545f454e4f5547485f5245574160448201527f5244000000000000000000000000000000000000000000000000000000000000606482015260840161078b565b60018101548154600091610fea91611cab565b90506110083360045461010090046001600160a01b0316908361140b565b806009600082825461101a9190611cab565b9091555050815460019283015550600355565b60008281526001602090815260408083206001600160a01b038516845290915290205460ff1661079e5760008281526001602081815260408084206001600160a01b0386168086529252808420805460ff19169093179092559051339285917f2f8788117e7eff1d82e926ec794901d17c78024a50270940304540a733656f0d9190a45050565b60006109d0836001600160a01b03841661148b565b60006001600160e01b031982167f7965db0b00000000000000000000000000000000000000000000000000000000148061059057507f01ffc9a7000000000000000000000000000000000000000000000000000000006001600160e01b0319831614610590565b60008281526001602090815260408083206001600160a01b038516845290915290205460ff1661079e5761116e816001600160a01b031660146114da565b6111798360206114da565b60405160200161118a929190611cf2565b60408051601f198184030181529082905262461bcd60e51b825261078b91600401611d73565b600063ffffffff82111561122c5760405162461bcd60e51b815260206004820152602660248201527f53616665436173743a2076616c756520646f65736e27742066697420696e203360448201527f3220626974730000000000000000000000000000000000000000000000000000606482015260840161078b565b5090565b61123a828261102d565b60008281526002602052604090206106e590826110b4565b61125c82826116bb565b60008281526002602052604090206106e5908261173e565b60045460ff166112c65760405162461bcd60e51b815260206004820152601460248201527f5061757361626c653a206e6f7420706175736564000000000000000000000000604482015260640161078b565b6004805460ff191690557f5db9ee0a495bf2e6ff9c91a7834c1ba4fdd244a5e8aa4e537bd38aeae4b073aa335b6040516001600160a01b03909116815260200160405180910390a1565b600080546001600160a01b0383811673ffffffffffffffffffffffffffffffffffffffff19831681178455604051919092169283917f8be0079c531659141344cd1fd0a4f28419497f9722a3daafe3b4186f6b6457e09190a35050565b60045460ff16156113c05760405162461bcd60e51b815260206004820152601060248201527f5061757361626c653a2070617573656400000000000000000000000000000000604482015260640161078b565b6004805460ff191660011790557f62e78cea01bee320cd4e420270b5ea74000d11b0c9f74754ebdbfc544b05a2586112f33390565b60006109d08383611753565b6000610590825490565b604080516001600160a01b038416602482015260448082018490528251808303909101815260649091019091526020810180517bffffffffffffffffffffffffffffffffffffffffffffffffffffffff167fa9059cbb000000000000000000000000000000000000000000000000000000001790526106e590849061177d565b60008181526001830160205260408120546114d257508154600181810184556000848152602080822090930184905584548482528286019093526040902091909155610590565b506000610590565b606060006114e9836002611da6565b6114f4906002611c7a565b67ffffffffffffffff81111561150c5761150c611dc5565b6040519080825280601f01601f191660200182016040528015611536576020820181803683370190505b5090507f30000000000000000000000000000000000000000000000000000000000000008160008151811061156d5761156d611ddb565b60200101906001600160f81b031916908160001a9053507f7800000000000000000000000000000000000000000000000000000000000000816001815181106115b8576115b8611ddb565b60200101906001600160f81b031916908160001a90535060006115dc846002611da6565b6115e7906001611c7a565b90505b600181111561166c577f303132333435363738396162636465660000000000000000000000000000000085600f166010811061162857611628611ddb565b1a60f81b82828151811061163e5761163e611ddb565b60200101906001600160f81b031916908160001a90535060049490941c9361166581611df1565b90506115ea565b5083156109d05760405162461bcd60e51b815260206004820181905260248201527f537472696e67733a20686578206c656e67746820696e73756666696369656e74604482015260640161078b565b60008281526001602090815260408083206001600160a01b038516845290915290205460ff161561079e5760008281526001602090815260408083206001600160a01b0385168085529252808320805460ff1916905551339285917ff6391f5c32d9c69d2a47ea670b442974b53935d1edc7fd64eb21e047a839171b9190a45050565b60006109d0836001600160a01b038416611862565b600082600001828154811061176a5761176a611ddb565b9060005260206000200154905092915050565b60006117d2826040518060400160405280602081526020017f5361666545524332303a206c6f772d6c6576656c2063616c6c206661696c6564815250856001600160a01b03166119559092919063ffffffff16565b8051909150156106e557808060200190518101906117f09190611e08565b6106e55760405162461bcd60e51b815260206004820152602a60248201527f5361666545524332303a204552433230206f7065726174696f6e20646964206e60448201527f6f74207375636365656400000000000000000000000000000000000000000000606482015260840161078b565b6000818152600183016020526040812054801561194b576000611886600183611cab565b855490915060009061189a90600190611cab565b90508181146118ff5760008660000182815481106118ba576118ba611ddb565b90600052602060002001549050808760000184815481106118dd576118dd611ddb565b6000918252602080832090910192909255918252600188019052604090208390555b855486908061191057611910611e2a565b600190038181906000526020600020016000905590558560010160008681526020019081526020016000206000905560019350505050610590565b6000915050610590565b6060611964848460008561196c565b949350505050565b6060824710156119e45760405162461bcd60e51b815260206004820152602660248201527f416464726573733a20696e73756666696369656e742062616c616e636520666f60448201527f722063616c6c0000000000000000000000000000000000000000000000000000606482015260840161078b565b6001600160a01b0385163b611a3b5760405162461bcd60e51b815260206004820152601d60248201527f416464726573733a2063616c6c20746f206e6f6e2d636f6e7472616374000000604482015260640161078b565b600080866001600160a01b03168587604051611a579190611e40565b60006040518083038185875af1925050503d8060008114611a94576040519150601f19603f3d011682016040523d82523d6000602084013e611a99565b606091505b5091509150611aa9828286611ab4565b979650505050505050565b60608315611ac35750816109d0565b825115611ad35782518084602001fd5b8160405162461bcd60e51b815260040161078b9190611d73565b600060208284031215611aff57600080fd5b81356001600160e01b0319811681146109d057600080fd5b80356001600160a01b0381168114611b2e57600080fd5b919050565b60008060408385031215611b4657600080fd5b611b4f83611b17565b9150611b5d60208401611b17565b90509250929050565b600060208284031215611b7857600080fd5b5035919050565b60008060408385031215611b9257600080fd5b82359150611b5d60208401611b17565b600060208284031215611bb457600080fd5b6109d082611b17565b60008060408385031215611bd057600080fd5b611bd983611b17565b946020939093013593505050565b60008060408385031215611bfa57600080fd5b50508035926020909101359150565b600080600060608486031215611c1e57600080fd5b611c2784611b17565b925060208401356001600160801b0381168114611c4357600080fd5b9150604084013560ff81168114611c5957600080fd5b809150509250925092565b634e487b7160e01b600052601160045260246000fd5b60008219821115611c8d57611c8d611c64565b500190565b600060208284031215611ca457600080fd5b5051919050565b600082821015611cbd57611cbd611c64565b500390565b60005b83811015611cdd578181015183820152602001611cc5565b83811115611cec576000848401525b50505050565b7f416363657373436f6e74726f6c3a206163636f756e7420000000000000000000815260008351611d2a816017850160208801611cc2565b7f206973206d697373696e6720726f6c65200000000000000000000000000000006017918401918201528351611d67816028840160208801611cc2565b01602801949350505050565b6020815260008251806020840152611d92816040850160208701611cc2565b601f01601f19169190910160400192915050565b6000816000190483118215151615611dc057611dc0611c64565b500290565b634e487b7160e01b600052604160045260246000fd5b634e487b7160e01b600052603260045260246000fd5b600081611e0057611e00611c64565b506000190190565b600060208284031215611e1a57600080fd5b815180151581146109d057600080fd5b634e487b7160e01b600052603160045260246000fd5b60008251611e52818460208701611cc2565b919091019291505056fea26469706673582212203857a86d02c34616ec4953c4d5fc6e007e695fb15d3e4c2aabe5204c053a2b4064736f6c634300080c0033",
  "immutableReferences": {},
  "source": "// SPDX-License-Identifier: MIT\npragma solidity 0.8.12;\nimport \"@openzeppelin/contracts/utils/Context.sol\";\nimport \"@openzeppelin/contracts/access/Ownable.sol\";\nimport \"@openzeppelin/contracts/access/AccessControlEnumerable.sol\";\nimport \"@openzeppelin/contracts/utils/math/SafeCast.sol\";\nimport \"@openzeppelin/contracts/security/ReentrancyGuard.sol\";\nimport \"@openzeppelin/contracts/token/ERC20/utils/SafeERC20.sol\";\nimport \"@openzeppelin/contracts/token/ERC20/IERC20.sol\";\nimport \"@openzeppelin/contracts/security/Pausable.sol\";\n\ncontract ReferralService is Context, Ownable, AccessControlEnumerable, ReentrancyGuard, Pausable {\n  using SafeCast for uint256;\n  using SafeERC20 for IERC20;\n\n  struct ReferrerReward {\n    uint256 reward;\n    uint256 rewarded;\n  }\n\n  struct AccrualHistory {\n    uint128 amount;\n    address from;\n    uint32 timestamp;\n    uint8 action;\n  }\n\n  struct Referral {\n    address account;\n    uint32 timestamp;\n  }\n\n  /**\n    * @dev earning token address\n    */\n  address public referrerRewardToken;\n\n  /**\n    * @dev referrer to referrals\n    */\n  mapping(address => Referral[]) public referrals;\n\n  /**\n    * @dev referral to referrer\n    */\n  mapping(address => address) public referrers;\n\n  /**\n    * @dev referrer to reward\n    */\n  mapping(address => ReferrerReward) public referrersRewards;\n\n  /**\n    * @dev referrer to accrual history\n    */\n  mapping(address => AccrualHistory[]) public accrualHistory;\n\n  bytes32 public constant REFERRAL_UPDATER_ROLE = keccak256(\"REFERRAL_UPDATER_ROLE\");\n  bytes32 public constant SET_REWARD_TOKEN = keccak256(\"SET_REWARD_TOKEN\");\n  bytes32 public constant PAUSER_ROLE = keccak256(\"PAUSER_ROLE\");\n\n  /**\n   * @dev Total pending rewards\n   */\n  uint256 public totalPendingRewards;\n\n  constructor() {\n    _setupRole(DEFAULT_ADMIN_ROLE, _msgSender());\n    _setupRole(SET_REWARD_TOKEN, _msgSender());\n    _setupRole(PAUSER_ROLE, _msgSender());\n\n    _pause();\n  }\n\n  /**\n   * @dev For ui\n   * @dev Returns number of referrals\n   */\n  function referralsLength(address _referrer) public view returns(uint256) {\n    return referrals[_referrer].length;\n  }\n\n  /**\n   * @dev For ui\n   * @dev Returns number of accrual history items\n   */\n  function accrualHistoryLength(address _referrer) public view returns(uint256) {\n    return accrualHistory[_referrer].length;\n  }\n\n  function addReferral(address _referrer, address _referral) external onlyRole(REFERRAL_UPDATER_ROLE) {\n    if (referrers[_referral] == address(0)) {\n      if (_referrer == address(0) || _referrer == _referral) {\n        _referrer = owner();\n      }\n\n      referrers[_referral] = _referrer;\n      referrals[_referrer].push(\n        Referral(\n          _referral,\n          block.timestamp.toUint32()\n        )\n      );\n    }\n  }\n\n  function saveReferrerReward(address _refferal, uint128 _amount, uint8 _action) external onlyRole(REFERRAL_UPDATER_ROLE) {\n    address referrer = referrers[_refferal];\n\n    if (referrer == address(0)) {\n      referrer = owner();\n    }\n\n    totalPendingRewards += _amount;\n\n    require(totalPendingRewards <= IERC20(referrerRewardToken).balanceOf(address(this)), 'ReferralService: NOT_ENOUGH_BALANCE');\n\n    referrersRewards[referrer].reward += _amount;\n    accrualHistory[referrer].push(\n      AccrualHistory(\n        _amount,\n        _refferal,\n        block.timestamp.toUint32(),\n        _action\n      )\n    );\n  }\n\n  function referrerClaim() public whenNotPaused nonReentrant {\n    ReferrerReward storage referrerReward = referrersRewards[_msgSender()];\n\n    require(referrerReward.reward > referrerReward.rewarded, \"ReferralService: NOT_ENOUGH_REWARD\");\n\n    uint256 amount = referrerReward.reward - referrerReward.rewarded;\n    \n    IERC20(referrerRewardToken).safeTransfer(_msgSender(), amount);\n    totalPendingRewards -= amount;\n\n    referrerReward.rewarded = referrerReward.reward;\n  }\n\n  function setReferrerRewardToken(address _referrerRewardToken) public onlyRole(SET_REWARD_TOKEN) {\n    referrerRewardToken = _referrerRewardToken;\n  }\n\n  /**\n    * @dev Pauses all token transfers.\n    *\n    * See {ERC20Pausable} and {Pausable-_pause}.\n    *\n    * Requirements:\n    *\n    * - the caller must have the `PAUSER_ROLE`.\n    */\n  function pause() public {\n    require(hasRole(PAUSER_ROLE, _msgSender()), \"ReferralService: must have pauser role to pause\");\n    _pause();\n  }\n\n  /**\n    * @dev Unpauses all token transfers.\n    *\n    * See {ERC20Pausable} and {Pausable-_unpause}.\n    *\n    * Requirements:\n    *\n    * - the caller must have the `PAUSER_ROLE`.\n    */\n  function unpause() public {\n    require(hasRole(PAUSER_ROLE, _msgSender()), \"ReferralService: must have pauser role to unpause\");\n    _unpause();\n  }\n}\n",
  "sourcePath": "/Users/vyacheslav/Documents/solar.finance/contracts/contracts/ReferralService.sol",
  "compiler": {
    "name": "solc",
    "version": "0.8.12+commit.f00d7308.Emscripten.clang"
  },
  "schemaVersion": "3.4.5",
  "updatedAt": "2022-05-24T20:51:13.055Z",
  "networkType": "ethereum",
  "devdoc": {
    "kind": "dev",
    "methods": {
      "accrualHistoryLength(address)": {
        "details": "For uiReturns number of accrual history items"
      },
      "getRoleAdmin(bytes32)": {
        "details": "Returns the admin role that controls `role`. See {grantRole} and {revokeRole}. To change a role's admin, use {_setRoleAdmin}."
      },
      "getRoleMember(bytes32,uint256)": {
        "details": "Returns one of the accounts that have `role`. `index` must be a value between 0 and {getRoleMemberCount}, non-inclusive. Role bearers are not sorted in any particular way, and their ordering may change at any point. WARNING: When using {getRoleMember} and {getRoleMemberCount}, make sure you perform all queries on the same block. See the following https://forum.openzeppelin.com/t/iterating-over-elements-on-enumerableset-in-openzeppelin-contracts/2296[forum post] for more information."
      },
      "getRoleMemberCount(bytes32)": {
        "details": "Returns the number of accounts that have `role`. Can be used together with {getRoleMember} to enumerate all bearers of a role."
      },
      "grantRole(bytes32,address)": {
        "details": "Grants `role` to `account`. If `account` had not been already granted `role`, emits a {RoleGranted} event. Requirements: - the caller must have ``role``'s admin role."
      },
      "hasRole(bytes32,address)": {
        "details": "Returns `true` if `account` has been granted `role`."
      },
      "owner()": {
        "details": "Returns the address of the current owner."
      },
      "pause()": {
        "details": "Pauses all token transfers. See {ERC20Pausable} and {Pausable-_pause}. Requirements: - the caller must have the `PAUSER_ROLE`."
      },
      "paused()": {
        "details": "Returns true if the contract is paused, and false otherwise."
      },
      "referralsLength(address)": {
        "details": "For uiReturns number of referrals"
      },
      "renounceOwnership()": {
        "details": "Leaves the contract without owner. It will not be possible to call `onlyOwner` functions anymore. Can only be called by the current owner. NOTE: Renouncing ownership will leave the contract without an owner, thereby removing any functionality that is only available to the owner."
      },
      "renounceRole(bytes32,address)": {
        "details": "Revokes `role` from the calling account. Roles are often managed via {grantRole} and {revokeRole}: this function's purpose is to provide a mechanism for accounts to lose their privileges if they are compromised (such as when a trusted device is misplaced). If the calling account had been revoked `role`, emits a {RoleRevoked} event. Requirements: - the caller must be `account`."
      },
      "revokeRole(bytes32,address)": {
        "details": "Revokes `role` from `account`. If `account` had been granted `role`, emits a {RoleRevoked} event. Requirements: - the caller must have ``role``'s admin role."
      },
      "supportsInterface(bytes4)": {
        "details": "See {IERC165-supportsInterface}."
      },
      "transferOwnership(address)": {
        "details": "Transfers ownership of the contract to a new account (`newOwner`). Can only be called by the current owner."
      },
      "unpause()": {
        "details": "Unpauses all token transfers. See {ERC20Pausable} and {Pausable-_unpause}. Requirements: - the caller must have the `PAUSER_ROLE`."
      }
    },
    "stateVariables": {
      "accrualHistory": {
        "details": "referrer to accrual history"
      },
      "referrals": {
        "details": "referrer to referrals"
      },
      "referrerRewardToken": {
        "details": "earning token address"
      },
      "referrers": {
        "details": "referral to referrer"
      },
      "referrersRewards": {
        "details": "referrer to reward"
      },
      "totalPendingRewards": {
        "details": "Total pending rewards"
      }
    },
    "version": 1
  },
  "userdoc": {
    "kind": "user",
    "methods": {},
    "version": 1
  }
}