{
  "contractName": "SolarToken",
  "abi": [
    {
      "inputs": [
        {
          "internalType": "address",
          "name": "_factoryAddress",
          "type": "address"
        },
        {
          "internalType": "address",
          "name": "_pairedTokenAddress",
          "type": "address"
        }
      ],
      "stateMutability": "nonpayable",
      "type": "constructor"
    },
    {
      "anonymous": false,
      "inputs": [
        {
          "indexed": true,
          "internalType": "address",
          "name": "owner",
          "type": "address"
        },
        {
          "indexed": true,
          "internalType": "address",
          "name": "spender",
          "type": "address"
        },
        {
          "indexed": false,
          "internalType": "uint256",
          "name": "value",
          "type": "uint256"
        }
      ],
      "name": "Approval",
      "type": "event"
    },
    {
      "anonymous": false,
      "inputs": [
        {
          "indexed": false,
          "internalType": "address",
          "name": "account",
          "type": "address"
        }
      ],
      "name": "ExcludeFromAntiWhale",
      "type": "event"
    },
    {
      "anonymous": false,
      "inputs": [
        {
          "indexed": false,
          "internalType": "address",
          "name": "account",
          "type": "address"
        }
      ],
      "name": "ExcludeFromFee",
      "type": "event"
    },
    {
      "anonymous": false,
      "inputs": [
        {
          "indexed": false,
          "internalType": "address",
          "name": "account",
          "type": "address"
        }
      ],
      "name": "IncludeInAntiWhale",
      "type": "event"
    },
    {
      "anonymous": false,
      "inputs": [
        {
          "indexed": false,
          "internalType": "address",
          "name": "account",
          "type": "address"
        }
      ],
      "name": "IncludeInFee",
      "type": "event"
    },
    {
      "anonymous": false,
      "inputs": [
        {
          "indexed": true,
          "internalType": "address",
          "name": "previousOwner",
          "type": "address"
        },
        {
          "indexed": true,
          "internalType": "address",
          "name": "newOwner",
          "type": "address"
        }
      ],
      "name": "OwnershipTransferred",
      "type": "event"
    },
    {
      "anonymous": false,
      "inputs": [
        {
          "indexed": true,
          "internalType": "bytes32",
          "name": "role",
          "type": "bytes32"
        },
        {
          "indexed": true,
          "internalType": "bytes32",
          "name": "previousAdminRole",
          "type": "bytes32"
        },
        {
          "indexed": true,
          "internalType": "bytes32",
          "name": "newAdminRole",
          "type": "bytes32"
        }
      ],
      "name": "RoleAdminChanged",
      "type": "event"
    },
    {
      "anonymous": false,
      "inputs": [
        {
          "indexed": true,
          "internalType": "bytes32",
          "name": "role",
          "type": "bytes32"
        },
        {
          "indexed": true,
          "internalType": "address",
          "name": "account",
          "type": "address"
        },
        {
          "indexed": true,
          "internalType": "address",
          "name": "sender",
          "type": "address"
        }
      ],
      "name": "RoleGranted",
      "type": "event"
    },
    {
      "anonymous": false,
      "inputs": [
        {
          "indexed": true,
          "internalType": "bytes32",
          "name": "role",
          "type": "bytes32"
        },
        {
          "indexed": true,
          "internalType": "address",
          "name": "account",
          "type": "address"
        },
        {
          "indexed": true,
          "internalType": "address",
          "name": "sender",
          "type": "address"
        }
      ],
      "name": "RoleRevoked",
      "type": "event"
    },
    {
      "anonymous": false,
      "inputs": [
        {
          "indexed": false,
          "internalType": "uint256",
          "name": "amountIn",
          "type": "uint256"
        },
        {
          "indexed": false,
          "internalType": "uint256",
          "name": "amountOut",
          "type": "uint256"
        },
        {
          "indexed": true,
          "internalType": "address",
          "name": "milkyWayAddress",
          "type": "address"
        }
      ],
      "name": "SellTax",
      "type": "event"
    },
    {
      "anonymous": false,
      "inputs": [
        {
          "indexed": false,
          "internalType": "address",
          "name": "milkyWayAddress",
          "type": "address"
        }
      ],
      "name": "SetMilkyWayAddress",
      "type": "event"
    },
    {
      "anonymous": false,
      "inputs": [
        {
          "indexed": false,
          "internalType": "address",
          "name": "referralServiceAddress",
          "type": "address"
        }
      ],
      "name": "SetReferralServiceAddress",
      "type": "event"
    },
    {
      "anonymous": false,
      "inputs": [
        {
          "indexed": true,
          "internalType": "address",
          "name": "from",
          "type": "address"
        },
        {
          "indexed": true,
          "internalType": "address",
          "name": "to",
          "type": "address"
        },
        {
          "indexed": false,
          "internalType": "uint256",
          "name": "value",
          "type": "uint256"
        }
      ],
      "name": "Transfer",
      "type": "event"
    },
    {
      "anonymous": false,
      "inputs": [
        {
          "indexed": false,
          "internalType": "uint256",
          "name": "newAmount",
          "type": "uint256"
        }
      ],
      "name": "UpdateMaxTxAmount",
      "type": "event"
    },
    {
      "anonymous": false,
      "inputs": [
        {
          "indexed": false,
          "internalType": "uint256",
          "name": "fee",
          "type": "uint256"
        }
      ],
      "name": "UpdatePairSwapFee",
      "type": "event"
    },
    {
      "anonymous": false,
      "inputs": [
        {
          "indexed": false,
          "internalType": "uint256",
          "name": "newMinAmount",
          "type": "uint256"
        },
        {
          "indexed": false,
          "internalType": "uint256",
          "name": "maxMinAmount",
          "type": "uint256"
        }
      ],
      "name": "UpdateSellAmounts",
      "type": "event"
    },
    {
      "anonymous": false,
      "inputs": [
        {
          "indexed": false,
          "internalType": "uint256",
          "name": "fee",
          "type": "uint256"
        }
      ],
      "name": "UpdateTaxBuyFee",
      "type": "event"
    },
    {
      "anonymous": false,
      "inputs": [
        {
          "indexed": false,
          "internalType": "uint256",
          "name": "fee",
          "type": "uint256"
        }
      ],
      "name": "UpdateTaxSellFee",
      "type": "event"
    },
    {
      "anonymous": false,
      "inputs": [
        {
          "indexed": false,
          "internalType": "uint256",
          "name": "fee",
          "type": "uint256"
        }
      ],
      "name": "UpdateTaxTransferFee",
      "type": "event"
    },
    {
      "inputs": [],
      "name": "DEFAULT_ADMIN_ROLE",
      "outputs": [
        {
          "internalType": "bytes32",
          "name": "",
          "type": "bytes32"
        }
      ],
      "stateMutability": "view",
      "type": "function",
      "constant": true
    },
    {
      "inputs": [],
      "name": "MINTER_ROLE",
      "outputs": [
        {
          "internalType": "bytes32",
          "name": "",
          "type": "bytes32"
        }
      ],
      "stateMutability": "view",
      "type": "function",
      "constant": true
    },
    {
      "inputs": [],
      "name": "MIN_TX_AMOUNT_HARD_CAP",
      "outputs": [
        {
          "internalType": "uint256",
          "name": "",
          "type": "uint256"
        }
      ],
      "stateMutability": "view",
      "type": "function",
      "constant": true
    },
    {
      "inputs": [
        {
          "internalType": "address",
          "name": "owner",
          "type": "address"
        },
        {
          "internalType": "address",
          "name": "spender",
          "type": "address"
        }
      ],
      "name": "allowance",
      "outputs": [
        {
          "internalType": "uint256",
          "name": "",
          "type": "uint256"
        }
      ],
      "stateMutability": "view",
      "type": "function",
      "constant": true
    },
    {
      "inputs": [
        {
          "internalType": "address",
          "name": "spender",
          "type": "address"
        },
        {
          "internalType": "uint256",
          "name": "amount",
          "type": "uint256"
        }
      ],
      "name": "approve",
      "outputs": [
        {
          "internalType": "bool",
          "name": "",
          "type": "bool"
        }
      ],
      "stateMutability": "nonpayable",
      "type": "function"
    },
    {
      "inputs": [
        {
          "internalType": "address",
          "name": "account",
          "type": "address"
        }
      ],
      "name": "balanceOf",
      "outputs": [
        {
          "internalType": "uint256",
          "name": "",
          "type": "uint256"
        }
      ],
      "stateMutability": "view",
      "type": "function",
      "constant": true
    },
    {
      "inputs": [],
      "name": "decimals",
      "outputs": [
        {
          "internalType": "uint8",
          "name": "",
          "type": "uint8"
        }
      ],
      "stateMutability": "view",
      "type": "function",
      "constant": true
    },
    {
      "inputs": [
        {
          "internalType": "address",
          "name": "spender",
          "type": "address"
        },
        {
          "internalType": "uint256",
          "name": "subtractedValue",
          "type": "uint256"
        }
      ],
      "name": "decreaseAllowance",
      "outputs": [
        {
          "internalType": "bool",
          "name": "",
          "type": "bool"
        }
      ],
      "stateMutability": "nonpayable",
      "type": "function"
    },
    {
      "inputs": [
        {
          "internalType": "bytes32",
          "name": "role",
          "type": "bytes32"
        }
      ],
      "name": "getRoleAdmin",
      "outputs": [
        {
          "internalType": "bytes32",
          "name": "",
          "type": "bytes32"
        }
      ],
      "stateMutability": "view",
      "type": "function",
      "constant": true
    },
    {
      "inputs": [
        {
          "internalType": "bytes32",
          "name": "role",
          "type": "bytes32"
        },
        {
          "internalType": "uint256",
          "name": "index",
          "type": "uint256"
        }
      ],
      "name": "getRoleMember",
      "outputs": [
        {
          "internalType": "address",
          "name": "",
          "type": "address"
        }
      ],
      "stateMutability": "view",
      "type": "function",
      "constant": true
    },
    {
      "inputs": [
        {
          "internalType": "bytes32",
          "name": "role",
          "type": "bytes32"
        }
      ],
      "name": "getRoleMemberCount",
      "outputs": [
        {
          "internalType": "uint256",
          "name": "",
          "type": "uint256"
        }
      ],
      "stateMutability": "view",
      "type": "function",
      "constant": true
    },
    {
      "inputs": [
        {
          "internalType": "bytes32",
          "name": "role",
          "type": "bytes32"
        },
        {
          "internalType": "address",
          "name": "account",
          "type": "address"
        }
      ],
      "name": "grantRole",
      "outputs": [],
      "stateMutability": "nonpayable",
      "type": "function"
    },
    {
      "inputs": [
        {
          "internalType": "bytes32",
          "name": "role",
          "type": "bytes32"
        },
        {
          "internalType": "address",
          "name": "account",
          "type": "address"
        }
      ],
      "name": "hasRole",
      "outputs": [
        {
          "internalType": "bool",
          "name": "",
          "type": "bool"
        }
      ],
      "stateMutability": "view",
      "type": "function",
      "constant": true
    },
    {
      "inputs": [
        {
          "internalType": "address",
          "name": "spender",
          "type": "address"
        },
        {
          "internalType": "uint256",
          "name": "addedValue",
          "type": "uint256"
        }
      ],
      "name": "increaseAllowance",
      "outputs": [
        {
          "internalType": "bool",
          "name": "",
          "type": "bool"
        }
      ],
      "stateMutability": "nonpayable",
      "type": "function"
    },
    {
      "inputs": [],
      "name": "maxAmountToSell",
      "outputs": [
        {
          "internalType": "uint256",
          "name": "",
          "type": "uint256"
        }
      ],
      "stateMutability": "view",
      "type": "function",
      "constant": true
    },
    {
      "inputs": [],
      "name": "maxTxAmount",
      "outputs": [
        {
          "internalType": "uint256",
          "name": "",
          "type": "uint256"
        }
      ],
      "stateMutability": "view",
      "type": "function",
      "constant": true
    },
    {
      "inputs": [],
      "name": "milkyWayAddress",
      "outputs": [
        {
          "internalType": "address",
          "name": "",
          "type": "address"
        }
      ],
      "stateMutability": "view",
      "type": "function",
      "constant": true
    },
    {
      "inputs": [],
      "name": "minAmountToSell",
      "outputs": [
        {
          "internalType": "uint256",
          "name": "",
          "type": "uint256"
        }
      ],
      "stateMutability": "view",
      "type": "function",
      "constant": true
    },
    {
      "inputs": [],
      "name": "name",
      "outputs": [
        {
          "internalType": "string",
          "name": "",
          "type": "string"
        }
      ],
      "stateMutability": "view",
      "type": "function",
      "constant": true
    },
    {
      "inputs": [],
      "name": "owner",
      "outputs": [
        {
          "internalType": "address",
          "name": "",
          "type": "address"
        }
      ],
      "stateMutability": "view",
      "type": "function",
      "constant": true
    },
    {
      "inputs": [],
      "name": "pairAddress",
      "outputs": [
        {
          "internalType": "address",
          "name": "",
          "type": "address"
        }
      ],
      "stateMutability": "view",
      "type": "function",
      "constant": true
    },
    {
      "inputs": [],
      "name": "pairSwapFee",
      "outputs": [
        {
          "internalType": "uint256",
          "name": "",
          "type": "uint256"
        }
      ],
      "stateMutability": "view",
      "type": "function",
      "constant": true
    },
    {
      "inputs": [],
      "name": "pairedTokenAddress",
      "outputs": [
        {
          "internalType": "address",
          "name": "",
          "type": "address"
        }
      ],
      "stateMutability": "view",
      "type": "function",
      "constant": true
    },
    {
      "inputs": [],
      "name": "referralBuyTaxFee",
      "outputs": [
        {
          "internalType": "uint8",
          "name": "",
          "type": "uint8"
        }
      ],
      "stateMutability": "view",
      "type": "function",
      "constant": true
    },
    {
      "inputs": [],
      "name": "referralSellTaxFee",
      "outputs": [
        {
          "internalType": "uint8",
          "name": "",
          "type": "uint8"
        }
      ],
      "stateMutability": "view",
      "type": "function",
      "constant": true
    },
    {
      "inputs": [],
      "name": "referralServiceAddress",
      "outputs": [
        {
          "internalType": "address",
          "name": "",
          "type": "address"
        }
      ],
      "stateMutability": "view",
      "type": "function",
      "constant": true
    },
    {
      "inputs": [],
      "name": "referralTransferTaxFee",
      "outputs": [
        {
          "internalType": "uint8",
          "name": "",
          "type": "uint8"
        }
      ],
      "stateMutability": "view",
      "type": "function",
      "constant": true
    },
    {
      "inputs": [],
      "name": "renounceOwnership",
      "outputs": [],
      "stateMutability": "nonpayable",
      "type": "function"
    },
    {
      "inputs": [
        {
          "internalType": "bytes32",
          "name": "role",
          "type": "bytes32"
        },
        {
          "internalType": "address",
          "name": "account",
          "type": "address"
        }
      ],
      "name": "renounceRole",
      "outputs": [],
      "stateMutability": "nonpayable",
      "type": "function"
    },
    {
      "inputs": [
        {
          "internalType": "bytes32",
          "name": "role",
          "type": "bytes32"
        },
        {
          "internalType": "address",
          "name": "account",
          "type": "address"
        }
      ],
      "name": "revokeRole",
      "outputs": [],
      "stateMutability": "nonpayable",
      "type": "function"
    },
    {
      "inputs": [
        {
          "internalType": "bytes4",
          "name": "interfaceId",
          "type": "bytes4"
        }
      ],
      "name": "supportsInterface",
      "outputs": [
        {
          "internalType": "bool",
          "name": "",
          "type": "bool"
        }
      ],
      "stateMutability": "view",
      "type": "function",
      "constant": true
    },
    {
      "inputs": [],
      "name": "symbol",
      "outputs": [
        {
          "internalType": "string",
          "name": "",
          "type": "string"
        }
      ],
      "stateMutability": "view",
      "type": "function",
      "constant": true
    },
    {
      "inputs": [],
      "name": "taxBuyFee",
      "outputs": [
        {
          "internalType": "uint256",
          "name": "",
          "type": "uint256"
        }
      ],
      "stateMutability": "view",
      "type": "function",
      "constant": true
    },
    {
      "inputs": [],
      "name": "taxSellFee",
      "outputs": [
        {
          "internalType": "uint256",
          "name": "",
          "type": "uint256"
        }
      ],
      "stateMutability": "view",
      "type": "function",
      "constant": true
    },
    {
      "inputs": [],
      "name": "taxTransferFee",
      "outputs": [
        {
          "internalType": "uint256",
          "name": "",
          "type": "uint256"
        }
      ],
      "stateMutability": "view",
      "type": "function",
      "constant": true
    },
    {
      "inputs": [],
      "name": "totalSupply",
      "outputs": [
        {
          "internalType": "uint256",
          "name": "",
          "type": "uint256"
        }
      ],
      "stateMutability": "view",
      "type": "function",
      "constant": true
    },
    {
      "inputs": [
        {
          "internalType": "address",
          "name": "newOwner",
          "type": "address"
        }
      ],
      "name": "transferOwnership",
      "outputs": [],
      "stateMutability": "nonpayable",
      "type": "function"
    },
    {
      "inputs": [
        {
          "internalType": "address",
          "name": "to",
          "type": "address"
        },
        {
          "internalType": "uint256",
          "name": "amount",
          "type": "uint256"
        }
      ],
      "name": "mint",
      "outputs": [],
      "stateMutability": "nonpayable",
      "type": "function"
    },
    {
      "inputs": [],
      "name": "milkyWay",
      "outputs": [],
      "stateMutability": "nonpayable",
      "type": "function"
    },
    {
      "inputs": [
        {
          "internalType": "address",
          "name": "_to",
          "type": "address"
        },
        {
          "internalType": "uint256",
          "name": "_amount",
          "type": "uint256"
        }
      ],
      "name": "transfer",
      "outputs": [
        {
          "internalType": "bool",
          "name": "",
          "type": "bool"
        }
      ],
      "stateMutability": "nonpayable",
      "type": "function"
    },
    {
      "inputs": [
        {
          "internalType": "address",
          "name": "_from",
          "type": "address"
        },
        {
          "internalType": "address",
          "name": "_to",
          "type": "address"
        },
        {
          "internalType": "uint256",
          "name": "_amount",
          "type": "uint256"
        }
      ],
      "name": "transferFrom",
      "outputs": [
        {
          "internalType": "bool",
          "name": "",
          "type": "bool"
        }
      ],
      "stateMutability": "nonpayable",
      "type": "function"
    },
    {
      "inputs": [
        {
          "internalType": "uint256",
          "name": "_fee",
          "type": "uint256"
        }
      ],
      "name": "setTaxTransferFee",
      "outputs": [],
      "stateMutability": "nonpayable",
      "type": "function"
    },
    {
      "inputs": [
        {
          "internalType": "uint256",
          "name": "_fee",
          "type": "uint256"
        }
      ],
      "name": "setTaxSellFee",
      "outputs": [],
      "stateMutability": "nonpayable",
      "type": "function"
    },
    {
      "inputs": [
        {
          "internalType": "uint256",
          "name": "_fee",
          "type": "uint256"
        }
      ],
      "name": "setTaxBuyFee",
      "outputs": [],
      "stateMutability": "nonpayable",
      "type": "function"
    },
    {
      "inputs": [
        {
          "internalType": "address",
          "name": "_address",
          "type": "address"
        }
      ],
      "name": "setMilkyWayAddress",
      "outputs": [],
      "stateMutability": "nonpayable",
      "type": "function"
    },
    {
      "inputs": [
        {
          "internalType": "address",
          "name": "_address",
          "type": "address"
        }
      ],
      "name": "setReferralServiceAddress",
      "outputs": [],
      "stateMutability": "nonpayable",
      "type": "function"
    },
    {
      "inputs": [
        {
          "internalType": "address",
          "name": "_account",
          "type": "address"
        }
      ],
      "name": "isExcludedFromFee",
      "outputs": [
        {
          "internalType": "bool",
          "name": "",
          "type": "bool"
        }
      ],
      "stateMutability": "view",
      "type": "function",
      "constant": true
    },
    {
      "inputs": [
        {
          "internalType": "address",
          "name": "_account",
          "type": "address"
        }
      ],
      "name": "excludeFromFee",
      "outputs": [],
      "stateMutability": "nonpayable",
      "type": "function"
    },
    {
      "inputs": [
        {
          "internalType": "address",
          "name": "_account",
          "type": "address"
        }
      ],
      "name": "includeInFee",
      "outputs": [],
      "stateMutability": "nonpayable",
      "type": "function"
    },
    {
      "inputs": [
        {
          "internalType": "address",
          "name": "_account",
          "type": "address"
        }
      ],
      "name": "isExcludedFromAntiWhale",
      "outputs": [
        {
          "internalType": "bool",
          "name": "",
          "type": "bool"
        }
      ],
      "stateMutability": "view",
      "type": "function",
      "constant": true
    },
    {
      "inputs": [
        {
          "internalType": "address",
          "name": "_account",
          "type": "address"
        }
      ],
      "name": "excludeFromAntiWhale",
      "outputs": [],
      "stateMutability": "nonpayable",
      "type": "function"
    },
    {
      "inputs": [
        {
          "internalType": "address",
          "name": "_account",
          "type": "address"
        }
      ],
      "name": "includeInAntiWhale",
      "outputs": [],
      "stateMutability": "nonpayable",
      "type": "function"
    },
    {
      "inputs": [
        {
          "internalType": "uint256",
          "name": "_maxTxAmount",
          "type": "uint256"
        }
      ],
      "name": "setMaxTxAmount",
      "outputs": [],
      "stateMutability": "nonpayable",
      "type": "function"
    },
    {
      "inputs": [
        {
          "internalType": "uint256",
          "name": "_minAmountToSell",
          "type": "uint256"
        },
        {
          "internalType": "uint256",
          "name": "_maxAmountToSell",
          "type": "uint256"
        }
      ],
      "name": "setAmountToSell",
      "outputs": [],
      "stateMutability": "nonpayable",
      "type": "function"
    },
    {
      "inputs": [
        {
          "internalType": "uint256",
          "name": "_fee",
          "type": "uint256"
        }
      ],
      "name": "setPairSwapFee",
      "outputs": [],
      "stateMutability": "nonpayable",
      "type": "function"
    }
  ],
  "bytecode": "0x60806040526007805462ffffff60a01b19166205040360a01b1790556103e86008556105dc600955610384600a5569152d02c7e14af6800000600b55683635c9adc5dea00000600c55686c6b935b8bbd400000600d5560c8600e553480156200006757600080fd5b5060405162003363380380620033638339810160408190526200008a91620005fd565b6040518060400160405280600581526020016429a7a620a960d91b8152506040518060400160405280600381526020016229a62960e91b8152508160039080519060200190620000dc9291906200053a565b508051620000f29060049060208401906200053a565b5050506200010f620001096200029360201b60201c565b62000297565b6200011c600033620002e9565b620001487f9f2df0fed2c77648de5860a4cc508cd0818c85b8b8a1ab4ceeef8d981c8956a633620002e9565b6040516364e329cb60e11b81523060048201526001600160a01b03828116602483015283169063c9c65396906044016020604051808303816000875af115801562000197573d6000803e3d6000fd5b505050506040513d601f19601f82011682018060405250810190620001bd919062000635565b601180546001600160a01b0319166001600160a01b0392909216919091179055600160136000620001eb3390565b6001600160a01b03908116825260208083019390935260409182016000908120805495151560ff199687161790553080825260138552838220805487166001908117909155338352601490955283822080548716861790558152919091208054909316909117909155601280549183166001600160a01b03199092169190911790556200028b620002793390565b6a084595161401484a000000620002f9565b5050620006b7565b3390565b600780546001600160a01b038381166001600160a01b0319831681179093556040519116919082907f8be0079c531659141344cd1fd0a4f28419497f9722a3daafe3b4186f6b6457e090600090a35050565b620002f58282620003e1565b5050565b6001600160a01b038216620003545760405162461bcd60e51b815260206004820152601f60248201527f45524332303a206d696e7420746f20746865207a65726f206164647265737300604482015260640160405180910390fd5b806002600082825462000368919062000653565b90915550506001600160a01b038216600090815260208190526040812080548392906200039790849062000653565b90915550506040518181526001600160a01b038316906000907fddf252ad1be2c89b69c2b068fc378daa952ba7f163c4a11628f55a4df523b3ef9060200160405180910390a35050565b620003f882826200042460201b620016371760201c565b60008281526006602090815260409091206200041f918390620016d9620004c8821b17901c565b505050565b60008281526005602090815260408083206001600160a01b038516845290915290205460ff16620002f55760008281526005602090815260408083206001600160a01b03851684529091529020805460ff19166001179055620004843390565b6001600160a01b0316816001600160a01b0316837f2f8788117e7eff1d82e926ec794901d17c78024a50270940304540a733656f0d60405160405180910390a45050565b6000620004df836001600160a01b038416620004e8565b90505b92915050565b60008181526001830160205260408120546200053157508154600181810184556000848152602080822090930184905584548482528286019093526040902091909155620004e2565b506000620004e2565b82805462000548906200067a565b90600052602060002090601f0160209004810192826200056c5760008555620005b7565b82601f106200058757805160ff1916838001178555620005b7565b82800160010185558215620005b7579182015b82811115620005b75782518255916020019190600101906200059a565b50620005c5929150620005c9565b5090565b5b80821115620005c55760008155600101620005ca565b80516001600160a01b0381168114620005f857600080fd5b919050565b600080604083850312156200061157600080fd5b6200061c83620005e0565b91506200062c60208401620005e0565b90509250929050565b6000602082840312156200064857600080fd5b620004df82620005e0565b600082198211156200067557634e487b7160e01b600052601160045260246000fd5b500190565b600181811c908216806200068f57607f821691505b60208210811415620006b157634e487b7160e01b600052602260045260246000fd5b50919050565b612c9c80620006c76000396000f3fe608060405234801561001057600080fd5b506004361061036d5760003560e01c8063715018a6116101d3578063aa6bd88a11610104578063d547741f116100a2578063ec28438a1161007c578063ec28438a146107be578063f2fde38b146107d1578063f76e1951146107e4578063fb7178b7146107ed57600080fd5b8063d547741f1461075f578063dd62ed3e14610772578063ea2f0b37146107ab57600080fd5b8063c57dcfb7116100de578063c57dcfb7146106fe578063c68975df14610712578063ca15c87314610725578063d53913931461073857600080fd5b8063aa6bd88a146106cf578063bb3eddf7146106d8578063bf323719146106eb57600080fd5b80639010d07c11610171578063a217fddf1161014b578063a217fddf1461068e578063a457c2d714610696578063a8b08982146106a9578063a9059cbb146106bc57600080fd5b80639010d07c1461063a57806391d148541461064d57806395d89b411461068657600080fd5b80638c0b5e22116101ad5780638c0b5e22146105f95780638c414954146106025780638da5cb5b146106155780638f7715fb1461062657600080fd5b8063715018a6146105ca5780637688f006146105d257806387c6849f146105e657600080fd5b8063313ce567116102ad578063438acfae1161024b5780635342acb4116102255780635342acb41461054f5780636720b57c1461057b5780636927810d1461058e57806370a08231146105a157600080fd5b8063438acfae14610521578063464ab1d3146105345780634c6580481461053c57600080fd5b8063395093511161028757806339509351146104df57806340c10f19146104f2578063414c4a8d14610505578063437823ec1461050e57600080fd5b8063313ce5671461048c5780633463b88a146104a157806336568abe146104cc57600080fd5b806318160ddd1161031a578063269f534c116102f4578063269f534c1461043b57806329841edf146104675780632beccd57146104705780632f2ff15d1461047957600080fd5b806318160ddd146103fd57806323b872dd14610405578063248a9ca31461041857600080fd5b8063095ea7b31161034b578063095ea7b3146103cc5780630cb73282146103df57806318144367146103f457600080fd5b806301ffc9a71461037257806303053c0e1461039a57806306fdde03146103b7575b600080fd5b610385610380366004612842565b610800565b60405190151581526020015b60405180910390f35b6103a9670de0b6b3a764000081565b604051908152602001610391565b6103bf610844565b60405161039191906128c4565b6103856103da3660046128f3565b6108d6565b6103f26103ed36600461291d565b6108ee565b005b6103a9600c5481565b6002546103a9565b61038561041336600461293f565b6109d1565b6103a961042636600461297b565b60009081526005602052604090206001015490565b610385610449366004612994565b6001600160a01b031660009081526014602052604090205460ff1690565b6103a9600e5481565b6103a960095481565b6103f26104873660046129af565b6109f3565b60125b60405160ff9091168152602001610391565b6010546104b4906001600160a01b031681565b6040516001600160a01b039091168152602001610391565b6103f26104da3660046129af565b610a1e565b6103856104ed3660046128f3565b610aaa565b6103f26105003660046128f3565b610ae9565b6103a9600d5481565b6103f261051c366004612994565b610b8f565b6103f261052f36600461297b565b610c32565b6103f2610cbd565b6103f261054a366004612994565b610e3e565b61038561055d366004612994565b6001600160a01b031660009081526013602052604090205460ff1690565b6103f2610589366004612994565b610eda565b6012546104b4906001600160a01b031681565b6103a96105af366004612994565b6001600160a01b031660009081526020819052604090205490565b6103f2610f7d565b60075461048f90600160b01b900460ff1681565b600f546104b4906001600160a01b031681565b6103a9600b5481565b6103f261061036600461297b565b610fd1565b6007546001600160a01b03166104b4565b60075461048f90600160a81b900460ff1681565b6104b461064836600461291d565b61105c565b61038561065b3660046129af565b60009182526005602090815260408084206001600160a01b0393909316845291905290205460ff1690565b6103bf61107b565b6103a9600081565b6103856106a43660046128f3565b61108a565b6011546104b4906001600160a01b031681565b6103856106ca3660046128f3565b61113f565b6103a960085481565b6103f26106e636600461297b565b611155565b6103f26106f9366004612994565b6111e0565b60075461048f90600160a01b900460ff1681565b6103f261072036600461297b565b611279565b6103a961073336600461297b565b6112f6565b6103a97f9f2df0fed2c77648de5860a4cc508cd0818c85b8b8a1ab4ceeef8d981c8956a681565b6103f261076d3660046129af565b61130d565b6103a96107803660046129db565b6001600160a01b03918216600090815260016020908152604080832093909416825291909152205490565b6103f26107b9366004612994565b611333565b6103f26107cc36600461297b565b6113cc565b6103f26107df366004612994565b6114c7565b6103a9600a5481565b6103f26107fb366004612994565b611594565b60006001600160e01b031982167f5a05180f00000000000000000000000000000000000000000000000000000000148061083e575061083e826116ee565b92915050565b60606003805461085390612a05565b80601f016020809104026020016040519081016040528092919081815260200182805461087f90612a05565b80156108cc5780601f106108a1576101008083540402835291602001916108cc565b820191906000526020600020905b8154815290600101906020018083116108af57829003601f168201915b5050505050905090565b6000336108e4818585611755565b5060019392505050565b6007546001600160a01b0316331461093b5760405162461bcd60e51b81526020600482018190526024820152600080516020612c4783398151915260448201526064015b60405180910390fd5b80821061098a5760405162461bcd60e51b815260206004820152601160248201527f496e636f727265637420616d6f756e74730000000000000000000000000000006044820152606401610932565b600c829055600d81905560408051838152602081018390527fc312f4904ed96579685aeb7389c8c60f74c2c3fc1235fdea1087fea474c71a05910160405180910390a15050565b6000336109df8582856118ad565b6109ea85858561193f565b95945050505050565b600082815260056020526040902060010154610a0f8133611af6565b610a198383611b76565b505050565b6001600160a01b0381163314610a9c5760405162461bcd60e51b815260206004820152602f60248201527f416363657373436f6e74726f6c3a2063616e206f6e6c792072656e6f756e636560448201527f20726f6c657320666f722073656c6600000000000000000000000000000000006064820152608401610932565b610aa68282611b98565b5050565b3360008181526001602090815260408083206001600160a01b03871684529091528120549091906108e49082908690610ae4908790612a56565b611755565b610b137f9f2df0fed2c77648de5860a4cc508cd0818c85b8b8a1ab4ceeef8d981c8956a63361065b565b610b855760405162461bcd60e51b815260206004820152603660248201527f45524332305072657365744d696e7465725061757365723a206d75737420686160448201527f7665206d696e74657220726f6c6520746f206d696e74000000000000000000006064820152608401610932565b610aa68282611bba565b6007546001600160a01b03163314610bd75760405162461bcd60e51b81526020600482018190526024820152600080516020612c478339815191526044820152606401610932565b6001600160a01b038116600081815260136020908152604091829020805460ff1916600117905590519182527f58c3e0504c69d3a92726966f152a771e0f8f6ad4daca1ae9055a38aba1fd2b6291015b60405180910390a150565b6007546001600160a01b03163314610c7a5760405162461bcd60e51b81526020600482018190526024820152600080516020612c478339815191526044820152606401610932565b6127108110610c8857600080fd5b60098190556040518181527f01d07797b3b04c7414cd464a0cb7cce1833feee59168348254a56f65788f189890602001610c27565b30600090815260208190526040902054600c54811115610e3b57600d54811115610ce65750600d545b600f546001600160a01b031615610e3b57601154601254600e54600092610d1e9285926001600160a01b039283169230921690611c99565b6012549091506000908190610d3f9030906001600160a01b03168386611cc5565b6011549195509350610d5e92503091506001600160a01b031686611d04565b601154600f54604080516000815260208101918290527f022c0d9f000000000000000000000000000000000000000000000000000000009091526001600160a01b039283169263022c0d9f92610dbd9287928792169060248101612a84565b600060405180830381600087803b158015610dd757600080fd5b505af1158015610deb573d6000803e3d6000fd5b5050600f5460408051888152602081018890526001600160a01b0390921693507ffb078e40f321f37960697b26db0f05e763ea8823c9e6a8c97a57d635479de10692500160405180910390a25050505b50565b6007546001600160a01b03163314610e865760405162461bcd60e51b81526020600482018190526024820152600080516020612c478339815191526044820152606401610932565b6001600160a01b038116600081815260146020908152604091829020805460ff1916600117905590519182527fb26de3f69ef8b51e965d5ed38ec6938921ab3455e1e8ae6dfed7b4231b7dfffc9101610c27565b6007546001600160a01b03163314610f225760405162461bcd60e51b81526020600482018190526024820152600080516020612c478339815191526044820152606401610932565b600f805473ffffffffffffffffffffffffffffffffffffffff19166001600160a01b0383169081179091556040519081527fa1c22d0ad3e6018e53117c9fa7e96b256ef4b53c0ab6d52b23c6cfcaff543dec90602001610c27565b6007546001600160a01b03163314610fc55760405162461bcd60e51b81526020600482018190526024820152600080516020612c478339815191526044820152606401610932565b610fcf6000611f1b565b565b6007546001600160a01b031633146110195760405162461bcd60e51b81526020600482018190526024820152600080516020612c478339815191526044820152606401610932565b612710811061102757600080fd5b600a8190556040518181527f8e7a40d15743a359769e9b5cb5173181cc45606f3db508496ebd718548f68e8290602001610c27565b60008281526006602052604081206110749083611f7a565b9392505050565b60606004805461085390612a05565b3360008181526001602090815260408083206001600160a01b0387168452909152812054909190838110156111275760405162461bcd60e51b815260206004820152602560248201527f45524332303a2064656372656173656420616c6c6f77616e63652062656c6f7760448201527f207a65726f0000000000000000000000000000000000000000000000000000006064820152608401610932565b6111348286868403611755565b506001949350505050565b60003361114d81858561193f565b949350505050565b6007546001600160a01b0316331461119d5760405162461bcd60e51b81526020600482018190526024820152600080516020612c478339815191526044820152606401610932565b61271081106111ab57600080fd5b60088190556040518181527f8c66bb34c324fde6c64a8f8d7c84df8ea97076a77a945eaca39361af3c78bb3e90602001610c27565b6007546001600160a01b031633146112285760405162461bcd60e51b81526020600482018190526024820152600080516020612c478339815191526044820152606401610932565b6001600160a01b038116600081815260146020908152604091829020805460ff1916905590519182527f20c65e9c5c49388a1bc8818ce95cbcbe3d4ba6b8bb2ce05fed5941043c4bd8b59101610c27565b6007546001600160a01b031633146112c15760405162461bcd60e51b81526020600482018190526024820152600080516020612c478339815191526044820152606401610932565b600e8190556040518181527fbeee2273a1f77b579f0acee5eec41d417cdb9b7a0e065cff7a04061e7e86b18690602001610c27565b600081815260066020526040812061083e90611f86565b6000828152600560205260409020600101546113298133611af6565b610a198383611b98565b6007546001600160a01b0316331461137b5760405162461bcd60e51b81526020600482018190526024820152600080516020612c478339815191526044820152606401610932565b6001600160a01b038116600081815260136020908152604091829020805460ff1916905590519182527f4f6a6b6efe34ec6478021aa9fb7f6980e78ea3a10c74074a8ce49d5d3ebf1f7e9101610c27565b6007546001600160a01b031633146114145760405162461bcd60e51b81526020600482018190526024820152600080516020612c478339815191526044820152606401610932565b670de0b6b3a76400008110156114925760405162461bcd60e51b815260206004820152602960248201527f6d61785478416d6f756e74206861766520746f2062652067726561746572207460448201527f68616e203120736c7200000000000000000000000000000000000000000000006064820152608401610932565b600b8190556040518181527faa3699eefc959af0349072633ce13d21ce9c6fe475e5818b99da990ee39645a190602001610c27565b6007546001600160a01b0316331461150f5760405162461bcd60e51b81526020600482018190526024820152600080516020612c478339815191526044820152606401610932565b6001600160a01b03811661158b5760405162461bcd60e51b815260206004820152602660248201527f4f776e61626c653a206e6577206f776e657220697320746865207a65726f206160448201527f64647265737300000000000000000000000000000000000000000000000000006064820152608401610932565b610e3b81611f1b565b6007546001600160a01b031633146115dc5760405162461bcd60e51b81526020600482018190526024820152600080516020612c478339815191526044820152606401610932565b6010805473ffffffffffffffffffffffffffffffffffffffff19166001600160a01b0383169081179091556040519081527f36e43f2444bbc77b4aade3e1703469dd1dca69efb647ba02a30b2049b7e8f90390602001610c27565b60008281526005602090815260408083206001600160a01b038516845290915290205460ff16610aa65760008281526005602090815260408083206001600160a01b03851684529091529020805460ff191660011790556116953390565b6001600160a01b0316816001600160a01b0316837f2f8788117e7eff1d82e926ec794901d17c78024a50270940304540a733656f0d60405160405180910390a45050565b6000611074836001600160a01b038416611f90565b60006001600160e01b031982167f7965db0b00000000000000000000000000000000000000000000000000000000148061083e57507f01ffc9a7000000000000000000000000000000000000000000000000000000006001600160e01b031983161461083e565b6001600160a01b0383166117d05760405162461bcd60e51b8152602060048201526024808201527f45524332303a20617070726f76652066726f6d20746865207a65726f2061646460448201527f72657373000000000000000000000000000000000000000000000000000000006064820152608401610932565b6001600160a01b03821661184c5760405162461bcd60e51b815260206004820152602260248201527f45524332303a20617070726f766520746f20746865207a65726f20616464726560448201527f73730000000000000000000000000000000000000000000000000000000000006064820152608401610932565b6001600160a01b0383811660008181526001602090815260408083209487168084529482529182902085905590518481527f8c5be1e5ebec7d5bd14f71427d1e84f3dd0314c0f7b2291e5b200ac8c7c3b925910160405180910390a3505050565b6001600160a01b038381166000908152600160209081526040808320938616835292905220546000198114611939578181101561192c5760405162461bcd60e51b815260206004820152601d60248201527f45524332303a20696e73756666696369656e7420616c6c6f77616e63650000006044820152606401610932565b6119398484848403611755565b50505050565b6001600160a01b03831660009081526014602052604081205460ff1615801561198157506001600160a01b03831660009081526014602052604090205460ff16155b156119fe57600b548211156119fe5760405162461bcd60e51b815260206004820152602860248201527f5472616e7366657220616d6f756e74206578636565647320746865206d61785460448201527f78416d6f756e742e0000000000000000000000000000000000000000000000006064820152608401610932565b600080600080611a0f888888611fdf565b9350935093509350611a22888884611d04565b8315611ae057601054611a409089906001600160a01b031685611d04565b611a4b883086611d04565b6010546001600160a01b031663a8c36ef089611a668661208b565b6040516001600160e01b031960e085901b1681526001600160a01b0390921660048301526fffffffffffffffffffffffffffffffff16602482015260ff84166044820152606401600060405180830381600087803b158015611ac757600080fd5b505af1158015611adb573d6000803e3d6000fd5b505050505b611ae8610cbd565b506001979650505050505050565b60008281526005602090815260408083206001600160a01b038516845290915290205460ff16610aa657611b34816001600160a01b03166014612117565b611b3f836020612117565b604051602001611b50929190612abc565b60408051601f198184030181529082905262461bcd60e51b8252610932916004016128c4565b611b808282611637565b6000828152600660205260409020610a1990826116d9565b611ba282826122f8565b6000828152600660205260409020610a19908261237b565b6001600160a01b038216611c105760405162461bcd60e51b815260206004820152601f60248201527f45524332303a206d696e7420746f20746865207a65726f2061646472657373006044820152606401610932565b8060026000828254611c229190612a56565b90915550506001600160a01b03821660009081526020819052604081208054839290611c4f908490612a56565b90915550506040518181526001600160a01b038316906000907fddf252ad1be2c89b69c2b068fc378daa952ba7f163c4a11628f55a4df523b3ef9060200160405180910390a35050565b6000806000611ca9878787612390565b91509150611cb988838387612450565b98975050505050505050565b600080600080866001600160a01b0316886001600160a01b031610611ced5786888688611cf2565b878787875b929b919a509850909650945050505050565b6001600160a01b038316611d805760405162461bcd60e51b815260206004820152602560248201527f45524332303a207472616e736665722066726f6d20746865207a65726f20616460448201527f64726573730000000000000000000000000000000000000000000000000000006064820152608401610932565b6001600160a01b038216611dfc5760405162461bcd60e51b815260206004820152602360248201527f45524332303a207472616e7366657220746f20746865207a65726f206164647260448201527f65737300000000000000000000000000000000000000000000000000000000006064820152608401610932565b6001600160a01b03831660009081526020819052604090205481811015611e8b5760405162461bcd60e51b815260206004820152602660248201527f45524332303a207472616e7366657220616d6f756e742065786365656473206260448201527f616c616e636500000000000000000000000000000000000000000000000000006064820152608401610932565b6001600160a01b03808516600090815260208190526040808220858503905591851681529081208054849290611ec2908490612a56565b92505081905550826001600160a01b0316846001600160a01b03167fddf252ad1be2c89b69c2b068fc378daa952ba7f163c4a11628f55a4df523b3ef84604051611f0e91815260200190565b60405180910390a3611939565b600780546001600160a01b0383811673ffffffffffffffffffffffffffffffffffffffff19831681179093556040519116919082907f8be0079c531659141344cd1fd0a4f28419497f9722a3daafe3b4186f6b6457e090600090a35050565b60006110748383612570565b600061083e825490565b6000818152600183016020526040812054611fd75750815460018181018455600084815260208082209093018490558454848252828601909352604090209190915561083e565b50600061083e565b600080600080612007876001600160a01b031660009081526013602052604090205460ff1690565b8061202a57506001600160a01b03861660009081526013602052604090205460ff165b1561203757849150612082565b60008061204589898961259a565b9350915082905061271061205b836103e8612b3d565b6120659190612b5c565b94506120718583612b7e565b955061207d8288612b7e565b935050505b93509350935093565b60006fffffffffffffffffffffffffffffffff8211156121135760405162461bcd60e51b815260206004820152602760248201527f53616665436173743a2076616c756520646f65736e27742066697420696e203160448201527f32382062697473000000000000000000000000000000000000000000000000006064820152608401610932565b5090565b60606000612126836002612b3d565b612131906002612a56565b67ffffffffffffffff81111561214957612149612a6e565b6040519080825280601f01601f191660200182016040528015612173576020820181803683370190505b5090507f3000000000000000000000000000000000000000000000000000000000000000816000815181106121aa576121aa612b95565b60200101906001600160f81b031916908160001a9053507f7800000000000000000000000000000000000000000000000000000000000000816001815181106121f5576121f5612b95565b60200101906001600160f81b031916908160001a9053506000612219846002612b3d565b612224906001612a56565b90505b60018111156122a9577f303132333435363738396162636465660000000000000000000000000000000085600f166010811061226557612265612b95565b1a60f81b82828151811061227b5761227b612b95565b60200101906001600160f81b031916908160001a90535060049490941c936122a281612bab565b9050612227565b5083156110745760405162461bcd60e51b815260206004820181905260248201527f537472696e67733a20686578206c656e67746820696e73756666696369656e746044820152606401610932565b60008281526005602090815260408083206001600160a01b038516845290915290205460ff1615610aa65760008281526005602090815260408083206001600160a01b0385168085529252808320805460ff1916905551339285917ff6391f5c32d9c69d2a47ea670b442974b53935d1edc7fd64eb21e047a839171b9190a45050565b6000611074836001600160a01b038416612665565b600080600061239f8585612758565b509050600080876001600160a01b0316630902f1ac6040518163ffffffff1660e01b8152600401606060405180830381865afa1580156123e3573d6000803e3d6000fd5b505050506040513d601f19601f820116820180604052508101906124079190612be0565b5091509150826001600160a01b0316876001600160a01b03161461242c57808261242f565b81815b6dffffffffffffffffffffffffffff9182169a911698509650505050505050565b60008085116124c75760405162461bcd60e51b815260206004820152602360248201527f537761704d6174683a20494e53554646494349454e545f494e5055545f414d4f60448201527f554e5400000000000000000000000000000000000000000000000000000000006064820152608401610932565b6000841180156124d75750600083115b6125235760405162461bcd60e51b815260206004820181905260248201527f537761704d6174683a20494e53554646494349454e545f4c49515549444954596044820152606401610932565b600061253183612710612b7e565b61253b9087612b3d565b905060006125498583612b3d565b905060008261255a61271089612b3d565b6125649190612a56565b9050611cb98183612b5c565b600082600001828154811061258757612587612b95565b9060005260206000200154905092915050565b60115460009081906001600160a01b03858116911614156125e757612710600954846125c69190612b3d565b6125d09190612b5c565b600754909250600160a81b900460ff16905061265d565b6011546001600160a01b038681169116141561262f57612710600a548461260e9190612b3d565b6126189190612b5c565b600754909250600160b01b900460ff16905061265d565b612710600854846126409190612b3d565b61264a9190612b5c565b600754909250600160a01b900460ff1690505b935093915050565b6000818152600183016020526040812054801561274e576000612689600183612b7e565b855490915060009061269d90600190612b7e565b90508181146127025760008660000182815481106126bd576126bd612b95565b90600052602060002001549050808760000184815481106126e0576126e0612b95565b6000918252602080832090910192909255918252600188019052604090208390555b855486908061271357612713612c30565b60019003818190600052602060002001600090559055856001016000868152602001908152602001600020600090556001935050505061083e565b600091505061083e565b600080826001600160a01b0316846001600160a01b031614156127bd5760405162461bcd60e51b815260206004820152601d60248201527f537761704d6174683a204944454e544943414c5f4144445245535345530000006044820152606401610932565b826001600160a01b0316846001600160a01b0316106127dd5782846127e0565b83835b90925090506001600160a01b03821661283b5760405162461bcd60e51b815260206004820152601660248201527f537761704d6174683a205a45524f5f41444452455353000000000000000000006044820152606401610932565b9250929050565b60006020828403121561285457600080fd5b81356001600160e01b03198116811461107457600080fd5b60005b8381101561288757818101518382015260200161286f565b838111156119395750506000910152565b600081518084526128b081602086016020860161286c565b601f01601f19169290920160200192915050565b6020815260006110746020830184612898565b80356001600160a01b03811681146128ee57600080fd5b919050565b6000806040838503121561290657600080fd5b61290f836128d7565b946020939093013593505050565b6000806040838503121561293057600080fd5b50508035926020909101359150565b60008060006060848603121561295457600080fd5b61295d846128d7565b925061296b602085016128d7565b9150604084013590509250925092565b60006020828403121561298d57600080fd5b5035919050565b6000602082840312156129a657600080fd5b611074826128d7565b600080604083850312156129c257600080fd5b823591506129d2602084016128d7565b90509250929050565b600080604083850312156129ee57600080fd5b6129f7836128d7565b91506129d2602084016128d7565b600181811c90821680612a1957607f821691505b60208210811415612a3a57634e487b7160e01b600052602260045260246000fd5b50919050565b634e487b7160e01b600052601160045260246000fd5b60008219821115612a6957612a69612a40565b500190565b634e487b7160e01b600052604160045260246000fd5b8481528360208201526001600160a01b0383166040820152608060608201526000612ab26080830184612898565b9695505050505050565b7f416363657373436f6e74726f6c3a206163636f756e7420000000000000000000815260008351612af481601785016020880161286c565b7f206973206d697373696e6720726f6c65200000000000000000000000000000006017918401918201528351612b3181602884016020880161286c565b01602801949350505050565b6000816000190483118215151615612b5757612b57612a40565b500290565b600082612b7957634e487b7160e01b600052601260045260246000fd5b500490565b600082821015612b9057612b90612a40565b500390565b634e487b7160e01b600052603260045260246000fd5b600081612bba57612bba612a40565b506000190190565b80516dffffffffffffffffffffffffffff811681146128ee57600080fd5b600080600060608486031215612bf557600080fd5b612bfe84612bc2565b9250612c0c60208501612bc2565b9150604084015163ffffffff81168114612c2557600080fd5b809150509250925092565b634e487b7160e01b600052603160045260246000fdfe4f776e61626c653a2063616c6c6572206973206e6f7420746865206f776e6572a2646970667358221220b48514a2564915f52645cc8d90852b503ac27cc14d85a1dfa320119c6c243c1a64736f6c634300080c0033",
  "immutableReferences": {},
  "source": "// SPDX-License-Identifier: MIT\npragma solidity 0.8.12;\n\nimport \"@openzeppelin/contracts/token/ERC20/ERC20.sol\";\nimport \"@openzeppelin/contracts/utils/math/SafeCast.sol\";\nimport \"@openzeppelin/contracts/access/AccessControlEnumerable.sol\";\nimport \"@openzeppelin/contracts/access/Ownable.sol\";\nimport \"./interface/IPair.sol\";\nimport \"./interface/IFactory.sol\";\nimport \"./lib/SwapMath.sol\";\nimport \"./ReferralService.sol\";\nimport \"./MilkyWay/MilkyWay.sol\";\n\ncontract SolarToken is ERC20(\"SOLAR\", \"SLR\"), AccessControlEnumerable, Ownable {\n  using SafeCast for uint256;\n\n  uint8 public referralTransferTaxFee = 3;\n  uint8 public referralSellTaxFee = 4;\n  uint8 public referralBuyTaxFee = 5;\n  uint256 public taxTransferFee = 1000; // 100% = 10 000\n  uint256 public taxSellFee = 1500; // 100% = 10 000\n  uint256 public taxBuyFee = 900; // 100% = 10 000\n  uint256 public maxTxAmount = 100000 * 10 ** 18; // 100k SLR\n  uint256 public minAmountToSell = 1000 * 10 ** 18; // 1k SLR\n  uint256 public maxAmountToSell = 2000 * 10 ** 18; // 2k SLR\n  uint256 public pairSwapFee = 200;\n  address public milkyWayAddress;\n  address public referralServiceAddress;\n  address public pairAddress;\n  address public pairedTokenAddress;\n  uint256 public constant MIN_TX_AMOUNT_HARD_CAP = 1 * 10 ** 18;\n  bytes32 public constant MINTER_ROLE = keccak256(\"MINTER_ROLE\");\n  mapping(address => bool) private excludedFromFee;\n  mapping(address => bool) private excludedFromAntiWhale;\n\n  event UpdateMaxTxAmount(uint256 newAmount);\n  event UpdateSellAmounts(uint256 newMinAmount, uint256 maxMinAmount);\n  event SetMilkyWayAddress(address milkyWayAddress);\n  event IncludeInAntiWhale(address account);\n  event ExcludeFromAntiWhale(address account);\n  event IncludeInFee(address account);\n  event ExcludeFromFee(address account);\n  event SetReferralServiceAddress(address referralServiceAddress);\n  event UpdatePairSwapFee(uint256 fee);\n  event UpdateTaxSellFee(uint256 fee);\n  event UpdateTaxBuyFee(uint256 fee);\n  event UpdateTaxTransferFee(uint256 fee);\n  event SellTax(uint256 amountIn, uint256 amountOut, address indexed milkyWayAddress);\n\n  constructor(address _factoryAddress, address _pairedTokenAddress) {\n    _setupRole(DEFAULT_ADMIN_ROLE, _msgSender());\n    _setupRole(MINTER_ROLE, _msgSender());\n    \n    pairAddress = IFactory(_factoryAddress).createPair(address(this), _pairedTokenAddress);\n    \n    excludedFromFee[_msgSender()] = true;\n    excludedFromFee[address(this)] = true;\n    excludedFromAntiWhale[msg.sender] = true;\n    excludedFromAntiWhale[address(this)] = true;\n\n    pairedTokenAddress = _pairedTokenAddress;\n\n    _mint(_msgSender(), 10000000 ether);\n  }\n\n  /**\n    * @dev Creates `amount` new tokens for `to`.\n    *\n    * See {ERC20-_mint}.\n    *\n    * Requirements:\n    *\n    * - the caller must have the `MINTER_ROLE`.\n    */\n  function mint(address to, uint256 amount) public virtual {\n    require(hasRole(MINTER_ROLE, _msgSender()), \"ERC20PresetMinterPauser: must have minter role to mint\");\n    _mint(to, amount);\n  }\n\n  function milkyWay() public {    \n    uint256 amountIn = balanceOf(address(this));\n\n    if (amountIn > minAmountToSell) {\n      if (amountIn > maxAmountToSell) {\n        amountIn = maxAmountToSell;\n      }\n\n      if (milkyWayAddress != address(0)) {\n        uint256 amountOut = SwapMath.getAmountOutByPair(\n          amountIn,\n          pairAddress,\n          address(this),\n          pairedTokenAddress,\n          pairSwapFee\n        );\n\n        (,, uint256 amountOut0, uint256 amountOut1) = SwapMath.sortTokensAmount(\n          address(this),\n          pairedTokenAddress,\n          uint256(0),\n          amountOut\n        );\n\n        _transfer(address(this), pairAddress, amountIn);\n\n        IPair(pairAddress).swap(amountOut0, amountOut1, milkyWayAddress, new bytes(0));\n\n        emit SellTax(amountIn, amountOut, milkyWayAddress);\n      }\n    }\n  }\n\n  function transferWithFee(address _from, address _to, uint256 _amount) private returns (bool) {\n    if (!isExcludedFromAntiWhale(_from) && !isExcludedFromAntiWhale(_to)) {\n      require(_amount <= maxTxAmount, \"Transfer amount exceeds the maxTxAmount.\");\n    }\n\n    (uint256 feeAmount, uint256 referralAmount, uint256 transferAmount, uint8 refAction) = calcFee(_from, _to, _amount);\n    _transfer(_from, _to, transferAmount);\n\n    if (feeAmount > 0) {\n      _transfer(_from, referralServiceAddress, referralAmount);\n      _transfer(_from, address(this), feeAmount);\n\n      ReferralService(referralServiceAddress).saveReferrerReward(_from, referralAmount.toUint128(), refAction);\n    }\n\n    milkyWay();\n\n    return true;\n  }\n\n  function transfer(address _to, uint256 _amount) public virtual override(ERC20) returns (bool) {\n    address owner = _msgSender();\n\n    return transferWithFee(owner, _to, _amount);\n  }\n\n  function transferFrom(\n    address _from,\n    address _to,\n    uint256 _amount\n  ) public virtual override(ERC20) returns (bool) {\n    address spender = _msgSender();\n    _spendAllowance(_from, spender, _amount);\n\n    return transferWithFee(_from, _to, _amount);\n  }\n\n  function calculateTaxFee(address _from, address _to, uint256 _amount) internal view returns(uint256, uint8) {\n    if (_to == pairAddress) {\n      return (_amount * taxSellFee / 10000, referralSellTaxFee);\n    } else if (_from == pairAddress) {\n      return (_amount * taxBuyFee / 10000, referralBuyTaxFee);\n    }\n\n    return (_amount * taxTransferFee / 10000, referralTransferTaxFee);\n  }\n\n  function calcFee(address _from, address _to, uint256 _amount) internal view returns(uint256 feeAmount, uint256 referralAmount, uint256 transferAmount, uint8 refAction) {\n    // if any account belongs to isExcludedFromFee account then remove the fee\n    if (isExcludedFromFee(_from) || isExcludedFromFee(_to)) {\n      transferAmount = _amount;\n    } else {\n      (uint256 taxFeeAmount, uint8 refAction_) = calculateTaxFee(_from, _to, _amount);\n      refAction = refAction_;\n      referralAmount = taxFeeAmount * 1000 / 10000;\n      feeAmount = taxFeeAmount - referralAmount;\n      transferAmount = _amount - taxFeeAmount;\n    }\n  }\n\n  function setTaxTransferFee(uint256 _fee) public onlyOwner {\n    require(_fee < 10000);\n\n    taxTransferFee = _fee;\n\n    emit UpdateTaxTransferFee(_fee);\n  }\n\n  function setTaxSellFee(uint256 _fee) public onlyOwner {\n    require(_fee < 10000);\n\n    taxSellFee = _fee;\n\n    emit UpdateTaxSellFee(_fee);\n  }\n\n  function setTaxBuyFee(uint256 _fee) public onlyOwner {\n    require(_fee < 10000);\n\n    taxBuyFee = _fee;\n\n    emit UpdateTaxBuyFee(_fee);\n  }\n\n  function setMilkyWayAddress(address _address) public onlyOwner {\n    milkyWayAddress = _address;\n\n    emit SetMilkyWayAddress(_address);\n  }\n\n  function setReferralServiceAddress(address _address) public onlyOwner {\n    referralServiceAddress = _address;\n\n    emit SetReferralServiceAddress(_address);\n  }\n\n  function isExcludedFromFee(address _account) public view returns (bool) {\n    return excludedFromFee[_account];\n  }\n\n  function excludeFromFee(address _account) public onlyOwner {\n    excludedFromFee[_account] = true;\n\n    emit ExcludeFromFee(_account);\n  }\n\n  function includeInFee(address _account) public onlyOwner {\n    excludedFromFee[_account] = false;\n\n    emit IncludeInFee(_account);\n  }\n\n  function isExcludedFromAntiWhale(address _account) public view returns (bool) {\n    return excludedFromAntiWhale[_account];\n  }\n\n  function excludeFromAntiWhale(address _account) public onlyOwner {\n    excludedFromAntiWhale[_account] = true;\n\n    emit ExcludeFromAntiWhale(_account);\n  }\n\n  function includeInAntiWhale(address _account) public onlyOwner {\n    excludedFromAntiWhale[_account] = false;\n\n    emit IncludeInAntiWhale(_account);\n  }\n\n  function setMaxTxAmount(uint256 _maxTxAmount) external onlyOwner {\n    require(_maxTxAmount >= MIN_TX_AMOUNT_HARD_CAP, \"maxTxAmount have to be greater than 1 slr\");\n    maxTxAmount = _maxTxAmount;\n\n    emit UpdateMaxTxAmount(_maxTxAmount);\n  }\n\n  function setAmountToSell(uint256 _minAmountToSell, uint256 _maxAmountToSell) public onlyOwner {\n    require(_minAmountToSell < _maxAmountToSell, \"Incorrect amounts\");\n\n    minAmountToSell = _minAmountToSell;\n    maxAmountToSell = _maxAmountToSell;\n\n    emit UpdateSellAmounts(_minAmountToSell, _maxAmountToSell);\n  }\n\n  function setPairSwapFee(uint256 _fee) public onlyOwner {\n    pairSwapFee = _fee;\n\n    emit UpdatePairSwapFee(_fee);\n  }\n}\n",
  "sourcePath": "/Users/vyacheslav/Documents/solar.finance/contracts/contracts/SolarToken.sol",
  "compiler": {
    "name": "solc",
    "version": "0.8.12+commit.f00d7308.Emscripten.clang"
  },
  "schemaVersion": "3.4.5",
  "updatedAt": "2022-05-24T20:51:13.078Z",
  "networkType": "ethereum",
  "devdoc": {
    "kind": "dev",
    "methods": {
      "allowance(address,address)": {
        "details": "See {IERC20-allowance}."
      },
      "approve(address,uint256)": {
        "details": "See {IERC20-approve}. NOTE: If `amount` is the maximum `uint256`, the allowance is not updated on `transferFrom`. This is semantically equivalent to an infinite approval. Requirements: - `spender` cannot be the zero address."
      },
      "balanceOf(address)": {
        "details": "See {IERC20-balanceOf}."
      },
      "decimals()": {
        "details": "Returns the number of decimals used to get its user representation. For example, if `decimals` equals `2`, a balance of `505` tokens should be displayed to a user as `5.05` (`505 / 10 ** 2`). Tokens usually opt for a value of 18, imitating the relationship between Ether and Wei. This is the value {ERC20} uses, unless this function is overridden; NOTE: This information is only used for _display_ purposes: it in no way affects any of the arithmetic of the contract, including {IERC20-balanceOf} and {IERC20-transfer}."
      },
      "decreaseAllowance(address,uint256)": {
        "details": "Atomically decreases the allowance granted to `spender` by the caller. This is an alternative to {approve} that can be used as a mitigation for problems described in {IERC20-approve}. Emits an {Approval} event indicating the updated allowance. Requirements: - `spender` cannot be the zero address. - `spender` must have allowance for the caller of at least `subtractedValue`."
      },
      "getRoleAdmin(bytes32)": {
        "details": "Returns the admin role that controls `role`. See {grantRole} and {revokeRole}. To change a role's admin, use {_setRoleAdmin}."
      },
      "getRoleMember(bytes32,uint256)": {
        "details": "Returns one of the accounts that have `role`. `index` must be a value between 0 and {getRoleMemberCount}, non-inclusive. Role bearers are not sorted in any particular way, and their ordering may change at any point. WARNING: When using {getRoleMember} and {getRoleMemberCount}, make sure you perform all queries on the same block. See the following https://forum.openzeppelin.com/t/iterating-over-elements-on-enumerableset-in-openzeppelin-contracts/2296[forum post] for more information."
      },
      "getRoleMemberCount(bytes32)": {
        "details": "Returns the number of accounts that have `role`. Can be used together with {getRoleMember} to enumerate all bearers of a role."
      },
      "grantRole(bytes32,address)": {
        "details": "Grants `role` to `account`. If `account` had not been already granted `role`, emits a {RoleGranted} event. Requirements: - the caller must have ``role``'s admin role."
      },
      "hasRole(bytes32,address)": {
        "details": "Returns `true` if `account` has been granted `role`."
      },
      "increaseAllowance(address,uint256)": {
        "details": "Atomically increases the allowance granted to `spender` by the caller. This is an alternative to {approve} that can be used as a mitigation for problems described in {IERC20-approve}. Emits an {Approval} event indicating the updated allowance. Requirements: - `spender` cannot be the zero address."
      },
      "mint(address,uint256)": {
        "details": "Creates `amount` new tokens for `to`. See {ERC20-_mint}. Requirements: - the caller must have the `MINTER_ROLE`."
      },
      "name()": {
        "details": "Returns the name of the token."
      },
      "owner()": {
        "details": "Returns the address of the current owner."
      },
      "renounceOwnership()": {
        "details": "Leaves the contract without owner. It will not be possible to call `onlyOwner` functions anymore. Can only be called by the current owner. NOTE: Renouncing ownership will leave the contract without an owner, thereby removing any functionality that is only available to the owner."
      },
      "renounceRole(bytes32,address)": {
        "details": "Revokes `role` from the calling account. Roles are often managed via {grantRole} and {revokeRole}: this function's purpose is to provide a mechanism for accounts to lose their privileges if they are compromised (such as when a trusted device is misplaced). If the calling account had been revoked `role`, emits a {RoleRevoked} event. Requirements: - the caller must be `account`."
      },
      "revokeRole(bytes32,address)": {
        "details": "Revokes `role` from `account`. If `account` had been granted `role`, emits a {RoleRevoked} event. Requirements: - the caller must have ``role``'s admin role."
      },
      "supportsInterface(bytes4)": {
        "details": "See {IERC165-supportsInterface}."
      },
      "symbol()": {
        "details": "Returns the symbol of the token, usually a shorter version of the name."
      },
      "totalSupply()": {
        "details": "See {IERC20-totalSupply}."
      },
      "transferOwnership(address)": {
        "details": "Transfers ownership of the contract to a new account (`newOwner`). Can only be called by the current owner."
      }
    },
    "version": 1
  },
  "userdoc": {
    "kind": "user",
    "methods": {},
    "version": 1
  }
}