{
  "contractName": "StakingService",
  "abi": [
    {
      "inputs": [
        {
          "internalType": "address",
          "name": "_earningToken",
          "type": "address"
        },
        {
          "internalType": "address",
          "name": "_slrTokenAddress",
          "type": "address"
        },
        {
          "internalType": "uint128[]",
          "name": "_aprs",
          "type": "uint128[]"
        },
        {
          "internalType": "uint32[]",
          "name": "_minLock",
          "type": "uint32[]"
        },
        {
          "internalType": "uint32[]",
          "name": "_maxLock",
          "type": "uint32[]"
        },
        {
          "internalType": "uint128[]",
          "name": "_withdrawalFees",
          "type": "uint128[]"
        }
      ],
      "stateMutability": "nonpayable",
      "type": "constructor"
    },
    {
      "anonymous": false,
      "inputs": [
        {
          "indexed": true,
          "internalType": "address",
          "name": "owner",
          "type": "address"
        },
        {
          "indexed": false,
          "internalType": "uint128",
          "name": "migratedAmount",
          "type": "uint128"
        },
        {
          "indexed": false,
          "internalType": "uint128",
          "name": "amount",
          "type": "uint128"
        },
        {
          "indexed": false,
          "internalType": "uint16",
          "name": "poolId",
          "type": "uint16"
        }
      ],
      "name": "Migrate",
      "type": "event"
    },
    {
      "anonymous": false,
      "inputs": [
        {
          "indexed": true,
          "internalType": "address",
          "name": "previousOwner",
          "type": "address"
        },
        {
          "indexed": true,
          "internalType": "address",
          "name": "newOwner",
          "type": "address"
        }
      ],
      "name": "OwnershipTransferred",
      "type": "event"
    },
    {
      "anonymous": false,
      "inputs": [
        {
          "indexed": false,
          "internalType": "address",
          "name": "account",
          "type": "address"
        }
      ],
      "name": "Paused",
      "type": "event"
    },
    {
      "anonymous": false,
      "inputs": [
        {
          "indexed": true,
          "internalType": "address",
          "name": "owner",
          "type": "address"
        },
        {
          "indexed": false,
          "internalType": "uint128",
          "name": "amount",
          "type": "uint128"
        },
        {
          "indexed": false,
          "internalType": "uint16",
          "name": "poolId",
          "type": "uint16"
        }
      ],
      "name": "Staked",
      "type": "event"
    },
    {
      "anonymous": false,
      "inputs": [
        {
          "indexed": false,
          "internalType": "address",
          "name": "account",
          "type": "address"
        }
      ],
      "name": "Unpaused",
      "type": "event"
    },
    {
      "anonymous": false,
      "inputs": [
        {
          "indexed": true,
          "internalType": "address",
          "name": "owner",
          "type": "address"
        },
        {
          "indexed": false,
          "internalType": "uint128",
          "name": "amount",
          "type": "uint128"
        },
        {
          "indexed": false,
          "internalType": "uint128",
          "name": "reward",
          "type": "uint128"
        },
        {
          "indexed": false,
          "internalType": "uint128",
          "name": "fee",
          "type": "uint128"
        }
      ],
      "name": "Unstaked",
      "type": "event"
    },
    {
      "inputs": [],
      "name": "earningToken",
      "outputs": [
        {
          "internalType": "address",
          "name": "",
          "type": "address"
        }
      ],
      "stateMutability": "view",
      "type": "function",
      "constant": true
    },
    {
      "inputs": [],
      "name": "owner",
      "outputs": [
        {
          "internalType": "address",
          "name": "",
          "type": "address"
        }
      ],
      "stateMutability": "view",
      "type": "function",
      "constant": true
    },
    {
      "inputs": [],
      "name": "paused",
      "outputs": [
        {
          "internalType": "bool",
          "name": "",
          "type": "bool"
        }
      ],
      "stateMutability": "view",
      "type": "function",
      "constant": true
    },
    {
      "inputs": [],
      "name": "referralContract",
      "outputs": [
        {
          "internalType": "address",
          "name": "",
          "type": "address"
        }
      ],
      "stateMutability": "view",
      "type": "function",
      "constant": true
    },
    {
      "inputs": [],
      "name": "renounceOwnership",
      "outputs": [],
      "stateMutability": "nonpayable",
      "type": "function"
    },
    {
      "inputs": [],
      "name": "secPerDay",
      "outputs": [
        {
          "internalType": "uint32",
          "name": "",
          "type": "uint32"
        }
      ],
      "stateMutability": "view",
      "type": "function",
      "constant": true
    },
    {
      "inputs": [],
      "name": "slrTokenAddress",
      "outputs": [
        {
          "internalType": "address",
          "name": "",
          "type": "address"
        }
      ],
      "stateMutability": "view",
      "type": "function",
      "constant": true
    },
    {
      "inputs": [
        {
          "internalType": "address",
          "name": "",
          "type": "address"
        }
      ],
      "name": "stakers",
      "outputs": [
        {
          "internalType": "uint16",
          "name": "poolId",
          "type": "uint16"
        },
        {
          "internalType": "uint128",
          "name": "initalAmount",
          "type": "uint128"
        },
        {
          "internalType": "uint128",
          "name": "amount",
          "type": "uint128"
        },
        {
          "internalType": "uint32",
          "name": "lock",
          "type": "uint32"
        },
        {
          "internalType": "uint32",
          "name": "startStaking",
          "type": "uint32"
        }
      ],
      "stateMutability": "view",
      "type": "function",
      "constant": true
    },
    {
      "inputs": [
        {
          "internalType": "uint16",
          "name": "",
          "type": "uint16"
        }
      ],
      "name": "state",
      "outputs": [
        {
          "internalType": "uint128",
          "name": "totalStaked",
          "type": "uint128"
        },
        {
          "internalType": "uint16",
          "name": "id",
          "type": "uint16"
        },
        {
          "internalType": "uint128",
          "name": "apr",
          "type": "uint128"
        },
        {
          "internalType": "uint32",
          "name": "minLock",
          "type": "uint32"
        },
        {
          "internalType": "uint32",
          "name": "maxLock",
          "type": "uint32"
        },
        {
          "internalType": "uint128",
          "name": "withdrawalFees",
          "type": "uint128"
        }
      ],
      "stateMutability": "view",
      "type": "function",
      "constant": true
    },
    {
      "inputs": [
        {
          "internalType": "address",
          "name": "newOwner",
          "type": "address"
        }
      ],
      "name": "transferOwnership",
      "outputs": [],
      "stateMutability": "nonpayable",
      "type": "function"
    },
    {
      "inputs": [
        {
          "internalType": "address",
          "name": "_referralContract",
          "type": "address"
        }
      ],
      "name": "setReferralContract",
      "outputs": [],
      "stateMutability": "nonpayable",
      "type": "function"
    },
    {
      "inputs": [
        {
          "internalType": "uint16",
          "name": "_poolId",
          "type": "uint16"
        },
        {
          "internalType": "uint128",
          "name": "_amount",
          "type": "uint128"
        },
        {
          "internalType": "uint32",
          "name": "_lock",
          "type": "uint32"
        }
      ],
      "name": "migrate",
      "outputs": [],
      "stateMutability": "nonpayable",
      "type": "function"
    },
    {
      "inputs": [
        {
          "internalType": "uint16",
          "name": "_poolId",
          "type": "uint16"
        },
        {
          "internalType": "uint128",
          "name": "_amount",
          "type": "uint128"
        },
        {
          "internalType": "uint32",
          "name": "_lock",
          "type": "uint32"
        },
        {
          "internalType": "address",
          "name": "_referrer",
          "type": "address"
        }
      ],
      "name": "stake",
      "outputs": [],
      "stateMutability": "nonpayable",
      "type": "function"
    },
    {
      "inputs": [
        {
          "internalType": "uint16",
          "name": "_poolId",
          "type": "uint16"
        }
      ],
      "name": "unstakeWithFee",
      "outputs": [],
      "stateMutability": "nonpayable",
      "type": "function"
    },
    {
      "inputs": [
        {
          "internalType": "uint16",
          "name": "_poolId",
          "type": "uint16"
        }
      ],
      "name": "unstake",
      "outputs": [],
      "stateMutability": "nonpayable",
      "type": "function"
    },
    {
      "inputs": [
        {
          "internalType": "address",
          "name": "_owner",
          "type": "address"
        }
      ],
      "name": "getReward",
      "outputs": [
        {
          "internalType": "uint128",
          "name": "",
          "type": "uint128"
        }
      ],
      "stateMutability": "view",
      "type": "function",
      "constant": true
    },
    {
      "inputs": [
        {
          "internalType": "address",
          "name": "_owner",
          "type": "address"
        }
      ],
      "name": "getStaker",
      "outputs": [
        {
          "internalType": "uint16",
          "name": "poolId",
          "type": "uint16"
        },
        {
          "internalType": "uint128",
          "name": "amount",
          "type": "uint128"
        },
        {
          "internalType": "uint32",
          "name": "lock",
          "type": "uint32"
        },
        {
          "internalType": "uint32",
          "name": "startStaking",
          "type": "uint32"
        },
        {
          "internalType": "uint32",
          "name": "timestamp",
          "type": "uint32"
        },
        {
          "internalType": "uint128",
          "name": "reward",
          "type": "uint128"
        }
      ],
      "stateMutability": "view",
      "type": "function",
      "constant": true
    },
    {
      "inputs": [
        {
          "internalType": "address",
          "name": "_owner",
          "type": "address"
        },
        {
          "internalType": "uint16",
          "name": "_poolId",
          "type": "uint16"
        }
      ],
      "name": "getStakerHistory",
      "outputs": [
        {
          "internalType": "uint16",
          "name": "poolId",
          "type": "uint16"
        },
        {
          "internalType": "uint128",
          "name": "amount",
          "type": "uint128"
        },
        {
          "internalType": "uint128",
          "name": "earned",
          "type": "uint128"
        },
        {
          "internalType": "uint32",
          "name": "lock",
          "type": "uint32"
        }
      ],
      "stateMutability": "view",
      "type": "function",
      "constant": true
    },
    {
      "inputs": [
        {
          "internalType": "uint128",
          "name": "apr",
          "type": "uint128"
        },
        {
          "internalType": "uint128",
          "name": "times",
          "type": "uint128"
        }
      ],
      "name": "getApy",
      "outputs": [
        {
          "internalType": "uint128",
          "name": "",
          "type": "uint128"
        }
      ],
      "stateMutability": "pure",
      "type": "function",
      "constant": true
    },
    {
      "inputs": [
        {
          "internalType": "uint16",
          "name": "_poolId",
          "type": "uint16"
        }
      ],
      "name": "totalStaked",
      "outputs": [
        {
          "internalType": "uint128",
          "name": "amount",
          "type": "uint128"
        }
      ],
      "stateMutability": "view",
      "type": "function",
      "constant": true
    }
  ],
  "bytecode": "0x60c0604052600680546001600160881b031916630f4240021790553480156200002757600080fd5b5060405162003834380380620038348339810160408190526200004a916200060a565b6000805460ff191690556200005f3362000425565b600180556001600160a01b038616158015906200008457506001600160a01b03851615155b801562000092575060008451115b8015620000a0575083518351145b8015620000ae575083518251145b8015620000bc575083518151145b620000ff5760405162461bcd60e51b815260206004820152600e60248201526d496e76616c696420706172616d7360901b60448201526064015b60405180910390fd5b6001600160a01b03808716608052851660a05283516006805463ffffffff909216600160881b0263ffffffff60881b1990921691909117905560005b84518161ffff1610156200041857600660019054906101000a90046001600160801b03166001600160801b0316828261ffff1681518110620001815762000181620006e8565b60200260200101516001600160801b03161115620001d05760405162461bcd60e51b815260206004820152600b60248201526a496e76616c69642066656560a81b6044820152606401620000f6565b828161ffff1681518110620001e957620001e9620006e8565b602002602001015163ffffffff16848261ffff1681518110620002105762000210620006e8565b602002602001015163ffffffff161115620002625760405162461bcd60e51b8152602060048201526011602482015270496e76616c69642074696d65206c6f636b60781b6044820152606401620000f6565b60006200027182600162000714565b90506040518060c0016040528060006001600160801b031681526020018261ffff168152602001878461ffff1681518110620002b157620002b1620006e8565b60200260200101516001600160801b03168152602001868461ffff1681518110620002e057620002e0620006e8565b602002602001015163ffffffff168152602001858461ffff16815181106200030c576200030c620006e8565b602002602001015163ffffffff168152602001848461ffff1681518110620003385762000338620006e8565b6020908102919091018101516001600160801b0390811690925261ffff93841660009081526003825260409081902084518154938601519085166001600160901b031990941693909317600160801b939096168302959095178555830151600185018054606086015160808701519386166001600160a01b03199092169190911763ffffffff9182169094029390931763ffffffff60a01b1916600160a01b939092169290920217905560a090910151600290920180546001600160801b03191692909116919091179055806200040f816200073d565b9150506200013b565b5050505050505062000762565b600080546001600160a01b03838116610100818102610100600160a81b0319851617855560405193049190911692909183917f8be0079c531659141344cd1fd0a4f28419497f9722a3daafe3b4186f6b6457e091a35050565b80516001600160a01b03811681146200049657600080fd5b919050565b634e487b7160e01b600052604160045260246000fd5b604051601f8201601f191681016001600160401b0381118282101715620004dc57620004dc6200049b565b604052919050565b60006001600160401b038211156200050057620005006200049b565b5060051b60200190565b600082601f8301126200051c57600080fd5b81516020620005356200052f83620004e4565b620004b1565b82815260059290921b840181019181810190868411156200055557600080fd5b8286015b84811015620005895780516001600160801b03811681146200057b5760008081fd5b835291830191830162000559565b509695505050505050565b600082601f830112620005a657600080fd5b81516020620005b96200052f83620004e4565b82815260059290921b84018101918181019086841115620005d957600080fd5b8286015b848110156200058957805163ffffffff81168114620005fc5760008081fd5b8352918301918301620005dd565b60008060008060008060c087890312156200062457600080fd5b6200062f876200047e565b95506200063f602088016200047e565b60408801519095506001600160401b03808211156200065d57600080fd5b6200066b8a838b016200050a565b955060608901519150808211156200068257600080fd5b620006908a838b0162000594565b94506080890151915080821115620006a757600080fd5b620006b58a838b0162000594565b935060a0890151915080821115620006cc57600080fd5b50620006db89828a016200050a565b9150509295509295509295565b634e487b7160e01b600052603260045260246000fd5b634e487b7160e01b600052601160045260246000fd5b600061ffff808316818516808303821115620007345762000734620006fe565b01949350505050565b600061ffff80831681811415620007585762000758620006fe565b6001019392505050565b60805160a051613051620007e3600039600081816101e00152818161069e0152818161078a0152818161088301528181610e8a015281816112220152818161128b015281816112ca01528181611304015281816113f6015281816118f3015281816120bc0152818161212e01526121810152600061029501526130516000f3fe608060405234801561001057600080fd5b506004361061016b5760003560e01c80637dad19db116100cd578063abbf304a11610081578063c67091b911610066578063c67091b914610478578063cc35f6eb1461048b578063f2fde38b1461053657600080fd5b8063abbf304a146103c3578063c00007b01461046557600080fd5b80638da5cb5b116100b25780638da5cb5b146102b75780639168ae72146102cd578063a23c44b11461036957600080fd5b80637dad19db1461027d5780637fe205c71461029057600080fd5b80635c975abb11610124578063689c33b311610109578063689c33b31461024f578063715018a6146102625780637548a0921461026a57600080fd5b80635c975abb1461021a5780635d004e3a1461023057600080fd5b8063204a004a11610155578063204a004a146101985780633f35b857146101c85780634cd0a05e146101db57600080fd5b806246aba31461017057806306ad5a4714610185575b600080fd5b61018361017e366004612c34565b610549565b005b610183610193366004612c66565b6109ce565b6101ab6101a6366004612c98565b610a5d565b6040516001600160801b0390911681526020015b60405180910390f35b6101836101d6366004612cdf565b610a70565b6102027f000000000000000000000000000000000000000000000000000000000000000081565b6040516001600160a01b0390911681526020016101bf565b60005460ff1660405190151581526020016101bf565b61023a6201518081565b60405163ffffffff90911681526020016101bf565b61018361025d366004612c34565b611046565b6101836115fa565b610183610278366004612d33565b611666565b600254610202906001600160a01b031681565b6102027f000000000000000000000000000000000000000000000000000000000000000081565b60005461010090046001600160a01b0316610202565b6103276102db366004612c66565b6004602052600090815260409020805460019091015461ffff8216916001600160801b03620100009091048116919081169063ffffffff600160801b8204811691600160a01b90041685565b6040805161ffff90961686526001600160801b039485166020870152939092169284019290925263ffffffff918216606084015216608082015260a0016101bf565b61037c610377366004612c66565b611be3565b6040805161ffff90971687526001600160801b03958616602088015263ffffffff9485169087015291831660608601529190911660808401521660a082015260c0016101bf565b61042d6103d1366004612d76565b6001600160a01b03909116600090815260056020908152604080832061ffff948516845290915290208054600190910154918116926001600160801b03620100009092048216929182169163ffffffff600160801b9091041690565b6040805161ffff9590951685526001600160801b039384166020860152919092169083015263ffffffff1660608201526080016101bf565b6101ab610473366004612c66565b611c4f565b6101ab610486366004612c34565b611c70565b6104ec610499366004612c34565b6003602052600090815260409020805460018201546002909201546001600160801b0380831693600160801b9384900461ffff16938282169390820463ffffffff90811693600160a01b90930416911686565b604080516001600160801b03978816815261ffff90961660208701529386169385019390935263ffffffff91821660608501521660808301529190911660a082015260c0016101bf565b610183610544366004612c66565b611d0b565b600260015414156105a15760405162461bcd60e51b815260206004820152601f60248201527f5265656e7472616e637947756172643a207265656e7472616e742063616c6c0060448201526064015b60405180910390fd5b6002600155336000908152600460205260409020805461ffff83811691161461060c5760405162461bcd60e51b815260206004820152601160248201527f496e636f727265637420706f6f6c2069640000000000000000000000000000006044820152606401610598565b600181015442906106339063ffffffff600160801b8204811691600160a01b900416612db6565b63ffffffff1611156106875760405162461bcd60e51b815260206004820181905260248201527f54696d65206c6f636b20706572696f6420686173206e6f7420657870697265646044820152606401610598565b600061069282611df3565b90506001600160a01b037f0000000000000000000000000000000000000000000000000000000000000000166340c10f19336040516001600160e01b031960e084901b1681526001600160a01b0390911660048201526001600160801b0384166024820152604401600060405180830381600087803b15801561071457600080fd5b505af1158015610728573d6000803e3d6000fd5b50505050600061271082606461073e9190612dde565b6107489190612e23565b90506001600160801b03811615610870576002546040516340c10f1960e01b81526001600160a01b0391821660048201526001600160801b03831660248201527f0000000000000000000000000000000000000000000000000000000000000000909116906340c10f1990604401600060405180830381600087803b1580156107d057600080fd5b505af11580156107e4573d6000803e3d6000fd5b50506002546001600160a01b0316915063a8c36ef090503360065460405160e084901b6001600160e01b03191681526001600160a01b0390921660048301526001600160801b038516602483015260ff166044820152606401600060405180830381600087803b15801561085757600080fd5b505af115801561086b573d6000803e3d6000fd5b505050505b6108b33360018501546001600160a01b037f00000000000000000000000000000000000000000000000000000000000000001691906001600160801b0316611ed9565b6001830154604080516001600160801b03928316815291841660208301526000828201525133917f33cc10f3b6a2d5857f6e45b45d4ebffff18ab8eb40487ac91127c718f875aac7919081900360600190a2600183015461ffff8516600090815260036020526040812080546001600160801b039384169391929161093a91859116612e49565b92506101000a8154816001600160801b0302191690836001600160801b03160217905550600460006109693390565b6001600160a01b031681526020810191909152604001600020805471ffffffffffffffffffffffffffffffffffff19168155600190810180547fffffffffffffffff000000000000000000000000000000000000000000000000169055805550505050565b6000546001600160a01b03610100909104163314610a2e5760405162461bcd60e51b815260206004820181905260248201527f4f776e61626c653a2063616c6c6572206973206e6f7420746865206f776e65726044820152606401610598565b6002805473ffffffffffffffffffffffffffffffffffffffff19166001600160a01b0392909216919091179055565b6000610a698383611f6f565b9392505050565b60026001541415610ac35760405162461bcd60e51b815260206004820152601f60248201527f5265656e7472616e637947756172643a207265656e7472616e742063616c6c006044820152606401610598565b6002600155336000908152600460205260409020805461ffff16158015610aee57508461ffff166001145b80610b005750805461ffff8681169116145b610b4c5760405162461bcd60e51b815260206004820152600f60248201527f496e76616c696420706f6f6c20696400000000000000000000000000000000006044820152606401610598565b60018101544290610b739063ffffffff600160a01b8204811691600160801b900416612db6565b63ffffffff161180610b885750805461ffff16155b610bd45760405162461bcd60e51b815260206004820152600e60248201527f54696d656c6f636b206572726f720000000000000000000000000000000000006044820152606401610598565b61ffff8516600090815260036020526040812090610bf56201518086612e71565b600183015490915063ffffffff808716600160801b9092041611801590610c305750600182015463ffffffff808716600160a01b9092041610155b8015610c5d5750825461ffff161580610c5d5750600183015463ffffffff808316600160801b9092041611155b610ca95760405162461bcd60e51b815260206004820152601160248201527f496e76616c69642074696d65206c6f636b0000000000000000000000000000006044820152606401610598565b6000866001600160801b031611610d025760405162461bcd60e51b815260206004820152601160248201527f4e6f7420656e6f75676820616d6f756e740000000000000000000000000000006044820152606401610598565b825461ffff161580610d28575082546001600160801b0362010000909104811690871611155b610d745760405162461bcd60e51b815260206004820152601160248201527f4e6f7420656e6f75676820616d6f756e740000000000000000000000000000006044820152606401610598565b8661ffff1660011415610e2b576002546001600160a01b0316630b5c3f8785336040516001600160e01b031960e085901b1681526001600160a01b03928316600482015291166024820152604401600060405180830381600087803b158015610ddc57600080fd5b505af1158015610df0573d6000803e3d6000fd5b505084547fffffffffffffffffffffffffffff00000000000000000000000000000000ffff16620100006001600160801b038a160217855550505b6000610e3684611df3565b6001850154909150600090610e559083906001600160801b0316612e94565b90506001600160801b03821615610eef576040516340c10f1960e01b81523060048201526001600160801b03831660248201527f00000000000000000000000000000000000000000000000000000000000000006001600160a01b0316906340c10f1990604401600060405180830381600087803b158015610ed657600080fd5b505af1158015610eea573d6000803e3d6000fd5b505050505b6000610f03896001600160801b031661209a565b9050610f0f8183612e94565b6001870180547fffffffffffffffffffffffffffffffff00000000000000000000000000000000166001600160801b03928316908117909155875461ffff191661ffff8d1690811789556000908152600360205260408120805492939092610f7991859116612e94565b92506101000a8154816001600160801b0302191690836001600160801b03160217905550838660010160106101000a81548163ffffffff021916908363ffffffff160217905550610fc9426121fb565b60018701805463ffffffff92909216600160a01b0263ffffffff60a01b19909216919091179055604080516001600160801b038316815261ffff8c166020820152815133927f456b2620743527ea2efb4c28cff174cd97f11f25c21449f5c491dbd8dbe67f64928290030190a25050600180555050505050505050565b600260015414156110995760405162461bcd60e51b815260206004820152601f60248201527f5265656e7472616e637947756172643a207265656e7472616e742063616c6c006044820152606401610598565b6002600155336000908152600460205260409020805461ffff8381169116146111045760405162461bcd60e51b815260206004820152601160248201527f496e636f727265637420706f6f6c2069640000000000000000000000000000006044820152606401610598565b6001810154429061112b9063ffffffff600160801b8204811691600160a01b900416612db6565b63ffffffff161161117e5760405162461bcd60e51b815260206004820152601c60248201527f54696d65206c6f636b20706572696f64206861732065787069726564000000006044820152606401610598565b61ffff821660009081526003602052604081209061119b83611df3565b60018401549091506000906111b9906001600160801b031683612e94565b60065460028501549192506000916001600160801b036101009092048216916111e3911684612dde565b6111ed9190612e23565b905060006111fb8284612e49565b6040516340c10f1960e01b81523060048201526001600160801b03861660248201529091507f00000000000000000000000000000000000000000000000000000000000000006001600160a01b0316906340c10f1990604401600060405180830381600087803b15801561126e57600080fd5b505af1158015611282573d6000803e3d6000fd5b506112c59250507f00000000000000000000000000000000000000000000000000000000000000006001600160a01b03811691506001600160801b038516611ed9565b6113027f00000000000000000000000000000000000000000000000000000000000000006001600160a01b0316336001600160801b038416611ed9565b7f00000000000000000000000000000000000000000000000000000000000000006001600160a01b031663464ab1d36040518163ffffffff1660e01b8152600401600060405180830381600087803b15801561135d57600080fd5b505af1158015611371573d6000803e3d6000fd5b5050505060018601546001600160801b0390811690821611156114db576001860154600090612710906113ad906001600160801b031684612e49565b6113b8906064612dde565b6113c29190612e23565b6002546040516340c10f1960e01b81526001600160a01b0391821660048201526001600160801b03831660248201529192507f000000000000000000000000000000000000000000000000000000000000000016906340c10f1990604401600060405180830381600087803b15801561143a57600080fd5b505af115801561144e573d6000803e3d6000fd5b50506002546001600160a01b0316915063a8c36ef090503360065460405160e084901b6001600160e01b03191681526001600160a01b0390921660048301526001600160801b038516602483015260ff166044820152606401600060405180830381600087803b1580156114c157600080fd5b505af11580156114d5573d6000803e3d6000fd5b50505050505b6001860154604080516001600160801b0392831681528683166020820152918416828201525133917f33cc10f3b6a2d5857f6e45b45d4ebffff18ab8eb40487ac91127c718f875aac7919081900360600190a2600186015461ffff8816600090815260036020526040812080546001600160801b039384169391929161156391859116612e49565b92506101000a8154816001600160801b0302191690836001600160801b03160217905550600460006115923390565b6001600160a01b031681526020810191909152604001600020805471ffffffffffffffffffffffffffffffffffff19168155600190810180547fffffffffffffffff000000000000000000000000000000000000000000000000169055805550505050505050565b6000546001600160a01b0361010090910416331461165a5760405162461bcd60e51b815260206004820181905260248201527f4f776e61626c653a2063616c6c6572206973206e6f7420746865206f776e65726044820152606401610598565b611664600061227b565b565b600260015414156116b95760405162461bcd60e51b815260206004820152601f60248201527f5265656e7472616e637947756172643a207265656e7472616e742063616c6c006044820152606401610598565b600260019081553360009081526004602052604090209061ffff8516118015611703575060065471010000000000000000000000000000000000900463ffffffff1661ffff851611155b80156117255750805461ffff8086169161171f91166001612eb6565b61ffff16145b6117715760405162461bcd60e51b815260206004820152600f60248201527f496e76616c696420706f6f6c20696400000000000000000000000000000000006044820152606401610598565b600181015442906117989063ffffffff600160a01b8204811691600160801b900416612db6565b63ffffffff1611156117ec5760405162461bcd60e51b815260206004820152600e60248201527f54696d656c6f636b206572726f720000000000000000000000000000000000006044820152606401610598565b61ffff84166000908152600360205260409020600181015463ffffffff808516600160801b90920416118015906118375750600181015463ffffffff808516600160a01b9092041610155b6118835760405162461bcd60e51b815260206004820152601160248201527f496e76616c69642074696d65206c6f636b0000000000000000000000000000006044820152606401610598565b60006118926201518085612e71565b9050600061189f84611df3565b60018501549091506000906118be9083906001600160801b0316612e94565b90506001600160801b03821615611958576040516340c10f1960e01b81523060048201526001600160801b03831660248201527f00000000000000000000000000000000000000000000000000000000000000006001600160a01b0316906340c10f1990604401600060405180830381600087803b15801561193f57600080fd5b505af1158015611953573d6000803e3d6000fd5b505050505b60006001600160801b0388161561197e5761197b886001600160801b031661209a565b90505b60408051608081018252875461ffff9081168083526001808b0180546001600160801b0380821660208089019182528c8316898b0190815263ffffffff600160801b95869004811660608c01908152336000908152600585528d81209a81529984528c8a209b518c5495518716620100000271ffffffffffffffffffffffffffffffffffff19909616908c1617949094178b559051999096018054925190961690930273ffffffffffffffffffffffffffffffffffffffff199091169782169790971796909617909255548b5490931682526003905292832080549183169390929091611a6d91859116612e49565b92506101000a8154816001600160801b0302191690836001600160801b031602179055508082611a9d9190612e94565b600187018054885461ffff191661ffff8d161789556001600160801b039290921673ffffffffffffffffffffffffffffffffffffffff1990921691909117600160801b63ffffffff871602179055611af4426121fb565b60018701805463ffffffff92909216600160a01b0263ffffffff60a01b198316811790915561ffff8b16600090815260036020526040812080546001600160801b0393841694841694909417939092611b4f91859116612e94565b92506101000a8154816001600160801b0302191690836001600160801b03160217905550611b7a3390565b604080516001600160801b0385811682528416602082015261ffff8c168183015290516001600160a01b0392909216917f4d0591dcbb24965a1d5bb719a237165da2d6365cb98c5caa5f9102eafa22f3b69181900360600190a250506001805550505050505050565b6001600160a01b03811660009081526004602052604081208054600182015461ffff909116926001600160801b0382169263ffffffff600160801b8404811693600160a01b90041691908190611c38426121fb565b9250611c4381611df3565b91505091939550919395565b6001600160a01b0381166000908152600460205260408120610a6981611df3565b600061ffff8216611ce75760015b60065471010000000000000000000000000000000000900463ffffffff1661ffff821611611ce15761ffff8116600090815260036020526040902054611ccd906001600160801b031683612e94565b915080611cd981612ed3565b915050611c7e565b50919050565b5061ffff81166000908152600360205260409020546001600160801b03165b919050565b6000546001600160a01b03610100909104163314611d6b5760405162461bcd60e51b815260206004820181905260248201527f4f776e61626c653a2063616c6c6572206973206e6f7420746865206f776e65726044820152606401610598565b6001600160a01b038116611de75760405162461bcd60e51b815260206004820152602660248201527f4f776e61626c653a206e6577206f776e657220697320746865207a65726f206160448201527f64647265737300000000000000000000000000000000000000000000000000006064820152608401610598565b611df08161227b565b50565b805461ffff16600090815260036020526040812060018301546001600160801b0316611e225750600092915050565b6000611e2d426121fb565b6001850154909150600090611e4f90600160a01b900463ffffffff1683612ef5565b600186015490915063ffffffff600160801b90910481169082161115611e8357506001840154600160801b900463ffffffff165b6001830154600090611ea4906001600160801b031663ffffffff8416611f6f565b6001870154909150620f424090611ec59083906001600160801b0316612dde565b611ecf9190612e23565b9695505050505050565b6040516001600160a01b038316602482015260448101829052611f6a9084907fa9059cbb00000000000000000000000000000000000000000000000000000000906064015b60408051601f198184030181529190526020810180517bffffffffffffffffffffffffffffffffffffffffffffffffffffffff166001600160e01b0319909316929092179091526122eb565b505050565b600080611f9c6001600160801b038516611f8e620f424061016d612dde565b6001600160801b03166123d0565b90506000611fad6201518085612f12565b9050600062015180611fbf8387612e49565b611fc99190612e23565b90506000806001600160801b03831615611fea57611fe78584612410565b91505b6001600160801b0384161561205957600061200f8661200a866001612e94565b612410565b905061205561202062015180612456565b61204c612035886001600160801b0316612456565b612043600f86900b88612474565b600f0b906124ba565b600f0b90612502565b9150505b600061208361207b61206d620f4240612456565b612043600f87900b8661256c565b600f0b6125b1565b67ffffffffffffffff169998505050505050505050565b6040516370a0823160e01b815230600482015260009081906001600160a01b037f000000000000000000000000000000000000000000000000000000000000000016906370a0823190602401602060405180830381865afa158015612103573d6000803e3d6000fd5b505050506040513d601f19601f820116820180604052508101906121279190612f38565b905061215e7f00000000000000000000000000000000000000000000000000000000000000006001600160a01b03163330866125cd565b6040516370a0823160e01b8152306004820152610a699082906001600160a01b037f000000000000000000000000000000000000000000000000000000000000000016906370a0823190602401602060405180830381865afa1580156121c8573d6000803e3d6000fd5b505050506040513d601f19601f820116820180604052508101906121ec9190612f38565b6121f69190612f51565b612624565b600063ffffffff8211156122775760405162461bcd60e51b815260206004820152602660248201527f53616665436173743a2076616c756520646f65736e27742066697420696e203360448201527f32206269747300000000000000000000000000000000000000000000000000006064820152608401610598565b5090565b600080546001600160a01b038381166101008181027fffffffffffffffffffffff0000000000000000000000000000000000000000ff851617855560405193049190911692909183917f8be0079c531659141344cd1fd0a4f28419497f9722a3daafe3b4186f6b6457e091a35050565b6000612340826040518060400160405280602081526020017f5361666545524332303a206c6f772d6c6576656c2063616c6c206661696c6564815250856001600160a01b03166126a39092919063ffffffff16565b805190915015611f6a578080602001905181019061235e9190612f68565b611f6a5760405162461bcd60e51b815260206004820152602a60248201527f5361666545524332303a204552433230206f7065726174696f6e20646964206e60448201527f6f742073756363656564000000000000000000000000000000000000000000006064820152608401610598565b6000816123dc57600080fd5b60006123e884846126ba565b90506f7fffffffffffffffffffffffffffffff6001600160801b0382161115610a6957600080fd5b6000610a6961241f6001612456565b61244d846001600160801b03166124446124396001612456565b600f89900b9061256c565b600f0b9061282d565b600f0b90612474565b6000677fffffffffffffff82111561246d57600080fd5b5060401b90565b6000600f82810b9084900b036f7fffffffffffffffffffffffffffffff1981128015906124b157506f7fffffffffffffffffffffffffffffff8113155b610a6957600080fd5b6000600f83810b9083900b0260401d6f7fffffffffffffffffffffffffffffff1981128015906124b157506f7fffffffffffffffffffffffffffffff811315610a6957600080fd5b600081600f0b6000141561251557600080fd5b600082600f0b604085600f0b901b8161253057612530612e0d565b0590506f7fffffffffffffffffffffffffffffff1981128015906124b157506f7fffffffffffffffffffffffffffffff811315610a6957600080fd5b6000600f83810b9083900b016f7fffffffffffffffffffffffffffffff1981128015906124b157506f7fffffffffffffffffffffffffffffff811315610a6957600080fd5b60008082600f0b12156125c357600080fd5b50600f0b60401d90565b6040516001600160a01b038085166024830152831660448201526064810182905261261e9085907f23b872dd0000000000000000000000000000000000000000000000000000000090608401611f1e565b50505050565b60006001600160801b038211156122775760405162461bcd60e51b815260206004820152602760248201527f53616665436173743a2076616c756520646f65736e27742066697420696e203160448201527f32382062697473000000000000000000000000000000000000000000000000006064820152608401610598565b60606126b28484600085612aa1565b949350505050565b6000816126c657600080fd5b600077ffffffffffffffffffffffffffffffffffffffffffffffff84116127025782604085901b816126fa576126fa612e0d565b049050612819565b60c084811c640100000000811061271b576020918201911c5b62010000811061272d576010918201911c5b610100811061273e576008918201911c5b6010811061274e576004918201911c5b6004811061275e576002918201911c5b6002811061276d576001820191505b60bf820360018603901c6001018260ff0387901b8161278e5761278e612e0d565b0492506001600160801b038311156127a557600080fd5b608085901c83026001600160801b038616840260c088901c604089901b828110156127d1576001820391505b608084901b929003828110156127e8576001820391505b829003608084901c82146127fe576127fe612f8a565b88818161280d5761280d612e0d565b04870196505050505050505b6001600160801b03811115610a6957600080fd5b600080600084600f0b1280156128465750826001166001145b905060008085600f0b1261285a578461285f565b846000035b6001600160801b03169050600160801b6801000000000000000082116128f957603f82901b91505b84156128f157600185161561289c578102607f1c5b908002607f1c9060028516156128b2578102607f1c5b908002607f1c9060048516156128c8578102607f1c5b908002607f1c9060088516156128de578102607f1c5b60049490941c93908002607f1c90612887565b60401c612a53565b603f6c0100000000000000000000000083101561291c5760209290921b91601f19015b6e01000000000000000000000000000083101561293f5760109290921b91600f19015b6f010000000000000000000000000000008310156129635760089290921b91600719015b6f100000000000000000000000000000008310156129875760049290921b91600319015b6f400000000000000000000000000000008310156129ab5760029290921b91600119015b6f800000000000000000000000000000008310156129cf5760019290921b91600019015b60005b8615612a3c57604082106129e557600080fd5b6001871615612a0b57918302607f1c918101600160801b831115612a0b57600192831c92015b928002607f1c9260019190911b90600160801b8410612a3057600193841c9391909101905b600187901c96506129d2565b60408110612a4957600080fd5b6040039190911c90505b600083612a605781612a65565b816000035b90506f7fffffffffffffffffffffffffffffff198112801590612a9857506f7fffffffffffffffffffffffffffffff8113155b611ecf57600080fd5b606082471015612b195760405162461bcd60e51b815260206004820152602660248201527f416464726573733a20696e73756666696369656e742062616c616e636520666f60448201527f722063616c6c00000000000000000000000000000000000000000000000000006064820152608401610598565b6001600160a01b0385163b612b705760405162461bcd60e51b815260206004820152601d60248201527f416464726573733a2063616c6c20746f206e6f6e2d636f6e74726163740000006044820152606401610598565b600080866001600160a01b03168587604051612b8c9190612fcc565b60006040518083038185875af1925050503d8060008114612bc9576040519150601f19603f3d011682016040523d82523d6000602084013e612bce565b606091505b5091509150612bde828286612be9565b979650505050505050565b60608315612bf8575081610a69565b825115612c085782518084602001fd5b8160405162461bcd60e51b81526004016105989190612fe8565b803561ffff81168114611d0657600080fd5b600060208284031215612c4657600080fd5b610a6982612c22565b80356001600160a01b0381168114611d0657600080fd5b600060208284031215612c7857600080fd5b610a6982612c4f565b80356001600160801b0381168114611d0657600080fd5b60008060408385031215612cab57600080fd5b612cb483612c81565b9150612cc260208401612c81565b90509250929050565b803563ffffffff81168114611d0657600080fd5b60008060008060808587031215612cf557600080fd5b612cfe85612c22565b9350612d0c60208601612c81565b9250612d1a60408601612ccb565b9150612d2860608601612c4f565b905092959194509250565b600080600060608486031215612d4857600080fd5b612d5184612c22565b9250612d5f60208501612c81565b9150612d6d60408501612ccb565b90509250925092565b60008060408385031215612d8957600080fd5b612d9283612c4f565b9150612cc260208401612c22565b634e487b7160e01b600052601160045260246000fd5b600063ffffffff808316818516808303821115612dd557612dd5612da0565b01949350505050565b60006001600160801b0380831681851681830481118215151615612e0457612e04612da0565b02949350505050565b634e487b7160e01b600052601260045260246000fd5b60006001600160801b0380841680612e3d57612e3d612e0d565b92169190910492915050565b60006001600160801b0383811690831681811015612e6957612e69612da0565b039392505050565b600063ffffffff80831681851681830481118215151615612e0457612e04612da0565b60006001600160801b03808316818516808303821115612dd557612dd5612da0565b600061ffff808316818516808303821115612dd557612dd5612da0565b600061ffff80831681811415612eeb57612eeb612da0565b6001019392505050565b600063ffffffff83811690831681811015612e6957612e69612da0565b60006001600160801b0380841680612f2c57612f2c612e0d565b92169190910692915050565b600060208284031215612f4a57600080fd5b5051919050565b600082821015612f6357612f63612da0565b500390565b600060208284031215612f7a57600080fd5b81518015158114610a6957600080fd5b634e487b7160e01b600052600160045260246000fd5b60005b83811015612fbb578181015183820152602001612fa3565b8381111561261e5750506000910152565b60008251612fde818460208701612fa0565b9190910192915050565b6020815260008251806020840152613007816040850160208701612fa0565b601f01601f1916919091016040019291505056fea26469706673582212205bb938bcd834c758b652b2669b510988273e921b3d07b2aaf68659a4a3f5c81f64736f6c634300080c0033",
  "immutableReferences": {
    "10135": [
      {
        "length": 32,
        "start": 661
      }
    ],
    "10138": [
      {
        "length": 32,
        "start": 480
      },
      {
        "length": 32,
        "start": 1694
      },
      {
        "length": 32,
        "start": 1930
      },
      {
        "length": 32,
        "start": 2179
      },
      {
        "length": 32,
        "start": 3722
      },
      {
        "length": 32,
        "start": 4642
      },
      {
        "length": 32,
        "start": 4747
      },
      {
        "length": 32,
        "start": 4810
      },
      {
        "length": 32,
        "start": 4868
      },
      {
        "length": 32,
        "start": 5110
      },
      {
        "length": 32,
        "start": 6387
      },
      {
        "length": 32,
        "start": 8380
      },
      {
        "length": 32,
        "start": 8494
      },
      {
        "length": 32,
        "start": 8577
      }
    ]
  },
  "source": "// SPDX-License-Identifier: MIT\npragma solidity 0.8.12;\n\nimport \"@openzeppelin/contracts/utils/Context.sol\";\nimport \"@openzeppelin/contracts/security/Pausable.sol\";\nimport \"@openzeppelin/contracts/access/Ownable.sol\";\nimport \"@openzeppelin/contracts/utils/math/SafeCast.sol\";\nimport \"@openzeppelin/contracts/token/ERC20/utils/SafeERC20.sol\";\nimport \"@openzeppelin/contracts/token/ERC20/IERC20.sol\";\nimport \"@openzeppelin/contracts/security/ReentrancyGuard.sol\";\nimport \"./SolarToken.sol\";\nimport \"./ReferralService.sol\";\nimport \"./MilkyWay/MilkyWay.sol\";\nimport \"./lib/Apy.sol\";\n\ncontract StakingService is Context, Pausable, Ownable, ReentrancyGuard {\n  using SafeCast for uint256;\n  using SafeERC20 for IERC20;\n\n  event Staked(address indexed owner, uint128 amount, uint16 poolId); /// @dev someone is staked tokens\n  event Migrate(address indexed owner, uint128 migratedAmount, uint128 amount, uint16 poolId); /// @dev someone is migrated tokens\n  event Unstaked(address indexed owner, uint128 amount, uint128 reward, uint128 fee); /// @dev someone unstaked tokens\n\n  /**\n    * @param totalStaked amount of NMXLP currently staked in the service\n    * @param historicalRewardRate how many NMX minted per one NMXLP (<< 40). Never decreases.\n    */\n  struct State {\n    uint128 totalStaked;\n    uint16 id;\n    uint128 apr;\n    uint32 minLock;\n    uint32 maxLock;\n    uint128 withdrawalFees;\n  }\n\n  struct StakingHistory {\n    uint16 poolId;\n    uint128 amount;\n    uint128 earned;\n    uint32 lock;\n  }\n\n  /**\n    * @param amount of staked tokens currently staked by the staker\n    * @param reward total amount of Nmx accrued to the staker\n    */\n  struct Staker {\n    uint16 poolId;\n    uint128 initalAmount;\n    uint128 amount;\n    uint32 lock;\n    uint32 startStaking;\n  }\n\n  /**\n    * @dev earning token address\n    */\n  address immutable public earningToken;\n\n  /**\n    * @dev staking token address\n    */\n  address immutable public slrTokenAddress;\n\n  /**\n    *\n    */\n  address public referralContract;\n\n  /**\n    * @dev mapping of pool id to its state\n    */ \n  mapping (uint16 => State) public state;\n\n  /**\n    * @dev mapping of pool id to mapping of staker's address to its state\n    */ \n  mapping(address => Staker) public stakers; \n\n  mapping(address => mapping(uint16 => StakingHistory)) stakersHistory;\n\n  uint8 referralActionClaim = 2;\n\n  uint128 feeDenominator = 1000000; \n\n  uint32 maxPoolId;\n\n  uint32 constant public secPerDay = 1 days;\n\n  constructor(\n    address _earningToken,\n    address _slrTokenAddress,\n    // 100% = 1000000\n    uint128[] memory _aprs,\n    uint32[] memory _minLock,\n    uint32[] memory _maxLock,\n    // 100% = 1000000\n    uint128[] memory _withdrawalFees\n  ) {\n    require(\n      _earningToken != address(0)\n      && _slrTokenAddress != address(0)\n      && _aprs.length > 0\n      && _minLock.length == _aprs.length\n      && _maxLock.length == _aprs.length\n      && _withdrawalFees.length == _aprs.length\n      , 'Invalid params'\n    );\n\n    earningToken = _earningToken;\n    slrTokenAddress = _slrTokenAddress;\n    maxPoolId = uint32(_aprs.length);\n\n    for (uint16 index = 0; index < _aprs.length; index++) {\n      require(_withdrawalFees[index] <= feeDenominator, 'Invalid fee');\n      require(_minLock[index] <= _maxLock[index] , 'Invalid time lock');\n\n      uint16 poolId = index + 1;\n\n      state[poolId] = State(\n        0,\n        poolId,\n        _aprs[index],\n        _minLock[index],\n        _maxLock[index],\n        _withdrawalFees[index]\n      );\n    }\n  }\n\n  function setReferralContract(address _referralContract) public onlyOwner {\n    referralContract = _referralContract;\n  }\n\n  function migrate(uint16 _poolId, uint128 _amount, uint32 _lock) public nonReentrant {\n    Staker storage staker = stakers[_msgSender()];\n    require(_poolId > 1 && _poolId <= maxPoolId && staker.poolId + 1 == _poolId, 'Invalid pool id');\n    require(staker.lock + staker.startStaking <= block.timestamp, 'Timelock error');\n\n    State storage pool = state[_poolId];\n    require(pool.minLock <= _lock && pool.maxLock >= _lock, 'Invalid time lock');\n\n    uint32 lockPerSec = _lock * secPerDay;\n    uint128 rewardAmount = getRewardByStaker(staker);\n    uint128 totalStakerAmount = staker.amount + rewardAmount;\n\n    if (rewardAmount > 0) {\n      SolarToken(slrTokenAddress).mint(address(this), rewardAmount);\n    }\n\n    uint128 stakedAmount;\n    if (_amount > 0) {\n      stakedAmount = transferDepositToContract(_amount);\n    }\n\n    stakersHistory[_msgSender()][staker.poolId] = StakingHistory(staker.poolId, staker.amount, rewardAmount, staker.lock);\n    state[staker.poolId].totalStaked -= staker.amount;\n    staker.amount = totalStakerAmount + stakedAmount;\n    staker.poolId = _poolId;\n    staker.lock = lockPerSec;\n    staker.startStaking = block.timestamp.toUint32();\n    state[_poolId].totalStaked += staker.amount;\n\n    emit Migrate(_msgSender(), totalStakerAmount, stakedAmount, _poolId);\n  }\n\n  /**\n    @dev function to stake permitted amount of LP tokens from uniswap contract\n    @param _amount of NMXLP to be staked in the service\n    */\n  function stake(uint16 _poolId, uint128 _amount, uint32 _lock, address _referrer) external nonReentrant {\n    Staker storage staker = stakers[_msgSender()];\n\n    require((staker.poolId == 0 && _poolId == 1) || staker.poolId == _poolId, 'Invalid pool id');\n    require((staker.lock + staker.startStaking > block.timestamp) || staker.poolId == 0, 'Timelock error');\n    \n    State storage pool = state[_poolId];\n    uint32 lockPerSec = _lock * secPerDay;\n\n    require(\n      (pool.minLock <= _lock && pool.maxLock >= _lock)\n      && (\n        staker.poolId == 0 || staker.lock <= lockPerSec\n      )\n      , 'Invalid time lock'\n    );\n\n    require(_amount > 0, 'Not enough amount');\n    require(staker.poolId == 0 || _amount <= staker.initalAmount, 'Not enough amount');\n\n    if (_poolId == 1) {\n      ReferralService(referralContract).addReferral(_referrer, _msgSender());\n      staker.initalAmount = _amount;\n    }\n\n    uint128 rewardAmount = getRewardByStaker(staker);\n    uint128 totalStakerAmount = staker.amount + rewardAmount;\n\n    if (rewardAmount > 0) {\n      SolarToken(slrTokenAddress).mint(address(this), rewardAmount);\n    }\n\n    uint128 stakedAmount = transferDepositToContract(_amount);\n\n    staker.amount = totalStakerAmount + stakedAmount;\n    staker.poolId = _poolId;\n    state[_poolId].totalStaked += staker.amount;\n\n    staker.lock = lockPerSec;\n    staker.startStaking = block.timestamp.toUint32();\n\n    emit Staked(_msgSender(), stakedAmount, _poolId);\n  }\n\n  /**\n    * @dev function to unstake LP tokens from the service and transfer to uniswap contract\n    */\n  function unstakeWithFee(uint16 _poolId) public nonReentrant {\n    Staker storage staker = stakers[_msgSender()];\n\n    require(staker.poolId == _poolId, 'Incorrect pool id');\n    require(staker.startStaking + staker.lock > block.timestamp, 'Time lock period has expired');\n\n    State storage pool = state[_poolId];\n    uint128 rewardAmount = getRewardByStaker(staker); // 1\n    uint128 stakerAmountAndReward = rewardAmount + staker.amount; // 101\n    uint128 totalFeeAmount = stakerAmountAndReward * pool.withdrawalFees / feeDenominator; // 101 * 37600 / 100000 = 3.7976\n    uint128 stakerAmountAndRewardWithFee = stakerAmountAndReward - totalFeeAmount; // 97.2024\n\n    SolarToken(slrTokenAddress).mint(address(this), rewardAmount); // 1\n    IERC20(slrTokenAddress).safeTransfer(slrTokenAddress, totalFeeAmount); // 3.7976\n    IERC20(slrTokenAddress).safeTransfer(_msgSender(), stakerAmountAndRewardWithFee); // 97.2024\n    SolarToken(slrTokenAddress).milkyWay();\n\n    if (stakerAmountAndRewardWithFee > staker.amount) {\n      uint128 referrerRewardAmount = (stakerAmountAndRewardWithFee - staker.amount) * 100 / 10000;\n\n      SolarToken(slrTokenAddress).mint(referralContract, referrerRewardAmount);\n      ReferralService(referralContract).saveReferrerReward(_msgSender(), referrerRewardAmount, referralActionClaim);\n    }\n\n    emit Unstaked(_msgSender(), staker.amount, rewardAmount, totalFeeAmount);\n\n    state[_poolId].totalStaked -= staker.amount;\n    delete stakers[_msgSender()];\n  }\n\n  function unstake(uint16 _poolId) public nonReentrant {\n    Staker storage staker = stakers[_msgSender()];\n\n    require(staker.poolId == _poolId, 'Incorrect pool id');\n    require(staker.startStaking + staker.lock <= block.timestamp, \"Time lock period has not expired\");\n\n    uint128 rewardAmount = getRewardByStaker(staker);\n\n    SolarToken(slrTokenAddress).mint(_msgSender(), rewardAmount);\n\n    uint128 referrerRewardAmount = rewardAmount * 100 / 10000;\n\n    if (referrerRewardAmount > 0) {\n      SolarToken(slrTokenAddress).mint(referralContract, referrerRewardAmount);\n      ReferralService(referralContract).saveReferrerReward(_msgSender(), referrerRewardAmount, referralActionClaim);\n    }\n\n    IERC20(slrTokenAddress).safeTransfer(\n      _msgSender(),\n      uint256(staker.amount)\n    );    \n\n    emit Unstaked(_msgSender(), staker.amount, rewardAmount, 0);\n\n    state[_poolId].totalStaked -= staker.amount;\n    delete stakers[_msgSender()];\n  }\n\n  function getRewardByStaker(Staker storage staker) internal view returns (uint128) {\n    State storage pool = state[staker.poolId];\n\n    if (staker.amount == 0) {\n      return 0;\n    }\n\n    uint32 timestamp = block.timestamp.toUint32();\n    uint32 stakingTime = timestamp - staker.startStaking;\n\n    if (stakingTime > staker.lock) {\n      stakingTime = staker.lock;\n    }\n\n    uint128 apy = Apy.calc(pool.apr, stakingTime);\n    \n    return staker.amount * apy / Apy.aprDenominator;\n  }\n\n  function transferDepositToContract(uint256 _amount) private returns (uint128 deposit) {\n    uint256 prevBalance = IERC20(slrTokenAddress).balanceOf(address(this));\n    IERC20(slrTokenAddress).safeTransferFrom(\n      _msgSender(),\n      address(this),\n      uint256(_amount)\n    );\n    deposit = (IERC20(slrTokenAddress).balanceOf(address(this)) - prevBalance).toUint128();\n  }\n\n  /**\n   * @dev For ui\n   */\n  function getReward(address _owner) public view returns (uint128) {\n    Staker storage staker = stakers[_owner];\n\n    return getRewardByStaker(staker);\n  }\n\n  /**\n   * @dev For ui\n   * @dev Returns staker state\n   */\n  function getStaker(address _owner) public view returns(\n    uint16 poolId,\n    uint128 amount,\n    uint32 lock,\n    uint32 startStaking,\n    uint32 timestamp,\n    uint128 reward\n  ) {\n    Staker storage staker = stakers[_owner];\n\n    poolId = staker.poolId;\n    amount = staker.amount;\n    lock = staker.lock;\n    startStaking = staker.startStaking;\n    timestamp = block.timestamp.toUint32();\n    reward = getRewardByStaker(staker);\n  }\n\n  /**\n   * @dev For ui\n   */\n  function getStakerHistory(address _owner, uint16 _poolId) public view returns(\n    uint16 poolId,\n    uint128 amount,\n    uint128 earned,\n    uint32 lock\n  ) {\n    StakingHistory storage history = stakersHistory[_owner][_poolId];\n    poolId = history.poolId;\n    amount = history.amount;\n    earned = history.earned;\n    lock = history.lock;\n  }\n\n  /**\n   * @dev For ui\n   */\n  function getApy(uint128 apr, uint128 times) public pure returns (uint128) {\n    return Apy.calc(apr, times);\n  }\n\n  /**\n   * @dev For ui\n   */\n  function totalStaked(uint16 _poolId) external view returns (uint128 amount) {\n    if (_poolId == 0) {\n      for (uint16 poolId = 1; poolId <= maxPoolId; poolId++) {\n        amount += state[poolId].totalStaked;\n      }\n    } else {\n      amount = state[_poolId].totalStaked;\n    }\n  }\n}\n",
  "sourcePath": "/Users/vyacheslav/Documents/solar.finance/contracts/contracts/StakingService.sol",
  "compiler": {
    "name": "solc",
    "version": "0.8.12+commit.f00d7308.Emscripten.clang"
  },
  "schemaVersion": "3.4.5",
  "updatedAt": "2022-05-24T20:51:13.033Z",
  "networkType": "ethereum",
  "devdoc": {
    "events": {
      "Migrate(address,uint128,uint128,uint16)": {
        "details": "someone is staked tokens"
      },
      "Unstaked(address,uint128,uint128,uint128)": {
        "details": "someone is migrated tokens"
      }
    },
    "kind": "dev",
    "methods": {
      "getApy(uint128,uint128)": {
        "details": "For ui"
      },
      "getReward(address)": {
        "details": "For ui"
      },
      "getStaker(address)": {
        "details": "For uiReturns staker state"
      },
      "getStakerHistory(address,uint16)": {
        "details": "For ui"
      },
      "owner()": {
        "details": "Returns the address of the current owner."
      },
      "paused()": {
        "details": "Returns true if the contract is paused, and false otherwise."
      },
      "renounceOwnership()": {
        "details": "Leaves the contract without owner. It will not be possible to call `onlyOwner` functions anymore. Can only be called by the current owner. NOTE: Renouncing ownership will leave the contract without an owner, thereby removing any functionality that is only available to the owner."
      },
      "stake(uint16,uint128,uint32,address)": {
        "details": "function to stake permitted amount of LP tokens from uniswap contract",
        "params": {
          "_amount": "of NMXLP to be staked in the service"
        }
      },
      "totalStaked(uint16)": {
        "details": "For ui"
      },
      "transferOwnership(address)": {
        "details": "Transfers ownership of the contract to a new account (`newOwner`). Can only be called by the current owner."
      },
      "unstakeWithFee(uint16)": {
        "details": "function to unstake LP tokens from the service and transfer to uniswap contract"
      }
    },
    "stateVariables": {
      "earningToken": {
        "details": "earning token address"
      },
      "slrTokenAddress": {
        "details": "staking token address"
      },
      "stakers": {
        "details": "mapping of pool id to mapping of staker's address to its state"
      },
      "state": {
        "details": "mapping of pool id to its state"
      }
    },
    "version": 1
  },
  "userdoc": {
    "kind": "user",
    "methods": {},
    "version": 1
  }
}